:100000000C9436000C945E000C945E000C945E0020
:100010000C945E000C945E000C945E000C945E00E8
:100020000C945E000C945E000C945E000C945E00D8
:100030000C945E000C945E000C945E000C945E00C8
:100040000C9481070C945E000C94F1070C94CB0780
:100050000C945E000C945E000C945E000C945E00A8
:100060000C945E000C945E0043080B0911241FBE23
:10007000CFEFD8E0DEBFCDBF25E0A0E7B4E001C000
:100080001D92A632B207E1F714E0A0E0B1E0E4EF80
:10009000F6E102C005900D92A037B107D9F710E044
:1000A000C5E3D0E004C02197FE010E945609C43385
:1000B000D107C9F70E947B080C946D0B0C940000CB
:1000C000AF92BF92CF92DF92EF92FF920F931F9366
:1000D000CF93DF936C017B018B01040F151FEB01A4
:1000E0005E01AE18BF08C017D10759F06991D6015B
:1000F000ED91FC910190F081E02DC6010995892BCD
:1001000079F7C501DF91CF911F910F91FF90EF908B
:10011000DF90CF90BF90AF900895FC01538D448D38
:10012000252F30E0842F90E0821B930B541710F0A2
:10013000CF96089501970895FC01918D828D9817AF
:1001400061F0A28DAE0FBF2FB11D5D968C91928D87
:100150009F5F9F73928F90E008958FEF9FEF0895B8
:100160002FB7F8948091750490917604A09177044C
:10017000B09178042FBF8093810490938204A09360
:100180008304B093840489E794E00E949C0097FF65
:1001900026C02FB7F8948091750490917604A091B1
:1001A0007704B09178042FBF40918104509182046C
:1001B0006091830470918404841B950BA60BB70B8C
:1001C00040917D0450917E0460917F047091800481
:1001D00084179507A607B707B0F28FEF9FEF089532
:1001E000FC01918D828D981731F0828DE80FF11D01
:1001F000858D90E008958FEF9FEF0895FC01918D1C
:10020000228D892F90E0805C9F4F821B91098F7314
:100210009927089589E794E00E94FE0021E0892B48
:1002200009F420E0822F089580E090E0892B29F0E6
:100230000E940A0181110C9400000895FC01A48D14
:10024000A80FB92FB11DA35ABF4F2C91848D90E0F8
:1002500001968F739927848FA689B7892C93A089DB
:10026000B1898C91837080648C93938D848D981365
:1002700006C00288F389E02D80818F7D80830895F8
:10028000EF92FF920F931F93CF93DF93EC0181E0E6
:10029000888F9B8D8C8D98131AC0E889F98980818D
:1002A00085FF15C09FB7F894EE89FF896083E889C0
:1002B000F98980818370806480839FBF81E090E0B2
:1002C000DF91CF911F910F91FF90EF900895F62E3F
:1002D0000B8D10E00F5F1F4F0F731127E02E8C8DD9
:1002E0008E110CC00FB607FCFACFE889F98980811E
:1002F00085FFF5CFCE010E941E01F1CFEB8DEC0FF3
:10030000FD2FF11DE35AFF4FF0829FB7F8940B8F3A
:10031000EA89FB8980818062CFCFCF93DF93EC01A4
:10032000888D8823B9F0AA89BB89E889F9898C91DD
:1003300085FD03C0808186FD0DC00FB607FCF7CF99
:100340008C9185FFF2CF808185FFEDCFCE010E9499
:100350001E01E9CFDF91CF910895FC0101900020AB
:10036000E9F73197AF01481B590BBC0189E794E0CD
:100370000C946000CF93DF93FC0144815581608130
:10038000718189E794E00E946000EC0188E191E0CE
:100390000E94AD018C0F9D1FDF91CF910895CF93E7
:1003A000DF930E94AD01EC0188E191E00E94AD0174
:1003B0008C0F9D1FDF91CF910895FC012481358121
:1003C000232B39F421E0FB018081882349F020E0D0
:1003D00007C0808191810E944F0B21E0892BB9F7E2
:1003E000822F0895FB0144815581FC0124813581D0
:1003F0002417350778F080819181009759F0FB012F
:10040000608171816115710529F00E945F0B21E007
:10041000892B09F020E0822F08950F931F93CF932B
:10042000DF93EC0188819981009759F02A813B8103
:100430002617370730F081E0DF91CF911F910F91A0
:1004400008958B016F5F7F4F0E94810A009759F0DA
:10045000998388831B830A832C813D81232B59F741
:10046000FC011082E8CF80E0E7CFCF93DF93EC016F
:1004700088819981009711F00E94F80919821882E9
:100480001D821C821B821A82DF91CF910895EF9208
:10049000FF920F931F93CF93DF93EC017B018A01AF
:1004A000BA010E940D0281110BC0CE010E943502DB
:1004B000CE01DF91CF911F910F91FF90EF900895A2
:1004C0001D830C83B701888199810E94580BF0CF5E
:1004D000CF93DF93EC01FB018617970749F060810A
:1004E00071816115710541F0448155810E94470277
:1004F000CE01DF91CF9108950E943502F9CFFC0122
:10050000118210821382128215821482FB010190E3
:100510000020E9F73197AF01461B570B0C944702B7
:10052000AF92BF92CF92DF92EF92FF920F931F9301
:10053000CF93DF936C017B015A01DB0114960D917F
:100540001C910417150720F48B2D5801042F182F28
:100550006AE171E0C6010E947F02F701C481D58182
:10056000AC16BD0620F50C171D0708F4E801D701ED
:10057000ED91FC911197EC0FFD1F108110826D9190
:100580007C916A0D7B1D61157105E9F0FB010190FD
:100590000020E9F73197AF01461B570BC6010E94B7
:1005A0004702F70180819181C80FD91F1883C601C6
:1005B000DF91CF911F910F91FF90EF90DF90CF903F
:1005C000BF90AF900895C6010E943502EACFFC01AA
:1005D00080819181009711F00C94F8090895AF92F1
:1005E000BF92CF92DF92EF92FF920F931F93CF9320
:1005F000DF93CDB7DEB72C970FB6F894DEBF0FBEF2
:10060000CDBF6AE171E0CE0107960E947F020E9491
:10061000B00097FD1EC08A309105D9F089831A82F7
:100620000B851C850F5F1F4FB801CE0107960E94F6
:100630000D02882361F32F8138858B859C85BE014F
:100640006F5F7F4F820F931F0E94580B1C870B8791
:10065000DECFCF80D884C114D10431F00B851C8546
:10066000760101151105B1F40F81188501151105E9
:1006700009F446C0F80181918F01882309F440C034
:10068000082E000C990B0E943E0BF80131978083D5
:10069000F1CF750157018FEFA81AB80AF7018081D1
:1006A000082E000C990B0E941309892B91F7015019
:1006B00011090C0D1D1DF8018081082E000C990BED
:1006C0000E941309892B31F00E151F0518F00150F7
:1006D0001109F1CFA8014F5F5F4F4E195F095C8789
:1006E0004B87CE14DF0420F4B701C6010E94460BED
:1006F000EF81F8858B859C85E80FF91F1082B4CFB8
:1007000068E371E0CE0107960E94DD018823A9F01D
:100710008BE191E00E94AD014091200550912105AF
:1007200060911C0570911D0589E794E00E946000AE
:100730008EE291E00E94CF0143C066E371E0CE01FA
:1007400007960E94DD01882319F08CE391E0F2CF37
:1007500065E671E0CE0107960E94DD01882319F05D
:100760008AE691E0E7CF68E771E0CE0107960E9444
:10077000DD01882319F08FE791E0DCCF6FEC71E0A9
:10078000CE0107960E94DD01882319F08AED91E0E1
:10079000D1CF60EE71E0CE0107960E94DD01882383
:1007A00019F086EE91E0C6CF61EF71E0CE010796B9
:1007B0000E94DD018823C9F08CE195E00E94BA0116
:1007C000CE0107960E94E7022C960FB6F894DEBF82
:1007D0000FBECDBFDF91CF911F910F91FF90EF9092
:1007E000DF90CF90BF90AF90089565EF71E0CE019C
:1007F00007960E94DD01882319F086E195E0DECF9F
:100800006AEF71E0CE0101960E947F02BE016F5F28
:100810007F4FCE0107960E94F201182FCE0101965C
:100820000E94E70246E050E0111116C061E072E05C
:10083000CE0101960E947F02BE016F5F7F4FCE0105
:1008400007960E94F201182FCE0101960E94E7023E
:100850001123A9F047E050E0BE01695F7F4FCE0150
:1008600001960E949002BE016F5F7F4F8CE195E080
:100870000E946802CE0101960E94E702A1CF69E0C2
:1008800072E0CE0101960E947F02BE016F5F7F4F32
:10089000CE0107960E94F201182FCE0101960E9408
:1008A000E702112379F048E050E0BE01695F7F4F15
:1008B000CE0101960E949002BE016F5F7F4F86E1DC
:1008C00095E0D6CF62E172E0CE0101960E947F02F0
:1008D000BE016F5F7F4FCE0107960E94F201182F75
:1008E000CE0101960E94E702112309F4B2C068E329
:1008F00071E0CE0101960E947F02BE016F5F7F4FC3
:10090000CE0107960E942308182FCE0101960E945F
:10091000E7028BE192E011110DCF62E472E0CE01AB
:1009200001960E947F02BE016F5F7F4FCE01079646
:100930000E942308182FCE0101960E94E70286E448
:1009400092E01111F7CE64E572E0CE0101960E94AB
:100950007F02BE016F5F7F4FCE0107960E94230882
:10096000182FCE0101960E94E70288E592E011114E
:10097000E1CE66E672E0CE0101960E947F02BE01E2
:100980006F5F7F4FCE0107960E942308182FCE017C
:1009900001960E94E7028AE692E01111CBCE65E74C
:1009A00072E0CE0101960E947F02BE016F5F7F4F11
:1009B000CE0107960E942308182FCE0101960E94AF
:1009C000E70288E792E01111B5CE6FE772E0CE0141
:1009D00001960E947F02BE016F5F7F4FCE01079696
:1009E0000E942308182FCE0101960E94E70283E897
:1009F00092E011119FCE61E972E0CE0101960E9452
:100A00007F02BE016F5F7F4FCE0107960E942308D1
:100A1000182FCE0101960E94E70285E992E011119C
:100A200089CE65EA72E0CE0101960E947F02BE0186
:100A30006F5F7F4FCE0107960E942308182FCE01CB
:100A400001960E94E70289EA92E0112309F4B8CEE8
:100A500071CE65EB72E0CE0101960E947F02BE016D
:100A60006F5F7F4FCE0107960E94F201182FCE01D3
:100A700001960E94E702112309F4B2C068E371E015
:100A8000CE0101960E947F02BE016F5F7F4FCE01B3
:100A900007960E942308182FCE0101960E94E702B4
:100AA0008EEB92E0111146CE62E472E0CE01019627
:100AB0000E947F02BE016F5F7F4FCE0107960E94AA
:100AC0002308182FCE0101960E94E70285EE92E0DE
:100AD000111130CE64E572E0CE0101960E947F02D2
:100AE000BE016F5F7F4FCE0107960E942308182F2B
:100AF000CE0101960E94E70283EF92E011111ACE17
:100B000066E672E0CE0101960E947F02BE016F5F31
:100B10007F4FCE0107960E942308182FCE01019621
:100B20000E94E70281E093E0111104CE65E772E0D4
:100B3000CE0101960E947F02BE016F5F7F4FCE0102
:100B400007960E942308182FCE0101960E94E70203
:100B50008CE093E01111EECD6FE772E0CE010196CB
:100B60000E947F02BE016F5F7F4FCE0107960E94F9
:100B70002308182FCE0101960E94E70283E193E03B
:100B80001111D8CD61E972E0CE0101960E947F0279
:100B9000BE016F5F7F4FCE0107960E942308182F7A
:100BA000CE0101960E94E70281E293E01111C2CDCD
:100BB00065EA72E0CE0101960E947F02BE016F5F7E
:100BC0007F4FCE0107960E942308182FCE01019671
:100BD0000E94E70281E393E0112309F4F1CDAACD4D
:100BE0006DE373E0CE0101960E947F02BE016F5F4C
:100BF0007F4FCE0107960E94F201182FCE01019679
:100C00000E94E702112309F4B2C068E371E0CE014B
:100C100001960E947F02BE016F5F7F4FCE01079653
:100C20000E942308182FCE0101960E94E70286E455
:100C300093E011117FCD62E472E0CE0101960E9433
:100C40007F02BE016F5F7F4FCE0107960E9423088F
:100C5000182FCE0101960E94E7028DE693E0111154
:100C600069CD64E572E0CE0101960E947F02BE016B
:100C70006F5F7F4FCE0107960E942308182FCE0189
:100C800001960E94E7028BE793E0111153CD66E6CF
:100C900072E0CE0101960E947F02BE016F5F7F4F1E
:100CA000CE0107960E942308182FCE0101960E94BC
:100CB000E70289E893E011113DCD65E772E0CE01CE
:100CC00001960E947F02BE016F5F7F4FCE010796A3
:100CD0000E942308182FCE0101960E94E70284E9A2
:100CE00093E0111127CD6FE772E0CE0101960E94CB
:100CF0007F02BE016F5F7F4FCE0107960E942308DF
:100D0000182FCE0101960E94E7028BE993E01111A2
:100D100011CD61E972E0CE0101960E947F02BE0111
:100D20006F5F7F4FCE0107960E942308182FCE01D8
:100D300001960E94E70289EA93E01111FBCC65EA73
:100D400072E0CE0101960E947F02BE016F5F7F4F6D
:100D5000CE0107960E942308182FCE0101960E940B
:100D6000E70289EB93E0112309F42ACDE3CC65EC8B
:100D700073E0CE0101960E947F02BE016F5F7F4F3C
:100D8000CE0107960E94F201182FCE0101960E9413
:100D9000E702112309F4B2C068E371E0CE010196C5
:100DA0000E947F02BE016F5F7F4FCE0107960E94B7
:100DB0002308182FCE0101960E94E7028EEC93E0E3
:100DC0001111B8CC62E472E0CE0101960E947F025C
:100DD000BE016F5F7F4FCE0107960E942308182F38
:100DE000CE0101960E94E70285EF93E01111A2CC9B
:100DF00064E572E0CE0101960E947F02BE016F5F42
:100E00007F4FCE0107960E942308182FCE0101962E
:100E10000E94E70283E094E011118CCC66E672E058
:100E2000CE0101960E947F02BE016F5F7F4FCE010F
:100E300007960E942308182FCE0101960E94E70210
:100E400081E194E0111176CC65E772E0CE01019664
:100E50000E947F02BE016F5F7F4FCE0107960E9406
:100E60002308182FCE0101960E94E7028CE194E03E
:100E7000111160CC6FE772E0CE0101960E947F02F3
:100E8000BE016F5F7F4FCE0107960E942308182F87
:100E9000CE0101960E94E70283E294E011114ACC50
:100EA00061E972E0CE0101960E947F02BE016F5F90
:100EB0007F4FCE0107960E942308182FCE0101967E
:100EC0000E94E70281E394E0111134CC65EA72E0FC
:100ED000CE0101960E947F02BE016F5F7F4FCE015F
:100EE00007960E942308182FCE0101960E94E70260
:100EF00081E494E0112309F463CC1CCC8DE494E0EC
:100F000019CC1F920F920FB60F9211242F933F937B
:100F10008F939F93AF93BF938091750490917604C4
:100F2000A0917704B09178043091740423E0230FEA
:100F30002D3758F50196A11DB11D2093740480939F
:100F4000750490937604A0937704B093780480910D
:100F5000700490917104A0917204B0917304019691
:100F6000A11DB11D8093700490937104A09372042D
:100F7000B0937304BF91AF919F918F913F912F9147
:100F80000F900FBE0F901F90189526E8230F029622
:100F9000A11DB11DD2CF1F920F920FB60F92112437
:100FA0002F933F934F935F936F937F938F939F9371
:100FB000AF93BF93EF93FF9389E794E00E941E01E4
:100FC000FF91EF91BF91AF919F918F917F916F9121
:100FD0005F914F913F912F910F900FBE0F901F90F7
:100FE00018951F920F920FB60F9211242F938F9383
:100FF0009F93EF93FF93E0918904F0918A0480819D
:10100000E0918F04F091900482FD1BC0908180914B
:1010100092048F5F8F7320919304821741F0E091C7
:101020009204F0E0E758FB4F958F80939204FF9174
:10103000EF919F918F912F910F900FBE0F901F9066
:1010400018958081F4CFFC0124813581FB01448116
:10105000558124173507A0F0FC018081918100970C
:1010600079F0FB01608171816115710549F0241BE4
:10107000350B820F931F0E944F0B21E0892B09F043
:1010800020E0822F0895E9E7F4E01382128288EECF
:1010900093E0A0E0B0E084839583A683B7838AE0E1
:1010A00091E09183808385EC90E09587848784EC40
:1010B00090E09787868780EC90E0918B808B81EC25
:1010C00090E0938B828B82EC90E0958B848B86EC06
:1010D00090E0978B868B118E128E138E148E6DE599
:1010E00074E08CE195E00E947F0264E674E086E1A2
:1010F00095E00C947F02789484B5826084BD84B5B9
:10110000816084BD85B5826085BD85B5816085BD02
:1011100080916E00816080936E00109281008091BA
:101120008100826080938100809181008160809342
:101130008100809180008160809380008091B10067
:1011400084608093B1008091B00081608093B00092
:1011500080917A00846080937A0080917A00826026
:1011600080937A0080917A00816080937A008091E8
:101170007A00806880937A001092C100E09189041F
:10118000F0918A0482E08083E0918904F0918A04DE
:101190001082E0918504F09186041082E09187042A
:1011A000F091880480E1808310929104E0918D0495
:1011B000F0918E0486E08083E0918B04F0918C04A2
:1011C000808180618083E0918B04F0918C04808128
:1011D00088608083E0918B04F0918C04808180682A
:1011E0008083E0918B04F0918C0480818F7D8083DB
:1011F000C0E0D0E089E794E00E94FE00892B11F066
:101200000E94EF022097B1F30E940A01882391F314
:101210000E940000EFCF86E195E00E94E7028CE19A
:1012200095E00C94E70291110C941C09803219F09E
:1012300089508550C8F708959927882708952F92D7
:101240003F924F925F926F927F928F929F92AF9256
:10125000BF92CF92DF92EF92FF920F931F93CF93A3
:10126000DF93CDB7DEB7CA1BDB0B0FB6F894DEBF3A
:101270000FBECDBF09942A88398848885F846E8460
:101280007D848C849B84AA84B984C884DF80EE80AA
:10129000FD800C811B81AA81B981CE0FD11D0FB6B3
:1012A000F894DEBF0FBECDBFED010895EE0FFF1F16
:1012B0000590F491E02D09940F931F93CF93DF9342
:1012C0008230910510F482E090E0E0912405F091E5
:1012D000250530E020E0B0E0A0E0309799F421153A
:1012E000310509F44AC0281B390B24303105D8F5E3
:1012F0008A819B816115710589F1FB01938382834A
:10130000FE0111C0408151810281138148175907A4
:10131000E0F04817590799F4109761F012960C9372
:10132000129713961C933296CF01DF91CF911F91A4
:101330000F9108950093240510932505F4CF2115EE
:10134000310551F04217530738F0A901DB019A012A
:10135000BD01DF01F801C1CFEF01F9CF9093250561
:1013600080932405CDCFFE01E20FF31F819391936B
:101370002250310939832883D7CF2091220530911B
:101380002305232B41F42091020130910301309376
:1013900023052093220520910001309101012115A0
:1013A000310541F42DB73EB740910401509105013C
:1013B000241B350BE0912205F0912305E217F3077A
:1013C000A0F42E1B3F0B2817390778F0AC014E5FB5
:1013D0005F4F2417350748F04E0F5F1F50932305CA
:1013E00040932205819391939FCFF0E0E0E09CCF62
:1013F000CF93DF930097E9F0FC01329713821282BA
:10140000A0912405B0912505ED0130E020E0109772
:10141000A1F420813181820F931F20912205309108
:1014200023052817390709F061C0F0932305E093DD
:101430002205DF91CF910895EA01CE17DF07E8F585
:101440004A815B819E0141155105B1F7E901FB839A
:10145000EA8349915991C40FD51FEC17FD0761F438
:10146000808191810296840F951FE9019983888379
:10147000828193819B838A83F0E0E0E012968D91D4
:101480009C9113970097B9F52D913C911197CD013F
:101490000296820F931F2091220530912305281771
:1014A000390739F6309751F5109225051092240529
:1014B000B0932305A0932205BCCFD383C283408180
:1014C0005181840F951FC817D90761F44E5F5F4F94
:1014D00088819981480F591F518340838A819B815C
:1014E000938382832115310509F0B0CFF093250550
:1014F000E09324059ECFFD01DC01C0CF1382128250
:10150000D7CFB0E0A0E0E7E8FAE00C9421098C0125
:10151000009751F4CB010E945C098C01C801CDB742
:10152000DEB7E0E10C943D09FC01E60FF71F9C01DA
:1015300022503109E217F30708F49DC0D901CD917B
:10154000DC911197C617D70798F0C530D10530F355
:10155000CE0104978617970708F3C61BD70B22976F
:10156000C193D1936D937C93CF010E94F809D6CF9C
:101570005B01AC1ABD0A4C018C0E9D1EA091240586
:10158000B0912505512C412CF12CE12C109731F50F
:1015900080912205909123058815990509F05CC07A
:1015A0004616570608F058C080910001909101013D
:1015B000009741F48DB79EB7409104015091050109
:1015C000841B950BE817F90708F055C0F093230525
:1015D000E0932205F90171836083A0CF8D919C91E6
:1015E000119712966C90129713967C901397A815EA
:1015F000B90559F56C0142E0C40ED11CCA14DB04D4
:1016000020F1AC014A195B09DA011296159780F0B6
:101610006282738251834083D9016D937C93E1147C
:10162000F10471F0D7011396FC93EE93129776CFE5
:1016300022968C0F9D1FF90191838083F301EFCFD8
:10164000F0932505E093240569CF4816590608F460
:101650002C017D01D3019ACFCB010E945C097C0152
:10166000009749F0AE01B8010E94460BC8010E94E4
:10167000F809870153CF10E000E050CF9111089591
:1016800081548A5108F4805E855A0895FB01DC017B
:1016900002C001900D9241505040D8F70895FB01CF
:1016A000DC018D91019080190110D9F3990B0895F7
:1016B000FB01DC0101900D920020E1F70895FB0190
:1016C000DC014150504030F08D910190801919F4A7
:1016D0000020B9F7881B990B089510E0C5E3D0E00E
:1016E00004C0FE010E9456092196C633D107C9F7EE
:0416F000F894FFCF9C
:1016F40000002605800000000000400160008D000D
:101704008D01FE009C00F0000D0A004D454E534F24
:10171400522C4D4F44454C20393235302C002C3955
:10172400392E322E3000232A69643F003520494483
:101734002020204D656E736F722C202020202036CF
:101744003131302C2020203539303435352C205699
:10175400312E3130007665723F0056657273696FC1
:101764006E3A20322E3031006761696E733F006F2C
:1017740066667365743A20302E30303130302C2058
:10178400342E30303030302C2031302E3030303068
:10179400302C202D302E30303035302C202D322E70
:1017A40030303030302C202D31302E30303030304D
:1017B400206D756C743A2032352E30303030007321
:1017C400657477696E646F773F00302E3130320074
:1017D40078616C6C3F00302C20302C20302C203071
:1017E40000736E3F00646F6D3F006D796E756D3DE3
:1017F40000696E7374736E2000696E7374646F6D28
:101804002000706173733D2361200041204944200E
:1018140020204D454E534F522C202020202036317D
:1018240030302C203832343930332C2056352E3099
:10183400300073633F004120534320312E30303059
:10184400303030007A633F0041205A4320302E303C
:1018540030303030300066733F0041204653203032
:101864002E30313000753F00412055202031007268
:101874002D3F004120522D20302E3030303030307A
:1018840000722B3F004120522B203330302E303059
:10189400303030300064633F004120444320303313
:1018A4003331323200706173733D23622000422071
:1018B40049442020204D454E534F522C20202020B7
:1018C40020363130302C203832343930312C205607
:1018D400352E3030004220534320312E303030300A
:1018E40030300042205A4320302E303030303030F7
:1018F400004220465320302E303130004220552003
:101904002031004220522D20302E30303030303003
:10191400004220522B203330302E303030303030E3
:10192400004220444320303333313232007061733B
:10193400733D23632000432049442020204D454E1D
:10194400534F522C2020202020363130302C203888
:1019540032343930342C2056352E30300043205365
:101964004320312E3030303030300043205A432071
:10197400302E303030303030004320465320302E6B
:1019840030313000432055202031004320522D2097
:10199400302E303030303030004320522B20333062
:1019A400302E303030303030004320444320303348
:1019B4003331323200706173733D2364200044205C
:1019C40049442020204D454E534F522C20202020A6
:1019D40020363130302C203832343930322C2056F5
:1019E400352E3030004420534320312E30303030F7
:1019F40030300044205A4320302E303030303030E4
:101A0400004420465320302E3031300044205520ED
:101A14002031004420522D20302E303030303030F0
:101A2400004420522B203330302E303030303030D0
:101A340000442044432030333331323200556E6B3E
:101A44006E6F776E20636F6D6D616E64003939302F
:101A54003633360030312F30312F323032340000FB
:00000001FF
