:100000000C94F3010C9424020C9424020C9424020A
:100010000C9424020C9424020C9424020C942402C8
:100020000C9424020C9424020C9424020C942402B8
:100030000C9424020C9424020C9424020C942402A8
:100040000C9424020C9424020C9424020C94240298
:100050000C9424020C9424020C9424020C94CB17CC
:100060000C9424020C949F180C9475180C94240280
:100070000C9424020C9424020C9424020C94240268
:100080000C9424020C9424020C9424020C94240258
:100090000C943F180C9415180C9424020C94D51849
:1000A0000C9424020C9424020C9424020C94240238
:1000B0000C9424020C9424020C9424020C94240228
:1000C0000C9424020C9424020C9424020C94240218
:1000D0000C9424020C9424020C9424020C94240208
:1000E0000C9424020C9489020C9471020C949D10BF
:1000F0000C9498100C948A0D0C94AC100C94AB03D7
:100100000C940F050C9453100C944A020C94DF0DC0
:100110000C94150F0C94EF060C9485020C9490111E
:100120000C9486110C94B6100C940E100C942210A2
:100130000C944E020C94EC0F0C946D020C949C03E6
:100140000C9409100C94B70E0C94EE060C945810F5
:100150000C9467100C9459020C9480100C94E20FCC
:100160000C94D30F0C941D100C9477110C94030D68
:100170000C94E40A0C94070E0C9499120C94E80C5D
:100180000C94CD0C0C942C100C94DD0F0C94540D8D
:100190000C9427100C9418100C9413100C94BD0B95
:1001A0000C947C110C94BB100C945F020C94C40F43
:1001B0000C94970C0C9444020C945C040C94390D30
:1001C0000C9495110C947B020C94CE0A0C9476102E
:1001D0000C94BF0F0C949A110C94A50D0C94CA109A
:1001E0000C946C100C941E0D0C94CD030C94A71061
:1001F0000C9404100C940F040C94D80F0C944E1013
:100200000C948B110C948F0E0C9481110C94BA0FDA
:100210000C9466050C9477020C9469020C94C0103F
:100220000C9439050C9463020C94A4110C94C51021
:100230000C94CE0F0C941F050C9410050C946F03B6
:100240000C947B100C947F020C9468110C94BF03E7
:100250000C946E030C94A20F0C946D110C94A210CC
:100260000C94101A0C945D100C947F0C0C94E50BFC
:100270000C946D030C94B20C0C94C90F0C94721175
:100280000C9471100C948D0B0C94B1100C94340FD1
:100290000C946F0D0C9452020C9432050C94621065
:1002A0000C944C110C94E70F0C94C9110C9484021B
:1002B0000C9436100C9431100C94C6060C94560213
:1002C0000C949F1100002100240027002A002D001B
:1002D0003000330001010000040107010A010000A1
:1002E0002200250028002B002E00310034000201DE
:1002F0000000050108010B0100002000230026007A
:1003000029002C002F00320000010000030106012B
:10031000090105050505070508080808020202028B
:100320000A0A080804040404010101010101010191
:100330000303030303030303040707070C0C0C0C5C
:100340000C0C0C0C02020202060606060606060645
:100350000B0B0B0B0B0B0B0B0102102020080810D2
:100360002040102040800201020108040201010225
:1003700004081020408080402010080402018004FE
:100380000201804020100804020108040201010259
:100390000408102040800102040810204080000062
:1003A0000A0B02090C0D0E080703040100000000EF
:1003B000000000000000000000000000000000003D
:1003C00000000000000000000000121110000000FA
:1003D000000000000000000000000000000000001D
:1003E00000000000101A11241FBECFEFD1E2DEBFC3
:1003F000CDBF00E00CBF1AE0A0E0B2E0EAEEFDE302
:1004000000E00BBF02C007900D92AE3EB107D9F7D6
:100410002DE0AEEEBAE001C01D92AE31B207E1F7B9
:1004200011E0C3EFD1E000E006C021970109802F61
:10043000FE010E94D81BC23FD10780E00807A9F740
:100440000E947E1A0C94F31E0C940000815082319D
:1004500008F05AC0E82FF0E08827EE5CFD4F8F4F80
:100460000C94D81B5202560244024A024E028402E5
:1004700059025F02630269026D02710277027B0218
:1004800084027F0285028902809180008F778093A9
:1004900080000895809180008F7DF9CF8091800049
:1004A000877FF5CF84B58F7784BD089584B58F7D20
:1004B000FBCF8091B0008F778093B000089580913A
:1004C000B0008F7DF9CF809190008F77809390005E
:1004D0000895809190008F7DF9CF80919000877F63
:1004E000F5CF8091A0008F778093A0000895809130
:1004F000A0008F7DF9CF8091A000877FF5CF8091FC
:1005000020018F77809320010895809120018F7DB5
:10051000F9CF80912001877FF5CFCF93DF93282FEC
:1005200030E0F901E256FC4F8491F901E85AFC4FA2
:10053000D491F901EE5EFC4FC491CC23A1F081115E
:100540000E942602EC2FF0E0EE0FFF1FE850FD4F57
:10055000A591B491EC91ED2381E090E009F480E065
:10056000DF91CF91089580E090E0FACF1F93CF9371
:10057000DF93282F30E0F901E256FC4F8491F90116
:10058000E85AFC4FD491F901EE5EFC4FC491CC23A4
:10059000A9F0162F81110E942602EC2FF0E0EE0F39
:1005A000FF1FE252FD4FA591B4918FB7F894EC91E3
:1005B000111108C0D095DE23DC938FBFDF91CF915E
:1005C0001F910895DE2BF8CFCF93DF9390E0FC01CD
:1005D000E85AFC4F24918E5E9C4FFC018491882345
:1005E000D1F090E0880F991FFC01EC53FD4FA591CD
:1005F000B491FC01E252FD4FC591D491623071F487
:100600009FB7F8943C91822F809583238C93E88147
:100610002E2B28839FBFDF91CF9108958FB7F89439
:10062000EC912E2B2C938FBFF6CF3FB7F89480918F
:10063000C60B9091C70BA091C80BB091C90B26B502
:10064000A89B05C02F3F19F00196A11DB11D3FBF0A
:10065000BA2FA92F982F8827BC01CD01620F711DD9
:10066000811D911D42E0660F771F881F991F4A95D3
:10067000D1F708958F929F92AF92BF92CF92DF925F
:10068000EF92FF926B017C010E9415034B015C010C
:10069000C114D104E104F104B9F00E9415036819F2
:1006A00079098A099B09683E73408105910580F3A9
:1006B00021E0C21AD108E108F10888EE880E83E033
:1006C000981EA11CB11CE4CFFF90EF90DF90CF905B
:1006D000BF90AF909F908F90089508950895AF9226
:1006E000BF92CF92DF92EF92FF920F931F93CF931F
:1006F000DF936C017B018B01040F151FEB015E0181
:10070000AE18BF08C017D10759F06991D601ED9115
:10071000FC910190F081E02DC6011995892B79F7A4
:10072000C501DF91CF911F910F91FF90EF90DF9066
:10073000CF90BF90AF900895FC01538D448D252F2D
:1007400030E0842F90E0821B930B541710F0CF966B
:10075000089501970895FC01918D828D981761F09D
:10076000A28DAE0FBF2FB11D5D968C91928D9F5FB4
:100770009F73928F90E008958FEF9FEF0895FC0193
:10078000918D828D981731F0828DE80FF11D858D46
:1007900090E008958FEF9FEF0895FC01918D228DD9
:1007A000892F90E0805C9F4F821B91098F7399275E
:1007B00008958CEC9BE00E94CD0321E0892B09F485
:1007C00020E0822F089589E69CE00E94CD0321E07D
:1007D000892B09F420E0822F0895FC01A48DA80F35
:1007E000B92FB11DA35ABF4F2C91848D90E0019673
:1007F0008F739927848FA689B7892C93A089B18993
:100800008C91837080648C93938D848D981306C033
:100810000288F389E02D80818F7D80830895EF9297
:10082000FF920F931F93CF93DF93EC0181E0888FAA
:100830009B8D8C8D98131AC0E889F989808185FF7A
:1008400015C09FB7F894EE89FF896083E889F9891C
:1008500080818370806480839FBF81E090E0DF911E
:10086000CF911F910F91FF90EF900895F62E0B8D71
:1008700010E00F5F1F4F0F731127E02E8C8D8E112C
:100880000CC00FB607FCFACFE889F989808185FF93
:10089000F5CFCE010E94ED03F1CFEB8DEC0FFD2FD4
:1008A000F11DE35AFF4FF0829FB7F8940B8FEA894E
:1008B000FB8980818062CFCFCF93DF93EC01888D5D
:1008C0008823B9F0AA89BB89E889F9898C9185FDCB
:1008D00003C0808186FD0DC00FB607FCF7CF8C9159
:1008E00085FFF2CF808185FFEDCFCE010E94ED0321
:1008F000E9CFDF91CF91089580E090E0892B29F036
:100900000E94E30381110E94000080E090E0892BA7
:1009100029F00E94D90381110E94000080E090E03C
:10092000892B49F080E090E0892B29F00E9400009B
:1009300081110E94000080E090E0892B49F080E066
:1009400090E0892B29F00E94000081110C94000096
:10095000089520916E0B260F3327331F2132310566
:10096000ECF42091920BFC0190E080E0243069F0DF
:1009700082E00895A0916E0B2191AC01425B544F2F
:10098000A40FB52FB11D2C930196861798F3809173
:100990006E0B680F60936E0B80E0089581E0089500
:1009A0001092920B81E08093940B1092930B61E074
:1009B00084E10E94B60261E085E10E94B602E9EBA3
:1009C000F0E080818E7F808380818D7F808388E4CA
:1009D0008093B80085E48093BC000895CF93DF93A3
:1009E00091E090934D0B8823B9F0C091B800D0915D
:1009F000BA008091BC008A7B8093BC0060E084E1F7
:100A00000E94B60260E085E10E94B6020E94D00416
:100A1000D093BA00C093B800DF91CF9108950895A4
:100A2000E091BF0B8091BE0BE81730F4F0E0E85D79
:100A3000F44F808190E008958FEF9FEF089590919B
:100A4000BF0B8091BE0B2FEF3FEF981748F4E92FB3
:100A5000F0E0E85DF44F208130E09F5F9093BF0BA2
:100A6000C90108958091BE0B9091BF0B891B990B12
:100A70000895CF92DF92EF92FF920F931F93CF933F
:100A8000DF937C01CB018A012091270B222389F07F
:100A9000EB016B01C40ED51ECC15DD0569F0699123
:100AA000D701ED91FC910190F081E02DC7011995DE
:100AB000F3CF642F0E94A904C801DF91CF911F9149
:100AC0000F91FF90EF90DF90CF900895CF93DF9339
:100AD0001F92CDB7DEB769832091270B2223F9F04F
:100AE0002091BC0B203258F021E030E0FC01338330
:100AF000228390E080E00F90DF91CF910895809164
:100B0000BD0BE82FF0E0E95FF44F998190838F5F90
:100B10008093BD0B8093BC0B81E090E0ECCF61E053
:100B2000CE0101960E94A904F7CFCF92DF92EF92F7
:100B3000FF920F931F93CF93DF93D62F672FFC0164
:100B4000C48181E08093270BC093060B1092BD0BEC
:100B50001092BC0B86E09DE00E9466056D2F86E03A
:100B60009DE00E946605D091BC0BD13208F092C086
:100B70000E9415036B017C018091920B811165C06D
:100B800082E08093920B81E08093940B8FEF8093AF
:100B9000910B1092B60BD093B50BA7E0BBE0E5E943
:100BA000FBE080E0D81385C01092B70B8091B70BA3
:100BB000CC0FC82BC093B70B8091930B813009F0F9
:100BC0007CC01092930B0E9415036B017C018091F5
:100BD000B70B8093BB008091490B90914A0BA09179
:100BE0004B0BB0914C0B892B8A2B8B2B99F00E94CD
:100BF00015030091490B10914A0B20914B0B30913A
:100C00004C0B6C197D098E099F09061717072807D9
:100C10003907E0F18091BC0083FDD9CF85EC80934A
:100C2000BC000E9415036B017C018091920B823005
:100C300009F445C08091910B8F3F61F18091910B38
:100C4000803241F18091910B25C08091490B9091A8
:100C50004A0BA0914B0BB0914C0B892B8A2B8B2B01
:100C600009F48ACF0E9415030091490B10914A0B99
:100C700020914B0B30914C0B6C197D098E099F090B
:100C8000061717072807390708F076CF8091480B19
:100C90000E94EE041092BD0B1092BC0B1092270B19
:100CA000DF91CF911F910F91FF90EF90DF90CF9048
:100CB00008959D9191938F5F75CF85EEB0CF809110
:100CC000490B90914A0BA0914B0BB0914C0B892B87
:100CD0008A2B8B2B09F4A9CF0E9415030091490B95
:100CE00010914A0B20914B0B30914C0B6C197D09E4
:100CF0008E099F09061717072807390708F095CFAF
:100D0000C5CFCF93DF9300D000D01F921F92CDB7F5
:100D1000DEB798E0E6E2F2E0DE01119601900D9276
:100D20009A95E1F790911A0D961710F46FEF690FED
:100D300070E0660F771F21E030E02C0F3D1F620F3F
:100D4000731FFB016081860F8068682F70E082E16D
:100D50009DE028960FB6F894DEBF0FBECDBFDF91A1
:100D6000CF910C94950561E070E082E19DE00E94D6
:100D700095058BE39FE10197F1F780911B0D882387
:100D800021F060E080E00C948106089570E07064CA
:100D90000E94950581E090E008950F931F93CF93F3
:100DA000DF938B0198E0899FB00111246064062EC7
:100DB000000C770B82E19DE00E949505E801085F39
:100DC0001F4F699182E19DE00E94C6060C171D0726
:100DD000C1F7DF91CF911F910F910895089590E091
:100DE00080E008959B01AC01E091790CF0917A0CC0
:100DF00082E08083211581EE380741055105E9F134
:100E000060E079E08DE390E00E94B61B215031094B
:100E1000410951095695479537952795E091750CED
:100E2000F091760C1082E091770CF091780C208391
:100E30001092810CE0917D0CF0917E0C86E0808315
:100E4000E0917B0CF0917C0C808180618083E0914B
:100E50007B0CF0917C0C808188608083E0917B0C1E
:100E6000F0917C0C808180688083E0917B0CF09114
:100E70007C0C80818F7D80830895E091790CF091C6
:100E80007A0C108220E1CACF6115710579F0FB015F
:100E900001900020E9F73197AF01461B570BDC01A9
:100EA000ED91FC910280F381E02D199490E080E0B7
:100EB00008958F929F92AF92BF92CF92DF92EF925E
:100EC000FF920F931F93CF93DF938C016B0189E601
:100ED0009CE00E94CD03181619062CF489E69CE0CC
:100EE0000E94AB03F4CF8FB7F8948090C20B909020
:100EF000C30BA090C40BB090C50B8FBF7801D0E09E
:100F0000C0E021E0C21AD108CC15DD0510F52FB7DD
:100F1000F8948091C20B9091C30BA091C40BB09137
:100F2000C50B2FBF88199909AA09BB098C3D9540AB
:100F3000A105B10570F489E69CE00E94AB038F3FE8
:100F400019F32196F70181937F018A3011F08D30DA
:100F5000D9F6C00FD11F1882B80182E19DE0DF9160
:100F6000CF911F910F91FF90EF90DF90CF90BF90A6
:100F7000AF909F908F900C944407CF93DF93EB0139
:100F8000BC0189E69CE00E944407BE0190E080E03D
:100F9000DF91CF910C943A0360E080E00E948106DB
:100FA0006CEE72E082E19DE00E94440761E080E027
:100FB0000E9481068091010B9091020B6CEC72E013
:100FC000892B11F468EB72E082E19DE00E944407F6
:100FD00062E080E00E9481068091010B9091020BFB
:100FE0006AEE72E0019711F467ED72E082E19DE034
:100FF0000E94440763E080E00E9481068091010B1B
:101000009091020B6AEE72E0029711F467ED72E0C4
:1010100082E19DE00C94440760E080E00E9481063C
:1010200061E473E082E19DE00E94440761E080E0BA
:101030000E9481068091010B9091020B6AE073E09F
:10104000892B11F461E073E082E19DE00E94440786
:1010500062E080E00E9481068091010B9091020B7A
:101060006CE173E0019711F463E173E082E19DE0CC
:101070000E94440763E080E00E9481068091010B9A
:101080009091020B63E373E0029711F465E273E061
:1010900082E19DE00C9444078F929F92AF92BF92A1
:1010A0000F931F93CF93DF93CDB7DEB7A1970FB602
:1010B000F894DEBF0FBECDBF19A2423008F44AE05B
:1010C0008E010F5D1F4F842E912CB12CA12CA501F8
:1010D00094010E94B61BE62FB901CA01EA3044F51B
:1010E000E05DD801EE938D01232B242B252B79F77E
:1010F00090E080E0109769F0FD0101900020E9F791
:101100003197AF014A1B5B0BBD0182E19DE00E945C
:101110006F03A1960FB6F894DEBF0FBECDBFDF916F
:10112000CF911F910F91BF90AF909F908F90089596
:10113000E95CD7CFAF92BF92CF92DF92EF92FF924E
:101140000F931F93CF93DF936C017B01FC01019000
:101150000020E9F731978F01081B190BEB0109906B
:101160000020E9F72197C61BD70BC8018C0F9D1FE4
:1011700045970CF447C05601C5018C199D0980178D
:10118000910744F4F50161915F0182E19DE00E94C5
:10119000C606F2CFD12CC12C84E190E09C01201B2B
:1011A000310B89018091CA0B9091CB0BC016D106EF
:1011B0008CF48C0D9D1DBE010E94A21BF701E80F4F
:1011C000F91F608182E19DE00E94C6063FEFC31ACD
:1011D000D30AE8CF0196BE010E94A21B9093CB0BCD
:1011E0008093CA0B66E970E080E090E0DF91CF91D8
:1011F0001F910F91FF90EF90DF90CF90BF90AF9035
:101200000C943A03B60182E19DE00E944407B701C5
:1012100082E19DE0DF91CF911F910F91FF90EF90C0
:10122000DF90CF90BF90AF900C944407CF92DF92A5
:10123000EF92FF926C01990FEE08FF08F7FE16C0BF
:101240006DE270E482E19DE00E94950566277727B4
:10125000CB016C197D098E099F094AE00E944C0858
:101260000196FF90EF90DF90CF9008954AE0C7017C
:10127000B601FF90EF90DF90CF900C944C08CF9385
:10128000DF93EC0160E088E00E948106CE010E94BD
:101290001609D093F40AC093F30A83E190E0909387
:1012A000040B8093030BDF91CF910895CF93DF93CD
:1012B000EC0160E089E00E948106CE010E941609DF
:1012C0008091FF0A9091000B8232944269F58091DF
:1012D000F10A9091F20A81309105A9F49093FE0AE7
:1012E0008093FD0AD0930302C093020287E190E04D
:1012F0009093040B8093030B1092000B1092FF0A43
:10130000DF91CF910895D093FC0AC093FB0A85E149
:1013100090E09093040B8093030B81E090E0909316
:10132000F20A8093F10AECCFD093FC0AC093FB0A37
:1013300084E190E09093040B8093030BE1CFCF9373
:10134000DF93EC0160E088E00E948106CE010E94FC
:101350001609D093FA0AC093F90A83E190E09093BA
:10136000040B8093030BDF91CF910895CF93DF930C
:10137000EC0160E087E00E948106CE010E94160920
:10138000D093F80AC093F70A82E190E09093040B9F
:101390008093030BDF91CF910895CF93DF93EC01FE
:1013A00060E086E00E948106CE010E941609D0937B
:1013B000F60AC093F50A81E190E09093040B8093C4
:1013C000030BDF91CF910895CF93DF93CDB7DEB7B5
:1013D00065970FB6F894DEBF0FBECDBF44E150E075
:1013E000BC01CE0101960E94F41B1D8ABE016F5FF5
:1013F0007F4F82E19DE00E94440765960FB6F89406
:10140000DEBF0FBECDBFDF91CF91089585ED8093F4
:10141000BC008091490B90914A0BA0914B0BB0916D
:101420004C0B0796A11DB11D23E0B695A795979586
:1014300087952A95D1F72091BC0024FD03C0109216
:10144000920B08954091490B50914A0B60914B0BC0
:1014500070914C0B452B462B472B69F30097A10548
:10146000B10541F02AE22A95F1F700C00197A109E0
:10147000B109E1CF8091480B0C94EE040F931F93B8
:10148000CF93DF93CDB7DEB7C754D1090FB6F89429
:10149000DEBF0FBECDBF8091FF0A9091000B8E0181
:1014A0000F5F1F4F70E060E08232944251F58BE491
:1014B00093E00E94BD0760E470E0C8010E945907F4
:1014C00061E573E0C8010E94031C009771F0BC0144
:1014D0006B5F7F4F005C1F4F47E050E0C8010E94E8
:1014E000F41B1093050200930402C95BDF4F0FB693
:1014F000F894DEBF0FBECDBFDF91CF911F910F914A
:10150000089587E593E00E94BD0767E070E0C80199
:101510000E945907E6CFCF92DF92EF92FF920F938E
:101520001F93CF93DF93CDB7DEB7C45AD1090FB65F
:10153000F894DEBF0FBECDBF86E00E948D02892BDE
:1015400011F00C94B6128091050B811140C0E0910E
:10155000030BF091040BE931F10508F035C0882741
:10156000EB54F54F8F4F0C94D81BCE0A8D0BE50B27
:10157000BD0BE40AE40A7F0CA50DDF0D070E8F0EEC
:10158000B70EE40A150F340FE40AA20FEC0F361061
:101590008010CA104C11A411C91199128091010B2D
:1015A0009091020B8130910509F4A5C0823091051C
:1015B00009F4AAC0892B41F40E94B30681E090E0AF
:1015C0009093040B8093030B81E08093050B809133
:1015D000030B9091040B009711F00C94BA120E9427
:1015E0000C088DE00E948D02892B51F58091F00A44
:1015F00081110C9454178091030B9091040B892B4B
:10160000F9F00E94B3061092040B1092030B81E0D4
:101610008093F00A68EC70E080E090E00E943A036A
:1016200060E086E10E94B6021092F20A1092F10A7E
:101630001092000B1092FF0A1092FE0A1092FD0AFF
:1016400089E00E948D02892B11F00C948F178091F4
:10165000EF0A811119C08091030B9091040B863021
:10166000910511F00C9458178091010B9091020B89
:1016700009966AE070E00E94A21B9093020B80938F
:10168000010B81E08093EF0A88E00E948D02892B94
:1016900011F00C94C7178091EE0A811119C0809146
:1016A000030B9091040B8630910511F00C94931765
:1016B0008091010B9091020B01966AE070E00E940C
:1016C000A21B9093020B8093010B81E08093EE0AA2
:1016D00081E08093C00BCC55DF4F0FB6F894DEBF8E
:1016E0000FBECDBFDF91CF911F910F91FF90EF9073
:1016F000DF90CF9008950E94B30687E090E090932A
:10170000040B8093030B60CF0E94B3068EE090E041
:101710009093040B8093030B57CF8091010B909112
:10172000020B8130910579F082309105C9F0892B47
:1017300009F04ACF0E94B30683E090E09093040B37
:101740008093030B41CF0E94B30682E090E0909318
:10175000040B8093030B61E086E10E94B60234CF54
:101760000E94B30686E090E09093040B8093030BF5
:1017700061E086E10E94B60227CF8091010B909133
:10178000020B8130910579F082309105A9F0892B07
:1017900009F01ACF0E94B30660E875E280E090E09D
:1017A0000E94F20611CF0E94B30660E07BE480E065
:1017B00090E00E94F20608CF0E94B30660E071EE4E
:1017C00080E090E00E94F206FFCE8091010B9091A4
:1017D000020B009741F097FDF7CE03970CF0F4CE83
:1017E0000E94B306F1CE0E94B30670E060E081ED86
:1017F00095E00E94BD0762E270E08E010F5F1F4F0F
:10180000C8010E9459078981882309F44DC042E12B
:1018100050E0B801CE018F579F4F0E94F41BF80192
:1018200001900020E9F73197E01BF10B7397B0F1BD
:1018300042E150E0BE016D5E7F4FCE018D569F4F5D
:101840000E94F41B62E081E00E948106BE016F5796
:101850007F4F82E19DE00E94440763E081E00E94A7
:101860008106BE016D567F4F82E19DE00E944407D4
:10187000CF57DF4F1882C158D040CD56DF4F188266
:10188000C359D040198261E083E10E94810669ED6D
:1018900075E082E19DE00E94440796CECD56DF4F71
:1018A0001882C359D040CECF62E080E00E9481060A
:1018B0006BED75E082E19DE00E9444076FED75E0FD
:1018C00082E19DE00E94440764EE75E082E19DE0C4
:1018D0000E94440763E081E00E94810662EF75E0A8
:1018E00082E19DE00E94440761E083E10E9481065D
:1018F00066E076E082E19DE00E94440765CEE091DB
:10190000010BF091020BEA30F10508F05DCE88275B
:10191000E357F34F8F4F0C94D81B6F0D8A0D970C24
:10192000B20CCD0CE80C030D1E0D390D540D0E94A8
:10193000B3066AE070E088E096E00E94BD0760EDC3
:1019400077E080E090E00E943A036AE070E080E196
:1019500096E00E94BD0768EB7BE080E090E00E948B
:101960003A0332CE0E94B3066AE070E089E196E065
:101970000E94BD0768EE73E080E090E00E943A03A9
:101980006AE070E080E196E00E94BD0768EB7BE0D2
:1019900080E090E00E943A0317CE0E94B3066AE00E
:1019A00070E081E296E00E94BD0768EE73E080E09F
:1019B00090E00E943A036AE070E080E196E00E94C5
:1019C000BD0768EB7BE080E090E00E943A03FCCD2D
:1019D0000E94B3066AE070E089E296E00E94BD07CB
:1019E00068EE73E080E090E00E943A036AE070E005
:1019F00080E196E00E94BD0768EB7BE080E090E02C
:101A00000E943A03E1CD0E94B3066AE070E081E3F0
:101A100096E00E94BD0768EE73E080E090E00E94CF
:101A20003A036AE070E080E196E00E94BD0768EB4F
:101A30007BE080E090E00E943A03C6CD0E94B306AE
:101A40006AE070E089E396E00E94BD0768EE73E00B
:101A500080E090E00E943A036AE070E080E196E066
:101A60000E94BD0768EB7BE080E090E00E943A03B3
:101A7000ABCD0E94B3066AE070E081E496E00E947C
:101A8000BD0768EE73E080E090E00E943A036AE0F0
:101A900070E080E196E00E94BD0768EB7BE080E0AB
:101AA00090E00E943A0390CD0E94B3066AE070E095
:101AB00089E496E00E94BD0768EE73E080E090E064
:101AC0000E943A036AE070E080E196E00E94BD0760
:101AD00068EB7BE080E090E00E943A0375CD0E94C5
:101AE000B3066AE070E081E596E00E94BD0768EE0B
:101AF00073E080E090E00E943A036AE070E080E1E9
:101B000096E00E94BD0768EB7BE080E090E00E94D9
:101B10003A035ACD0E94B3066AE070E089E596E088
:101B20000E94BD0768EE73E080E090E00E943A03F7
:101B30006AE070E080E196E00E94BD0768EB7BE020
:101B400080E090E00E943A033FCD8091010B90919C
:101B5000020B81309105A9F08230910509F1892BA2
:101B600009F032CD0E94B30688E090E09093040B18
:101B70008093030B60E071EE80E090E00E94F2063B
:101B800023CD0E94B3068BE090E09093040B8093EA
:101B9000030B60E071EE80E090E00E94F20614CD4D
:101BA0000E94B3068DE090E09093040B8093030BAA
:101BB00060E071EE80E090E00E94F20605CD809139
:101BC000010B9091020B8130910579F082309105E3
:101BD000A9F0892B09F0F8CC0E94B30689E090E0C7
:101BE0009093040B8093030BEFCC0E94B3068AE022
:101BF00090E09093040B8093030BE6CC0E94B30615
:101C00008BE090E09093040B8093030BDDCC8091EC
:101C1000010B9091020B009731F097FDD5CC039703
:101C20000CF4DECDD1CC0E94B30670E060E081E61A
:101C300096E00E94BD076AE070E0CE018F579F4F8B
:101C40000E94590770E060E08EE696E00E94BD07B2
:101C500060E870E0CE0101960E94590762E081E0E1
:101C60000E94810667E776E082E19DE00E944407DA
:101C70006EE776E0CE0101960E94031C0097D9F131
:101C8000BC016A5F7F4F48E050E0CE018D569F4F08
:101C90000E94F41BC556DF4F1882CB59D040BE01BD
:101CA0006D567F4F82E19DE00E94440765EE72E031
:101CB00082E19DE00E94440763E081E00E9481068A
:101CC0006DE876E082E19DE00E944407CF57DF4F48
:101CD0008881C158D0408823D9F0BE016F577F4F0B
:101CE00082E19DE00E94440765EE72E082E19DE0A2
:101CF0000E94440769CC64E876E082E19DE00E949E
:101D0000440761E083E10E94810666E076E0D0CF7F
:101D100064E876E082E19DE00E94440755CC809122
:101D2000010B9091020B892B09F04ECC0E94B30657
:101D30006AE070E086E996E00E94BD0768EE73E015
:101D400080E090E00E943A036AE070E080EA96E06A
:101D50000E94BD0768EE73E080E090E00E943A03C5
:101D60006AE070E081EB96E00E94BD072DCC809187
:101D7000010B9091020B8130910509F182309105A0
:101D8000C9F1892B09F020CC0E94B3066AE070E00B
:101D90008DEB96E00E94BD0768EE73E080E090E076
:101DA0000E943A036AE070E088EC96E00E94BD076A
:101DB00068EB7BE080E090E00E943A0305CC0E9453
:101DC000B3066AE070E08DEB96E00E94BD0768EE16
:101DD00073E080E090E00E943A036AE070E08BEDEF
:101DE00096E00E94BD0768EB7BE080E090E00E94F7
:101DF0003A03EACB0E94B3066AE070E08DEE96E00B
:101E00000E94BD0768EE73E080E090E00E943A0314
:101E10006AE070E08BED96E00E94BD0768EB7BE026
:101E200080E090E00E943A03CFCB8091010B90912B
:101E3000020B009731F097FDC7CB03970CF4D0CC81
:101E4000C3CB70E060E088EF96E00E94BD0768EECB
:101E500073E080E090E00E943A0370E060E08EEF73
:101E600096E00E94BD07B0CB8091010B9091020BD0
:101E70008130910549F182309105A9F1892B09F052
:101E8000A3CB0E943E0A80E190E09093040B8093E4
:101E9000030B60E071EE80E090E00E94F2060E9489
:101EA000B30660E080E00E94810667E077E082E1AF
:101EB0009DE00E944407609104027091050282E156
:101EC0009DE00E94440780CB0E94B30688E190E029
:101ED0009093040B8093030B60E071EE80E090E040
:101EE0000E94F20671CB0E943E0A82E294E2909335
:101EF000000B8093FF0A81E090E09093FE0A8093AC
:101F0000FD0A80E190E09093040B8093030B60E066
:101F100071EE80E090E00E94F2060E94B30660E05D
:101F200080E00E94810667E077E082E19DE00E9408
:101F30004407609104027091050282E19DE00E94D5
:101F4000440742CBE091010BF091020BEA30F1051E
:101F500008F03ACB8827E055F04F8F4F0C94D81BF0
:101F6000BA0FBF0FC40FC90FCE0FD30FD80FDD0F9D
:101F7000E20FE70F90E080E00E94CD0925CB81E0E1
:101F800090E00E94CD0920CB82E090E00E94CD0934
:101F90001BCB83E090E00E94CD0916CB84E090E05B
:101FA0000E94CD0911CB85E090E00E94CD090CCBB9
:101FB00086E090E00E94CD0907CB87E090E00E9488
:101FC000CD0902CB88E090E00E94CD09FDCA89E0EE
:101FD00090E00E94CD09F8CAE091010BF091020B4C
:101FE000EA30F10508F0F0CA8827E650F04F8F4F2D
:101FF0000C94D81B041009100E10131018101D108B
:10200000221027102C10311090E080E00E94B609B9
:10201000DBCA81E090E00E94B609D6CA82E090E077
:102020000E94B609D1CA83E090E00E94B609CCCAEA
:1020300084E090E00E94B609C7CA85E090E00E9463
:10204000B609C2CA86E090E00E94B609BDCA87E020
:1020500090E00E94B609B8CA88E090E00E94B609F4
:10206000B3CA89E090E00E94B609AECAE091010BC4
:10207000F091020BEA30F10508F0A6CA8827EC5B64
:10208000FF4E8F4F0C94D81B4E10531058105D10FC
:10209000621067106C10711076107B1090E080E079
:1020A0000E949F0991CA81E090E00E949F098CCA1A
:1020B00082E090E00E949F0987CA83E090E00E943E
:1020C0009F0982CA84E090E00E949F097DCA85E052
:1020D00090E00E949F0978CA86E090E00E949F09E4
:1020E00073CA87E090E00E949F096ECA88E090E082
:1020F0000E949F0969CA89E090E00E949F0964CA12
:10210000E091010BF091020BEA30F10508F05CCA96
:102110008827E257FF4E8F4F0C94D81B98109D10C4
:10212000A210A710AC10B110B610BB10C010C51093
:1021300090E080E00E94560947CA81E090E00E944A
:10214000560942CA82E090E00E9456093DCA83E0E7
:1021500090E00E94560938CA84E090E00E94560937
:1021600033CA85E090E00E9456092ECA86E090E0CE
:102170000E94560929CA87E090E00E94560924CAA5
:1021800088E090E00E9456091FCA89E090E00E9412
:1021900056091ACA8091010B9091020B009701F128
:1021A000019709F011CA0E943E0A0E94B30660E03E
:1021B00080E00E94810667E077E082E19DE00E9476
:1021C0004407609104027091050282E19DE00E9443
:1021D000440780E190E09093040B8093030BF4C9D3
:1021E0000E94B3068091FC0A8F938091FB0A8F9323
:1021F0008091FA0A8F938091F90A8F938091F80A5F
:102200008F938091F70A8F938091F60A8F93809134
:10221000F50A8F938CE097E09F938F938E010F5F69
:102220001F4F1F930F930E941D1CF8010190002067
:10223000E9F73197BF01601B710BC8010E94BD0710
:1022400062E087E00E9481066FE177E082E19DE035
:102250000E94440784E190E09093040B8093030B69
:102260000E943E0A0E94B30660E080E00E94810660
:1022700064E277E082E19DE00E94440760910402FD
:102280007091050282E19DE00E9444070FB6F89428
:10229000DEBF0FBECDBF98C90E94B306E091010B0F
:1022A000F091020BEC30F10508F08EC98827E45A52
:1022B000FE4E8F4F0C94D81B68116D11721177115F
:1022C0007C11811186118B11901195119A119F111A
:1022D00081E090E00E94F91977C982E090E00E94C5
:1022E000F91972C983E090E00E94F9196DC984E080
:1022F00090E00E94F91968C985E090E00E94F91900
:1023000063C986E090E00E94F9195EC987E090E019
:102310000E94F91959C988E090E00E94F91954C93E
:1023200089E090E00E94F9194FC98AE090E00E948C
:10233000F9194AC98BE090E00E94F91945C98CE06F
:1023400090E00E94F91940C98091010B9091020B15
:1023500081309105A1F044F4892B09F035C990E052
:1023600080E00E943F0930C98230910569F00397EF
:1023700009F02AC983E090E00E943F0925C981E065
:1023800090E00E943F0920C982E090E00E943F094E
:102390001BC98091010B9091020B009711F10197DD
:1023A00009F012C90E94B30660E080E00E94810635
:1023B00067E077E082E19DE00E94440760910402BB
:1023C0007091050282E19DE00E94440780E190E067
:1023D0009093040B8093030B1092F20A1092F10A6F
:1023E000F3C81092FE0A1092FD0A8091FC0A8F93A6
:1023F0008091FB0A8F938091FA0A8F938091F90A5A
:102400008F938091F80A8F938091F70A8F93809130
:10241000F60A8F938091F50A8F938CE297E09F9351
:102420008F938E010F5F1F4F1F930F930E941D1CF0
:10243000F80101900020E9F73197BF01601B710B93
:10244000C8010E94BD0768EC70E080E090E00E9447
:102450003A03198287E08F9388EE8F93809103026D
:102460008F93809102028F938091F40A8F938091D1
:10247000F30A8F93809101028F93809100028F93D2
:1024800080E497E09F938F931F930F930E941D1CEE
:10249000F80101900020E9F73197BF01601B710B33
:1024A000C8010E94BD070E943E0A0E94B30660E078
:1024B00080E00E94810664E277E082E19DE00E9474
:1024C0004407609104027091050282E19DE00E9440
:1024D000440765EE72E082E19DE00E94440768ECEB
:1024E00070E080E090E00E943A0361E080E00E94AA
:1024F000810665E577E082E19DE00E94440770E097
:1025000060E080E697E00E94BD076CE070E0CE01DD
:102510008F579F4F0E945907BE016F577F4F82E12F
:102520009DE00E9444070FB6F894DEBF0FBECDBFFA
:102530004BC88091010B9091020B009769F00197B5
:1025400009F042C80E94B3066AE070E085E797E0B0
:102550000E94BD070C94E40A0E94B3066AE070E092
:1025600087E697E00E94BD070C94E40A1092050BE1
:102570000C94E70A8130910509F042C060E080E0E8
:102580000E94810663E877E082E19DE00E944407B3
:1025900061E080E00E9481068091010B9091020B26
:1025A0006DE573E0892B11F06FE673E082E19DE049
:1025B0000E94440762E080E00E9481068091010B46
:1025C0009091020B61E873E0019711F060E973E00C
:1025D00082E19DE00E94440763E080E00E94810662
:1025E0008091010B9091020B6FE973E0029711F05B
:1025F0006FEA73E082E19DE00E9444070C94F10AC7
:1026000082309105F1F560E080E00E94810660E98A
:1026100077E082E19DE00E94440761E080E00E9453
:1026200081068091010B9091020B68EB72E0892B7F
:1026300011F06FEB73E082E19DE00E94440762E0DD
:1026400080E00E9481068091010B9091020B67ED62
:1026500072E0019711F06AEE72E082E19DE00E9463
:10266000440763E080E00E9481068091010B909115
:10267000020B67ED72E0029709F4BCCF6AEE72E0DC
:10268000B9CF83309105F1F560E080E00E948106CA
:1026900065EA77E082E19DE00E94440761E080E026
:1026A0000E9481068091010B9091020B63ED73E013
:1026B000892B11F06CED73E082E19DE00E944407EC
:1026C00062E080E00E9481068091010B9091020BF4
:1026D00065EE73E0019711F06FEE73E082E19DE02B
:1026E0000E94440763E080E00E9481068091010B14
:1026F0009091020B69EF73E0029709F47BCF63E0DE
:1027000074E078CF86309105D9F560E080E00E94D2
:10271000810665EB77E082E19DE00E94440710E0CE
:1027200000E05AE0C52ED12C8091010B9091020B54
:10273000800F911FB6010E94A21B7C0161E0600F17
:1027400080E00E9481066CE87AE00130110511F00A
:1027500069EE72E082E19DE00E944407F701EE0F0E
:10276000FF1FE25DFD4F6081718182E19DE00E946B
:1027700044070F5F1F4F03301105B1F60C94F10AA7
:102780008730910509F044C060E080E00E94810636
:102790006AEC77E082E19DE00E94440761E080E01E
:1027A0000E9481068091010B9091020B6DE074E014
:1027B000892B11F060E274E082E19DE00E94440701
:1027C00062E080E00E9481068091010B9091020BF3
:1027D0000197C9F467ED77E087EA94E00E949A08D0
:1027E00063E080E00E9481068091010B9091020BD2
:1027F00067E378E0029709F451C187E798E00E9407
:10280000E4090C94F10A80E198E00E94E409E8CF21
:1028100088309105F1F560E080E00E94810666EA6B
:1028200078E082E19DE00E94440761E080E00E9440
:1028300081068091010B9091020B63E374E0892B78
:1028400011F068E474E082E19DE00E94440762E0D8
:1028500080E00E9481068091010B9091020B6DE552
:1028600074E0019711F06EE674E082E19DE00E9451
:10287000440763E080E00E9481068091010B909103
:10288000020B6AEB78E0029709F408C18FEE98E03A
:10289000B6CF8930910521F40E94CC070C94F10A3F
:1028A0008A309105E1F560E080E00E94810663E1F5
:1028B00079E082E19DE00E94440761E080E00E94AF
:1028C00081068091010B9091020B6FE774E0892BD8
:1028D00011F064E974E082E19DE00E94440762E047
:1028E00080E00E9481068091010B9091020B67EAC3
:1028F00074E0019711F06AEE72E082E19DE00E94BF
:10290000440763E080E00E9481068091010B909172
:10291000020B6CE87AE0029709F0B0CE6BCE8B30F8
:102920009105F1F560E080E00E94810667E279E0C0
:1029300082E19DE00E94440761E080E00E94810600
:102940008091010B9091020B69EA74E0892B11F0E0
:102950006CEB74E082E19DE00E94440762E080E05D
:102960000E9481068091010B9091020B6FEC74E044
:10297000019711F061EE74E082E19DE00E9444074E
:1029800063E080E00E9481068091010B9091020B30
:1029900063EF74E0029709F42DCE65E075E02ACE6E
:1029A0008C30910509F478CF8D309105D9F560E030
:1029B00080E00E9481066CE379E082E19DE00E9464
:1029C000440710E000E035E0C32ED12C8091010BCC
:1029D0009091020B800F911FB6010E94A21B7C01F7
:1029E00061E0600F80E00E9481066BE87AE00130D0
:1029F000110511F068EE72E082E19DE00E9444074B
:102A0000F701EE0FFF1FEE5BFD4F6081718182E1E8
:102A10009DE00E9444070F5F1F4F03301105B1F680
:102A20000C94F10A8E30910509F046C060E080E018
:102A30000E94810661E579E082E19DE00E94440701
:102A400061E080E00E9481068091010B9091020B71
:102A500067E175E0892B11F063E275E082E19DE0AA
:102A60000E94440762E080E00E9481068091010B91
:102A70009091020B0197C1F463E679E087EA94E054
:102A80000E949A0863E080E00E9481068091010B19
:102A90009091020B029769F46AEB79E087EA94E07F
:102AA0000E949A080C94F10A87E999E00E94E409CF
:102AB000E9CF81EE99E0A3CE8F30910511F40C940B
:102AC000F10A8031910589F510E000E09AE0C92E05
:102AD000D12C8091010B9091020B800F911FB601B8
:102AE0000E94A21B7C0161E0600F80E00E948106D1
:102AF0006AEF79E00130110511F065EE72E082E1D4
:102B00009DE00E944407F701EE0FFF1FE45BFD4FBD
:102B10006081718182E19DE00E9444070F5F1F4F39
:102B200003301105B1F60C94F10A8131910589F554
:102B300010E000E0BAE0CB2ED12C8091010B9091F7
:102B4000020B800F911FB6010E94A21B7C0161E065
:102B5000600F80E00E94810661E07AE0013011059B
:102B600011F064EE72E082E19DE00E944407F701FB
:102B7000EE0FFF1FE45BFD4F6081718182E19DE0FC
:102B80000E9444070F5F1F4F03301105B1F60C94EC
:102B9000F10A8231910589F510E000E07AE0C72E54
:102BA000D12C8091010B9091020B800F911FB601E7
:102BB0000E94A21B7C0161E0600F80E00E94810600
:102BC00069E07AE00130110511F063EE72E082E114
:102BD0009DE00E944407F701EE0FFF1FE45BFD4FED
:102BE0006081718182E19DE00E9444070F5F1F4F69
:102BF00003301105B1F60C94F10A8331910589F582
:102C000010E000E05AE0C52ED12C8091010B90918C
:102C1000020B800F911FB6010E94A21B7C0161E094
:102C2000600F80E00E94810662E17AE001301105C8
:102C300011F062EE72E082E19DE00E944407F7012C
:102C4000EE0FFF1FE45BFD4F6081718182E19DE02B
:102C50000E9444070F5F1F4F03301105B1F60C941B
:102C6000F10A8431910561F561E080E00E948106FE
:102C70006CE17AE082E19DE00E94440762E080E03E
:102C80000E9481068091010B9091020B6FE275E02A
:102C9000892B11F064E475E082E19DE00E94440715
:102CA00063E080E00E9481068091010B9091020B0D
:102CB00069E575E0019709F49DCC6EE675E09ACC64
:102CC00088319105E1F560E080E00E94810660E3D3
:102CD0007AE082E897E00E949A0861E080E00E9432
:102CE00081068091010B9091020B63E875E0892BBE
:102CF00011F066E975E082E19DE00E94440762E020
:102D000080E00E9481068091010B9091020B69EA9C
:102D100075E0019711F06DEB75E082E19DE00E9496
:102D2000440763E080E00E9481068091010B90914E
:102D3000020B67EA74E0029709F0A0CC5BCC853106
:102D4000910509F041C060E080E00E94810665E7DE
:102D50007AE082E19DE00E94440710E000E03CE060
:102D6000C32ED12C8091010B9091020B800F911FEB
:102D7000B6010E94A21B7C0161E0600F80E00E940E
:102D8000810669E87AE00130110511F066EE72E023
:102D900082E19DE00E944407F701EE0FFF1FE05A19
:102DA000FD4F6081718182E19DE00E94440767EEE2
:102DB00072E082E19DE00E9444070F5F1F4F0330E5
:102DC000110581F60C94F10A8631910509F05AC07B
:102DD00060E080E00E9481066FE87AE082E19DE099
:102DE0000E94440780910002909101028A3091056F
:102DF00054F467EF73E082E19DE00E944407809104
:102E00000002909101020E9416096CE77AE082E1CB
:102E10009DE00E94440710E000E094E0C92ED12C10
:102E20008091010B9091020B800F911FB6010E94BF
:102E3000A21B7C0161E0600F80E00E94810669E0D6
:102E40007AE00130110511F063EE72E082E19DE05D
:102E50000E944407F701EE0FFF1FE858FD4F608105
:102E6000718182E19DE00E94440767EE72E082E199
:102E70009DE00E9444070F5F1F4F0330110581F64C
:102E80000C94F10A479711F00C94F10A8091FD0A15
:102E90009091FE0A019709F0F1CE61E089E00E946D
:102EA00081066AEE72E0E6CE1092F00A0C94200BD6
:102EB0009C01205131092430310510F40C94340B5D
:102EC0008D30910549F48091010B9091020B04968D
:102ED00065E070E00C943B0B8531910549F48091DD
:102EE000010B9091020B0B966CE070E00C943B0B85
:102EF0008631910549F48091010B9091020B039664
:102F000064E070E00C943B0B0F97A9F38091010BE8
:102F10009091020B029663E070E00C943B0B1092D0
:102F2000EF0A0C94440B9C012F50310925303105D8
:102F300010F40C94580B8D30910549F48091010BDD
:102F40009091020B019665E070E00C945F0B853167
:102F5000910549F48091010B9091020B01966CE070
:102F600070E00C945F0B469749F48091010B9091AF
:102F7000020B019664E070E00C945F0B8091010BF2
:102F80009091020B019663E070E00C945F0B10923D
:102F9000EE0A0C94680B1F920F920FB60F92112439
:102FA0002F933F938F939F93AF93BF938091C20BC7
:102FB0009091C30BA091C40BB091C50B3091C10B84
:102FC00023E0230F2D3758F50196A11DB11D209345
:102FD000C10B8093C20B9093C30BA093C40BB0930F
:102FE000C50B8091C60B9091C70BA091C80BB091F7
:102FF000C90B0196A11DB11D8093C60B9093C70B01
:10300000A093C80BB093C90BBF91AF919F918F91C3
:103010003F912F910F900FBE0F901F90189526E8AB
:10302000230F0296A11DB11DD2CF1F920F920FB692
:103030000F9211240BB60F922F933F934F935F93F0
:103040006F937F938F939F93AF93BF93EF93FF9370
:103050008CEC9BE00E94ED03FF91EF91BF91AF914B
:103060009F918F917F916F915F914F913F912F91A0
:103070000F900BBE0F900FBE0F901F9018951F92D0
:103080000F920FB60F9211240BB60F922F938F93BE
:103090009F93EF93FF93E091DC0BF091DD0B808128
:1030A000E091E20BF091E30B82FD1DC090818091D5
:1030B000E50B8F5F8F732091E60B821741F0E09153
:1030C000E50BF0E0E453F44F958F8093E50BFF910F
:1030D000EF919F918F912F910F900BBE0F900FBE8C
:1030E0000F901F9018958081F2CF1F920F920FB60C
:1030F0000F9211240BB60F922F933F934F935F9330
:103100006F937F938F939F93AF93BF93EF93FF93AF
:1031100089E69CE00E94ED03FF91EF91BF91AF9192
:103120009F918F917F916F915F914F913F912F91DF
:103130000F900BBE0F900FBE0F901F9018951F920F
:103140000F920FB60F9211240BB60F922F938F93FD
:103150009F93EF93FF93E091790CF0917A0C80812B
:10316000E0917F0CF091800C82FD1DC090818091D8
:10317000820C8F5F8F732091830C821741F0E09156
:10318000820CF0E0E759F34F958F8093820CFF910A
:10319000EF919F918F912F910F900BBE0F900FBECB
:1031A0000F901F9018958081F2CF1F920F920FB64B
:1031B0000F9211240BB60F922F933F934F935F936F
:1031C0006F937F938F939F93AF93BF93EF93FF93EF
:1031D0008091B900887F803609F44DC008F040C066
:1031E000883209F4A9C028F5803109F49DC0C8F4DB
:1031F000882309F4FBC0883009F496C0FF91EF9151
:10320000BF91AF919F918F917F916F915F914F91FE
:103210003F912F910F900BBE0F900FBE0F901F90FC
:103220001895883109F488C0803241F78093910B5A
:1032300014C0803409F49DC040F48033B9F388335E
:10324000E9F68093910B85ECB0C0803509F485C018
:10325000883509F496C0883489F60E94060ACECFD4
:10326000883909F48CC038F5883729F050F488364D
:1032700011F0803719F683E08093920B1092900B37
:1032800057C0883809F47BC0803919F0803809F0BC
:10329000B5CF8091900B803208F071C0E091900B17
:1032A00081E08E0F8093900B8091BB00F0E0E0599D
:1032B000F44F80833DC0803B39F0E0F4803A09F45C
:1032C00079C0883A09F09ACF84E08093920B1092EB
:1032D0006F0B10926E0BE091BA0BF091BB0B19952E
:1032E00080916E0B81110FC081E080936E0B109264
:1032F0004E0B09C0803C09F4A6CF883C09F4A3CF4B
:10330000883B09F07BCFE0916F0B81E08E0F8093BB
:103310006F0BF0E0E25BF44F80818093BB009091F3
:103320006F0B80916E0B29C08091B70B8093BB000F
:1033300085EC8093BC0062CF9091B60B8091B50B69
:10334000981758F5E091B60B81E08E0F8093B60B7D
:10335000F0E0EB56F44F8081E9CFE091B60B81E0CD
:103360008E0F8093B60B8091BB00F0E0EB56F44FCC
:1033700080839091B60B8091B50B9817C8F285E8C1
:10338000D8CFE091B60B81E08E0F8093B60B809181
:10339000BB00F0E0EB56F44F80838091940B8111D9
:1033A0005CCF81E08093930B84EA8093BC00109201
:1033B000920B24CF85EC8093BC001092920B8091ED
:1033C000900B803230F4E091900BF0E0E059F44F34
:1033D00010826091900B70E0E091B80BF091B90B06
:1033E00080E79BE019951092900B08CF1092910BFB
:1033F00034CFCF93DF93EC0160E085E00E9481063B
:10340000CE010E941609D0930102C093000286E10A
:1034100090E09093040B8093030BDF91CF9108957C
:10342000ECECFBE01382128288EE93E0A0E0B0E0C7
:1034300084839583A683B7832CE832E0318320838D
:103440004DEC50E0558744874CEC50E05787468759
:1034500048EC50E0518B408B49EC50E0538B428B51
:103460004AEC50E0558B448B4EEC50E0578B468B2A
:10347000118E128E138E148EE9E6FCE013821282F6
:1034800084839583A683B7833183208325EC30E042
:103490003587248724EC30E03787268720EC30E01E
:1034A000318B208B21EC30E0338B228B22EC30E00F
:1034B000358B248B26EC30E0378B268B118E128EC9
:1034C000138E148EE6E0FDE01382128284839583CE
:1034D000A683B7838EE992E091838083E2E1FDE0E9
:1034E0001382128280EB92E091838083118687E2BF
:1034F000848384E1828784E083870895789484B507
:10350000826084BD84B5816084BD85B5826085BDDF
:1035100085B5816085BD80916E00816080936E006D
:10352000109281008091810082608093810080915F
:103530008100816080938100809180008160809310
:1035400080008091B10084608093B1008091B000D0
:1035500081608093B000809191008260809391009F
:1035600080919100816080939100809190008160B2
:10357000809390008091A10082608093A10080914F
:10358000A10081608093A1008091A0008160809360
:10359000A00080912101826080932101809121010E
:1035A00081608093210180912001816080932001BE
:1035B00080917A00846080937A0080917A008260A2
:1035C00080937A0080917A00816080937A00809164
:1035D0007A00806880937A001092C1001092BF0B2D
:1035E0001092BE0B1092BD0B1092BC0B0E94D00427
:1035F0008DE693E09093BB0B8093BA0B8EE693E03D
:103600009093B90B8093B80B80E18093170D809154
:103610001D0D823018F098E19093170D80931A0DCC
:103620008BE39DE00197F1F76091170D606270E008
:1036300082E19DE00E9495058BE496E40197F1F705
:103640006091170D606270E082E19DE00E94950537
:1036500083E592E00197F1F76091170D606270E0E9
:1036600082E19DE00E9495056091170D606270E017
:1036700082E19DE00E94950584E08093180D6CE046
:1036800070E082E19DE00E9495050E94B30682E011
:103690008093190D66E070E082E19DE00E9495053F
:1036A00062E070E082E19DE00E9495058BE39FE17E
:1036B0000197F1F762E08DE00E94E40262E086E0AB
:1036C0000E94E40262E089E00E94E40262E088E095
:1036D0000E94E40262E08AE00E94E40262E087E085
:1036E0000E94E4020E940C0861E086E10E94E4026C
:1036F00060E086E10E94B60260E071EE80E090E05A
:103700000E94F2066EE172E083E00E94CD0666E15F
:1037100072E084E00E94CD066EE072E085E00E94D7
:10372000CD0666E072E086E00E94CD068091C00B77
:10373000811105C00E948B0A0E947C04F7CF109271
:10374000C00BFACF97FB072E16F4009407D077FD35
:1037500009D00E94E01B07FC05D03EF490958195AE
:103760009F4F0895709561957F4F0895A1E21A2E9D
:10377000AA1BBB1BFD010DC0AA1FBB1FEE1FFF1F15
:10378000A217B307E407F50720F0A21BB30BE40B65
:10379000F50B661F771F881F991F1A9469F76095AC
:1037A0007095809590959B01AC01BD01CF01089566
:1037B000EE0FFF1F881F8BBF0790F691E02D199425
:1037C000AA1BBB1B51E107C0AA1FBB1FA617B70747
:1037D00010F0A61BB70B881F991F5A95A9F7809563
:1037E0009095BC01CD010895FB01DC014150504092
:1037F00048F001900D920020C9F701C01D92415080
:103800005040E0F70895FB0151915523A9F0BF0105
:10381000DC014D9145174111E1F759F4CD010190BB
:10382000002049F04D9140154111C9F3FB014111B0
:10383000EFCF81E090E0019708950F931F93CF930E
:10384000DF93CDB7DEB72E970FB6F894DEBF0FBE6D
:10385000CDBF0E891F8986E08C831A8309838FEF81
:103860009FE79E838D83AE01465E5F4F688D798DA5
:10387000CE0101960E944D1C2F813885020F131F27
:10388000F80110822E960FB6F894DEBF0FBECDBFA2
:10389000DF91CF911F910F9108952F923F924F92F8
:1038A0005F926F927F928F929F92AF92BF92CF92D0
:1038B000DF92EF92FF920F931F93CF93DF9300D08D
:1038C00000D000D01F921F92CDB7DEB77C013B0124
:1038D0008A01FC0117821682838181FFDDC1CE013E
:1038E00001965C01F7019381F30193FD859193FFAC
:1038F00081913F01882309F453C1853239F493FD46
:10390000859193FF81913F01853229F4B70190E0C1
:103910000E94651EE7CF912C212C312CFFE1F3157D
:1039200038F08B3211F190F4803209F1833229F1B1
:1039300037FC3CC020ED280F2A3050F536FE20C061
:103940008AE0989E200D1124922E06C08D3291F0AF
:10395000803371F7689430F8F30193FD859193FFFC
:1039600081913F018111DACF21C0689431F86894C8
:1039700032F8F2CF689433F8EFCF689434F8ECCF94
:10398000EAE02E9E200D1124222E689435F8E4CF13
:103990008E3229F436FC04C1689436F8DDCF8C36BB
:1039A00019F4689437F8D8CF8836B1F2982F9F7DF4
:1039B00095549330E0F08336A1F18337C1F183351C
:1039C00009F063C02801F2E04F0E511CF801C080DD
:1039D000D180692D70E036FC02C06FEF7FEFC60129
:1039E0000E944F1E4C01689437F882010AC00C5F98
:1039F0001F4FFFE3F98388248394912C6501E89499
:103A000037F833FE2DC0522C8114910471F55520E6
:103A100009F468CFB70180E290E00E94651E5A94D5
:103A2000F6CFF801808189830E5F1F4FE4CF280114
:103A3000F2E04F0E511CF801C080D180692D70E07A
:103A400036FC02C06FEF7FEFC6010E945A1E4C0188
:103A50008201D5CFB70180E290E00E94651E2A94D2
:103A60002814190409F0B0F7CECFF60137FC859180
:103A700037FE81916F01B70190E00E94651E5110E1
:103A80005A94F1E08F1A9108BFCF843619F0893625
:103A900009F077C0F80137FE6BC0608171818281C7
:103AA00093810C5F1F4FF32DFF763F2E97FF09C0C8
:103AB00090958095709561957F4F8F4F9F4F68943B
:103AC00037F82AE030E0A5010E94951EC82ECA18DA
:103AD0008C2C432C36FE0CC0E89440F8C91440F4FA
:103AE00034FE05C032FC03C0F32DFE7E4F2E892C20
:103AF00044FEAAC0FE01EC0DF11D8081803309F067
:103B00009CC0242D297E422E842D8870582E43FC83
:103B1000AAC040FEA4C09C2C821418F42C0C922C39
:103B2000981844FEA6C0B70180E390E00E94651E8D
:103B300042FE09C088E790E041FE02C088E590E0BF
:103B4000B7010E94651EC91408F49FC0CA94D12C05
:103B50009FEFC91AD90ACA0CDB1CF60182916F01CA
:103B6000B70190E00E94651EAC14BD04B1F74FCFC1
:103B700060817181072E000C880B990B0E5F1F4F1F
:103B800092CFD32CE894D4F82AE030E08537E1F1E5
:103B9000232D297FD22E8F36A9F1F0F4883551F1EB
:103BA000F701868197812B960FB6F894DEBF0FBE82
:103BB000CDBFDF91CF911F910F91FF90EF90DF90DC
:103BC000CF90BF90AF909F908F907F906F905F90BD
:103BD0004F903F902F900895803749F0883701F734
:103BE000D4FE02C06894D2F820E130E00DC06894A1
:103BF000D4F8F6CF34FE03C0822F8660D82E20E1A1
:103C000032E002C028E030E0F801D7FE0FC060814A
:103C10007181828193810C5F1F4FA5010E94951EC7
:103C2000C82ECA183D2CE89437F852CF60817181B4
:103C300090E080E00E5F1F4FF0CF42FC02C0839403
:103C400063CF8394839460CF842D867809F45CCF0E
:103C5000F6CFB70180E290E00E94651E8394821443
:103C6000C0F3512C5ECF522C5818821408F459CF4F
:103C7000F8CF842D867809F466CF8BE241FE80E28E
:103C800047FC8DE2B70190E05CCFB70180E390E0A4
:103C90000E94651E9A9457CF8FEF9FEF84CFFC014F
:103CA0000590615070400110D8F7809590958E0F67
:103CB0009F1F0895FC016150704001900110D8F7DA
:103CC000809590958E0F9F1F08950F931F93CF930C
:103CD000DF93182F092FEB018B8181FD09C01FEFA6
:103CE0000FEF812F902FDF91CF911F910F910895AA
:103CF00082FF14C02E813F818C819D812817390756
:103D00003CF4E881F981CF0101969983888310837F
:103D10008E819F8101969F838E83E3CFE885F9850D
:103D2000812F1995892BA1F3DACFFA01AA27283020
:103D300051F1203181F1E8946F936E7F6E5F7F4F78
:103D40008F4F9F4FAF4FB1E03ED0B4E03CD0670FF4
:103D5000781F891F9A1FA11D680F791F8A1F911D47
:103D6000A11D6A0F711D811D911DA11D20D009F497
:103D700068943F912AE0269F11243019305D3193D9
:103D8000DEF6CF010895462F4770405D4193B3E0C2
:103D90000FD0C9F7F6CF462F4F70405D4A3318F069
:103DA000495D31FD4052419302D0A9F7EACFB4E01A
:103DB000A6959795879577956795BA95C9F70097D2
:103DC0006105710508959B01AC010A2E0694579573
:103DD000479537952795BA95C9F7620F731F841FCA
:0A3DE000951FA01D0895F894FFCF71
:103DEA000100010080020E11081F02110E00111BB2
:103DFA00151F111111000E11111F11110E000E11B4
:103E0A00101F10110E000000400014005400150588
:103E1A00CD04D90A950A970A990A9B0AF703D30A85
:103E2A00D60A9D0AA70AB10ABB0AC50AE50AF70318
:103E3A00D30AD60A1505CD04D90ADC0ADF0AE20A32
:103E4A00CF0AD20AD50A1405CC04D80ADB0ADE0A3C
:103E5A00E10AE40AE70AEA0A1505F703D30AD60AC9
:103E6A003939303030300000000000000F046F0391
:103E7A009C035C04CD03AB03BF030000000066058E
:103E8A003905EF060F0532051F0510050000000071
:103E9A00C6066F03EF06EE063E312E20476F203E20
:103EAA003E3E2020202020202020200020312E20CD
:103EBA00476F203E3E3E003E20202020202020202A
:103ECA0020202020202020202020200043757272EC
:103EDA00656E742053657474696E677320202020A0
:103EEA00003E312E20584443520020312E2058449F
:103EFA004352003E322E20393431340020322E20F3
:103F0A0039343134003E332E20393431342F3934A8
:103F1A0032340020332E20393431342F39343234BC
:103F2A00004D61696E204D656E750069643F0D0A2A
:103F3A0000393235302C00736E3F0D0A003E312EA7
:103F4A0020536574204261756420526174650020B3
:103F5A00312E205365742042617564205261746564
:103F6A00003E322E205465737420436F6D6D7300CA
:103F7A0020322E205465737420436F6D6D73003E9A
:103F8A00332E205365742041646472657373002074
:103F9A00332E205365742041646472657373002064
:103FAA00312E20476F203E3E3E2020202020202018
:103FBA002020003E312E20393630300020312E208C
:103FCA0039363030003E322E20313932303000203E
:103FDA00322E203139323030003E332E20353736FA
:103FEA0030300020332E203537363030003E312E27
:103FFA0020526567756C61746F7220546573740022
:10400A0020312E20526567756C61746F7220546579
:10401A007374003E312E2043757272656E7420539C
:10402A00657474696E67730020312E20437572724D
:10403A00656E742053657474696E6773003E322E20
:10404A00204C65616B2054657374696E6700203279
:10405A002E204C65616B2054657374696E67003E4F
:10406A00312E505220312E3020535720302E3120FD
:10407A003E3E3E0020312E505220312E30205357E2
:10408A0020302E31203E3E3E003E312E205052201E
:10409A00323520535720302E3030340020312E2034
:1040AA00505220323520535720302E303034003EC3
:1040BA00322E20505220323520535720302E3033A2
:1040CA000020322E20505220323520535720302ED5
:1040DA003033003E332E20505220353020535720A3
:1040EA00302E30330020332E2050522035302053CA
:1040FA005720302E3033003E312E20532F4E20537E
:10410A0065740020312E20532F4E205365740020F1
:10411A00202020203E5965732020202020202020A6
:10412A0020202000202020202020596573202020D4
:10413A0020202020202020200020202020203E4E49
:10414A006F3B205265737461727420202000202016
:10415A00202020204E6F3B205265737461727420B8
:10416A002020003E312E205072696D6172792F4DE8
:10417A0061737465720020312E205072696D61720C
:10418A00792F4D6173746572003E322E2053656338
:10419A006F6E646172792F536C6176650020322EDE
:1041AA00205365636F6E646172792F536C61766513
:1041BA0000232A49443F0D0A0023002030200043EF
:1041CA004F4D53003A436F6E6669726D20426175B6
:1041DA0064004F7220557365205253343835204A93
:1041EA00756D706572005800232A4120410D0A003E
:1041FA00232A534156450D0A00232A4120420D0A1B
:10420A0000232A4120430D0A00232A4120440D0A93
:10421A0000232A4120300D0A00232A4120310D0AA9
:10422A0000232A4120320D0A00232A4120330D0A95
:10423A0000232A4120340D0A00232A4120350D0A81
:10424A000073657477696E646F773F0D0A00676162
:10425A00696E733F0D0A004D756C743D20006D75D3
:10426A006C743A002D2D2E2D2D2D2D2D0053657495
:10427A0057696E3D20006D756C743D20310D0A0042
:10428A0073657477696E646F773D20302E310D0A3D
:10429A0000756E69746E6F3D20310D0A006D756C84
:1042AA00743D2032350D0A0073657477696E646F48
:1042BA00773D20302E3030340D0A007365747769EB
:1042CA006E646F773D20302E30330D0A006D756CA9
:1042DA00743D2035300D0A00534E3F0D0A00474108
:1042EA00494E533F0D0A00534E3A20006D796E75C0
:1042FA006D3D393925642564256425640D0A00530A
:10430A00656E74004E657720534E3A00494E5354F9
:10431A00534E20393925642564256425640D0A0025
:10432A00494E5354444F4D2025642F256425642F4C
:10433A0025640D0A00446174652053656E743A0061
:10434A00444F4D3F0D0A00736C6176656F70743D82
:10435A0020310D0A00736C6176656F70743D2030F0
:10436A000D0A0058444352205375626D656E7500FC
:10437A005844435220636F6D6D7320202020202003
:10438A0020202020005844435220436F6D6D732033
:10439A0042617564005844435220436F6D6D732027
:1043AA0041646472657373202000393431342053B8
:1043BA0075626D656E7500202020202020322E2027
:1043CA0052657365742050726573737572652052F5
:1043DA0061746520616E64205365742057696E6448
:1043EA006F7720202020202020202020202020003D
:1043FA0020322E205265736574205072657373756E
:10440A007265205261746520616E64205365742060
:10441A0057696E646F770020202020202054424480
:10442A003E3E332E20436170747572652052656377
:10443A00656976652F44656C6976657265642041A5
:10444A00732053657474696E6773202020202020BE
:10445A0020202020202000205442443E3E332E209B
:10446A004361707475726520526563656976652F5C
:10447A0044656C697665726564204173207365745E
:10448A0074696E6773003934313420526567756C0C
:10449A0061746F72207465737400202020202020BC
:1044AA00332E20526576657274204261636B2074E4
:1044BA006F2044656661756C742053657474696E07
:1044CA006773202020202020202020202020002068
:1044DA00332E20526576657274204261636B2074B4
:1044EA006F2044656661756C742053657474696ED7
:1044FA00677300536574204C65616B2D5465737442
:10450A002052617465730053657420446566617551
:10451A006C742053657474696E6773005265636FB7
:10452A0072642043746C722053657474696E677385
:10453A0000393431342F39343234205375626D6581
:10454A006E7500202020202020322E20536C6176A8
:10455A0065204F7074205365742039343134203209
:10456A002E30342E787820532F57202020202020D8
:10457A002020202020200020322E20536C617665D6
:10458A00204F707420536574203934313420322E10
:10459A0030342E787820532F5700202020202020D6
:1045AA00332E20536574203932353020534E206122
:1045BA006E64204461746520202020202020202061
:1045CA000020332E20536574203932353020534E63
:1045DA0020616E642044617465002020203E202002
:1045EA00002020203E202020002020203E202020C5
:1045FA0020002020203E20202020200053656E64C9
:10460A002053657269616C204E756D6265723F0058
:10461A002020202020205072692F53656320536583
:10462A007420284F6E6C79204170706C6965732014
:10463A00746F20322E30342E585820532F57206151
:10464A006E64204C61746572202020202020202076
:10465A002020202000446174653A4D4D2C44442C9E
:10466A003230323420202020002020203E200044F6
:10467A006174653A00410042004300440039343213
:10468A003420202020200032204368616E6E656C41
:10469A000034204368616E6E656C003620436861A1
:1046AA006E6E656C0038204368616E6E656C003111
:1046BA0032003031003032003035003036003037C9
:0E46CA0000303800303900313000313100004E
:00000001FF
