:100000000C94D5010C9406020C9406020C94060282
:100010000C9406020C9406020C9406020C94060240
:100020000C9406020C9406020C9406020C94060230
:100030000C9406020C9406020C9406020C94060220
:100040000C9406020C9406020C9406020C94060210
:100050000C9406020C9406020C9406020C94DB0A23
:100060000C9406020C94AF0B0C94850B0C940602B6
:100070000C9406020C9406020C9406020C940602E0
:100080000C9406020C9406020C9406020C940602D0
:100090000C944F0B0C94250B0C9406020C94E50B5E
:1000A0000C9406020C9406020C9406020C940602B0
:1000B0000C9406020C9406020C9406020C940602A0
:1000C0000C9406020C9406020C9406020C94060290
:1000D0000C9406020C9406020C9406020C94060280
:1000E0000C9406020C9419140C944F110C945902A0
:1000F0000C948D030C947B140C944F140C948F145B
:100100000C9436140C94C80F0C94C9120C94CA1396
:100110000C94E1030C94A1120C9499140C945E14A9
:100120000C944A140C94AD100C94A0110C94A213CE
:100130000C94AD140C94E7130C9431140C94EF034D
:100140000C945B050C94C8100C9485110C94EB0E68
:100150000C9405140C9419110C94EC130C94B11319
:100160000C948A140C940A140C94E8060C9445021E
:100170000C9488050C9414140C9440140C947E0375
:100180000C9467020C9446130C94E3100C942C020C
:100190000C9431050C944B020C94C5130C9454141C
:1001A0000C94FE100C94AC130C94B6130C942713FF
:1001B0000C9438020C94BB130C949A0F0C940014FA
:1001C0000C94FB130C9434020C94CF130C944F0337
:1001D0000C94010F0C9451030C949D130C946A1110
:1001E0000C9430020C9434110C943B140C947E0447
:1001F0000C944F020C9480140C9453020C94C01372
:100200000C9402100C94A8140C9432050C94260241
:100210000C9485130C94F1130C940F140C94660237
:100220000C9410070C9434150C9441020C94110793
:100230000C9419120C9431040C94A3140C949E1475
:100240000C9485140C9445140C946B020C94BB1103
:100250000C943B020C94090D0C9454050C94A713B8
:100260000C9463140C9459140C945D020C94F511C5
:100270000C94F6130C9441050C9494140C945003B4
:100280000C9495100C9461020000210024002700BA
:100290002A002D0030003300010100000401070195
:1002A0000A0100002200250028002B002E0031004A
:1002B000340002010000050108010B0100002000CC
:1002C0002300260029002C002F003200000100002E
:1002D00003010601090105050505070508080808C9
:1002E000020202020A0A08080404040401010101CE
:1002F00001010101030303030303030304070707C9
:100300000C0C0C0C0C0C0C0C02020202060606066D
:10031000060606060B0B0B0B0B0B0B0B010210203A
:10032000200808102040102040800201020108042B
:1003300002010102040810204080804020100804BF
:100340000201800402018040201008040201080418
:10035000020101020408102040800102040810205C
:10036000408000000A0B02090C0D0E08070304016F
:10037000000000000000000000000000000000007D
:10038000000000000000000000000000000012114A
:10039000100000000000000000000000000000004D
:1003A0000000000000000000090D11241FBECFEF67
:1003B000D1E2DEBFCDBF00E00CBF2CE0ACE1BAE083
:1003C00001C01D92A834B207E1F71AE0A0E0B2E044
:1003D000EEEFFDE300E00BBF02C007900D92AC31E1
:1003E000B107D9F711E0C5EDD1E000E006C02197D3
:1003F0000109802FFE010E94CC19C43DD10780E085
:100400000807A9F70E94770D0C94FD1E0C940000BC
:100410008150823108F05AC0E82FF0E08827EC5E66
:10042000FD4F8F4F0C94CC193402380226022C0257
:10043000300266023B02410245024B024F02530268
:1004400059025D026602610267026B0280918000C0
:100450008F77809380000895809180008F7DF9CF01
:1004600080918000877FF5CF84B58F7784BD089514
:1004700084B58F7DFBCF8091B0008F778093B000E3
:1004800008958091B0008F7DF9CF809190008F7793
:10049000809390000895809190008F7DF9CF809196
:1004A0009000877FF5CF8091A0008F778093A00088
:1004B00008958091A0008F7DF9CF8091A000877F63
:1004C000F5CF809120018F7780932001089580914E
:1004D00020018F7DF9CF80912001877FF5CFCF93C9
:1004E000DF93282F30E0F901EE59FC4F8491F90198
:1004F000E45EFC4FD491F901EA52FD4FC491CC2344
:10050000A1F081110E940802EC2FF0E0EE0FFF1F16
:10051000E454FD4FA591B491EC91ED2381E090E07E
:1005200009F480E0DF91CF91089580E090E0FACF68
:100530001F93CF93DF93282F30E0F901EE59FC4F42
:100540008491F901E45EFC4FD491F901EA52FD4F28
:10055000C491CC23A9F0162F81110E940802EC2F20
:10056000F0E0EE0FFF1FEE55FD4FA591B4918FB750
:10057000F894EC91111108C0D095DE23DC938FBF65
:10058000DF91CF911F910895DE2BF8CFCF93DF93AA
:1005900090E0FC01E45EFC4F24918A529D4FFC01E7
:1005A00084918823D1F090E0880F991FFC01E857CF
:1005B000FD4FA591B491FC01EE55FD4FC591D4912D
:1005C000623071F49FB7F8943C91822F8095832319
:1005D0008C93E8812E2B28839FBFDF91CF910895C4
:1005E0008FB7F894EC912E2B2C938FBFF6CF3FB79B
:1005F000F8948091E80A9091E90AA091EA0AB091F2
:10060000EB0A26B5A89B05C02F3F19F00196A11D46
:10061000B11D3FBFBA2FA92F982F8827BC01CD014C
:10062000620F711D811D911D42E0660F771F881FAB
:10063000991F4A95D1F708958F929F92AF92BF92DA
:10064000CF92DF92EF92FF926B017C010E94F70242
:100650004B015C01C114D104E104F104B9F00E9422
:10066000F702681979098A099B09683E7340810578
:10067000910580F321E0C21AD108E108F10888EE63
:10068000880E83E0981EA11CB11CE4CFFF90EF9070
:10069000DF90CF90BF90AF909F908F900895089576
:1006A0000895AF92BF92CF92DF92EF92FF920F9395
:1006B0001F93CF93DF936C017B018B01040F151FF8
:1006C000EB015E01AE18BF08C017D10759F0699160
:1006D000D601ED91FC910190F081E02DC6011995B4
:1006E000892B79F7C501DF91CF911F910F91FF9071
:1006F000EF90DF90CF90BF90AF900895FC01538DA5
:10070000448D252F30E0842F90E0821B930B5417EB
:1007100010F0CF96089501970895FC01918D828D78
:10072000981761F0A28DAE0FBF2FB11D5D968C9111
:10073000928D9F5F9F73928F90E008958FEF9FEF50
:1007400008952FB7F8948091EE0A9091EF0AA09146
:10075000F00AB091F10A2FBF8093970B9093980BFA
:10076000A093990BB0939A0B8FE89BE00E948D03A6
:1007700097FF26C02FB7F8948091EE0A9091EF0A68
:10078000A091F00AB091F10A2FBF4091970B5091C0
:10079000980B6091990B70919A0B841B950BA60B8B
:1007A000B70B4091930B5091940B6091950B709106
:1007B000960B84179507A607B707B0F28FEF9FEF48
:1007C0000895FC01918D828D981731F0828DE80F8C
:1007D000F11D858D90E008958FEF9FEF0895FC0146
:1007E000918D228D892F90E0805C9F4F821B910913
:1007F0008F739927089582EF9AE00E94EF0321E01A
:10080000892B09F420E0822F08958FE89BE00E9455
:10081000EF0321E0892B09F420E0822F0895FC01E9
:10082000A48DA80FB92FB11DA35ABF4F2C91848D51
:1008300090E001968F739927848FA689B7892C93AE
:10084000A089B1898C91837080648C93938D848D01
:10085000981306C00288F389E02D80818F7D808304
:100860000895EF92FF920F931F93CF93DF93EC01C4
:1008700081E0888F9B8D8C8D98131AC0E889F98947
:10088000808185FF15C09FB7F894EE89FF8960834A
:10089000E889F98980818370806480839FBF81E0CB
:1008A00090E0DF91CF911F910F91FF90EF9008950D
:1008B000F62E0B8D10E00F5F1F4F0F731127E02EE8
:1008C0008C8D8E110CC00FB607FCFACFE889F98920
:1008D000808185FFF5CFCE010E940F04F1CFEB8D13
:1008E000EC0FFD2FF11DE35AFF4FF0829FB7F894F4
:1008F0000B8FEA89FB8980818062CFCFCF93DF9312
:10090000EC01888D8823B9F0AA89BB89E889F98927
:100910008C9185FD03C0808186FD0DC00FB607FC5C
:10092000F7CF8C9185FFF2CF808185FFEDCFCE018F
:100930000E940F04E9CFDF91CF91089580E090E00D
:10094000892B29F00E94050481110E94000080E09B
:1009500090E0892B29F00E94FB0381110E94000086
:1009600080E090E0892B49F080E090E0892B29F02D
:100970000E94000081110E94000080E090E0892B1D
:1009800049F080E090E0892B29F00E94000081115D
:100990000C94000008952091840A260F3327331FFA
:1009A00021323105ECF42091A80AFC0190E080E0AE
:1009B000243069F082E00895A091840A2191AC016D
:1009C0004C59554FA40FB52FB11D2C930196861786
:1009D00098F38091840A680F6093840A80E00895F8
:1009E00081E008951092A80A81E08093AA0A1092EB
:1009F000A90A61E084E10E94980261E085E10E9419
:100A00009802E9EBF0E080818E7F808380818D7F8A
:100A1000808388E48093B80085E48093BC000895C7
:100A2000CF93DF9391E09093630A8823B9F0C0914C
:100A3000B800D091BA008091BC008A7B8093BC0042
:100A400060E084E10E94980260E085E10E949802E3
:100A50000E94F204D093BA00C093B800DF91CF9106
:100A600008950895E091D50A8091D40AE81730F4EA
:100A7000F0E0E25CF54F808190E008958FEF9FEF0A
:100A800008959091D50A8091D40A2FEF3FEF9817DF
:100A900048F4E92FF0E0E25CF54F208130E09F5F01
:100AA0009093D50AC90108958091D40A9091D50AEE
:100AB000891B990B0895CF92DF92EF92FF920F93CB
:100AC0001F93CF93DF937C01CB018A0120913D0AD4
:100AD000222389F0EB016B01C40ED51ECC15DD0578
:100AE00069F06991D701ED91FC910190F081E02DC1
:100AF000C7011995F3CF642F0E94CB04C801DF9181
:100B0000CF911F910F91FF90EF90DF90CF900895BC
:100B1000CF93DF931F92CDB7DEB7698320913D0A53
:100B20002223F9F02091D20A203258F021E030E05F
:100B3000FC013383228390E080E00F90DF91CF911E
:100B400008958091D30AE82FF0E0E35EF54F998194
:100B500090838F5F8093D30A8093D20A81E090E0E4
:100B6000ECCF61E0CE0101960E94CB04F7CFCF928B
:100B7000DF92EF92FF920F931F93CF93DF93D62FC5
:100B8000672FFC01C48181E080933D0AC0931C0A59
:100B90001092D30A1092D20A8CE29CE00E9488053F
:100BA0006D2F8CE29CE00E948805D091D20AD13250
:100BB00008F092C00E94F7026B017C018091A80AA4
:100BC000811165C082E08093A80A81E08093AA0A1F
:100BD0008FEF8093A70A1092CC0AD093CB0AADE195
:100BE000BAE0EBEAFAE080E0D81385C01092CD0AB3
:100BF0008091CD0ACC0FC82BC093CD0A8091A90A51
:100C0000813009F07CC01092A90A0E94F7026B01A2
:100C10007C018091CD0A8093BB0080915F0A909106
:100C2000600AA091610AB091620A892B8A2B8B2BF2
:100C300099F00E94F70200915F0A1091600A2091DA
:100C4000610A3091620A6C197D098E099F090617A5
:100C5000170728073907E0F18091BC0083FDD9CF41
:100C600085EC8093BC000E94F7026B017C018091AF
:100C7000A80A823009F445C08091A70A8F3F61F12C
:100C80008091A70A803241F18091A70A25C0809106
:100C90005F0A9091600AA091610AB091620A892B63
:100CA0008A2B8B2B09F48ACF0E94F70200915F0AEE
:100CB0001091600A2091610A3091620A6C197D09D5
:100CC0008E099F09061717072807390708F076CFFE
:100CD00080915E0A0E9410051092D30A1092D20AE7
:100CE00010923D0ADF91CF911F910F91FF90EF90ED
:100CF000DF90CF9008959D9191938F5F75CF85EE92
:100D0000B0CF80915F0A9091600AA091610AB09182
:100D1000620A892B8A2B8B2B09F4A9CF0E94F70238
:100D200000915F0A1091600A2091610A3091620A75
:100D30006C197D098E099F090617170728073907BF
:100D400008F095CFC5CFCF93DF9300D000D01F928E
:100D50001F92CDB7DEB798E0E6E2F2E0DE01119631
:100D600001900D929A95E1F79091400C961710F42E
:100D70006FEF690F70E0660F771F21E030E02C0FF6
:100D80003D1F620F731FFB016081860F8068682F13
:100D900070E088E39CE028960FB6F894DEBF0FBEA3
:100DA000CDBFDF91CF910C94B70561E070E088E38F
:100DB0009CE00E94B7058BE39FE10197F1F78091DA
:100DC000410C882321F060E080E00C94A306089594
:100DD00070E070640E94B70581E090E008950F9381
:100DE0001F93CF93DF938B0198E0899FB00111246B
:100DF0006064062E000C770B88E39CE00E94B70528
:100E0000E801085F1F4F699188E39CE00E94E806B3
:100E10000C171D07C1F7DF91CF911F910F91089516
:100E2000089590E080E008958FE89BE00E94EF0332
:100E3000892B29F08FE89BE00E94E103F5CF08950C
:100E40009B01AC01E0919F0BF091A00B82E08083AD
:100E5000211581EE380741055105E9F160E079E09F
:100E60008DE390E00E94AA192150310941095109EE
:100E70005695479537952795E0919B0BF0919C0BE4
:100E80001082E0919D0BF0919E0B20831092A70B96
:100E9000E091A30BF091A40B86E08083E091A10B7D
:100EA000F091A20B808180618083E091A10BF09191
:100EB000A20B808188608083E091A10BF091A20B4E
:100EC000808180688083E091A10BF091A20B8081EA
:100ED0008F7D80830895E0919F0BF091A00B10828D
:100EE00020E1CACF6115710579F0FB010190002066
:100EF000E9F73197AF01461B570BDC01ED91FC91EF
:100F00000280F381E02D199490E080E00895CF9362
:100F1000DF93EB01BC018FE89BE00E947207BE01EA
:100F200090E080E0DF91CF910C941C0360E080E0C2
:100F30000E94A30664EC72E088E39CE00E947207C2
:100F400061E080E00E94A3068091E10A9091E20AAC
:100F500064EA72E0892B11F460E972E088E39CE0B6
:100F60000E94720762E080E00E94A3068091E10A7D
:100F70009091E20A62EC72E0019711F46FEA72E07C
:100F800088E39CE00E94720763E080E00E94A30671
:100F90008091E10A9091E20A62EC72E0029711F40A
:100FA0006FEA72E088E39CE00C94720760E080E0F6
:100FB0000E94A30669E173E088E39CE00E94720747
:100FC00061E080E00E94A3068091E10A9091E20A2C
:100FD00062EE72E0892B11F469ED72E088E39CE027
:100FE0000E94720762E080E00E94A3068091E10AFD
:100FF0009091E20A64EF72E0019711F46BEE72E0F7
:1010000088E39CE00E94720763E080E00E94A306F0
:101010008091E10A9091E20A6BE073E0029711F48B
:101020006DEF72E088E39CE00C9472078F929F92C0
:10103000AF92BF920F931F93CF93DF93CDB7DEB7DD
:10104000A1970FB6F894DEBF0FBECDBF19A24230F4
:1010500008F44AE08E010F5D1F4F842E912CB12CB5
:10106000A12CA50194010E94AA19E62FB901CA0179
:10107000EA3044F5E05DD801EE938D01232B242B5B
:10108000252B79F790E080E0109769F0FD01019041
:101090000020E9F73197AF014A1B5B0BBD0188E3E4
:1010A0009CE00E945103A1960FB6F894DEBF0FBEDC
:1010B000CDBFDF91CF911F910F91BF90AF909F90C7
:1010C0008F900895E95CD7CFAF92BF92CF92DF9215
:1010D000EF92FF920F931F93CF93DF936C017B01ED
:1010E000FC0101900020E9F731978F01081B190BD3
:1010F000EB0109900020E9F72197C61BD70BC80127
:101100008C0F9D1F45970CF447C05601C5018C19E3
:101110009D098017910744F4F50161915F0188E30F
:101120009CE00E94E806F2CFD12CC12C84E190E033
:101130009C01201B310B89018091EC0A9091ED0AF2
:10114000C016D1068CF48C0D9D1DBE010E9496190F
:10115000F701E80FF91F608188E39CE00E94E80630
:101160003FEFC31AD30AE8CF0196BE010E94961939
:101170009093ED0A8093EC0A66E970E080E090E0DD
:10118000DF91CF911F910F91FF90EF90DF90CF9063
:10119000BF90AF900C941C03B60188E39CE00E94C2
:1011A0007207B70188E39CE0DF91CF911F910F9107
:1011B000FF90EF90DF90CF90BF90AF900C947207AC
:1011C000CF92DF92EF92FF9297FF18C06B017C01E4
:1011D0006DE270E488E39CE00E94B70566277727FC
:1011E000CB016C197D098E099F094AE00E941608FF
:1011F0000196FF90EF90DF90CF9008954AE0FF9026
:10120000EF90DF90CF900C941608CF93DF93EC0112
:1012100060E088E00E94A306BE010D2E000C880B42
:10122000990B0E94E008D093DB0AC093DA0A83E1AD
:1012300090E09093E40A8093E30ADF91CF910895C0
:10124000CF93DF93EC0160E089E00E94A306BE012A
:101250000D2E000C880B990B0E94E008D093DD0A3C
:10126000C093DC0A84E190E09093E40A8093E30A5F
:10127000DF91CF910895CF93DF93EC0160E087E099
:101280000E94A306BE010D2E000C880B990B0E9434
:10129000E008D093D90AC093D80A82E190E09093F5
:1012A000E40A8093E30ADF91CF910895CF93DF930F
:1012B000EC0160E086E00E94A306BE010D2E000C4A
:1012C000880B990B0E94E008D093D70AC093D60AE6
:1012D00081E190E09093E40A8093E30ADF91CF915B
:1012E0000895CF93DF93CDB7DEB765970FB6F89427
:1012F000DEBF0FBECDBF44E150E0BC01CE01019680
:101300000E94FE1B1D8ABE016F5F7F4F88E39CE039
:101310000E94720765960FB6F894DEBF0FBECDBF70
:10132000DF91CF9108950F931F93CF93DF93EC013B
:1013300088819981009759F02A813B8126173707C8
:1013400030F081E0DF91CF911F910F9108958B01D3
:101350006F5F7F4F0E940D1B009759F09983888320
:101360001B830A832C813D81232B59F7FC011082BA
:10137000E8CF80E0E7CFEF92FF920F931F93CF93D8
:10138000DF931F921F92CDB7DEB78C01FC01118253
:101390001082138212821582148270E060E00E9433
:1013A0009309F80120813181811132C02115310565
:1013B00019F0C9010E94841AF80111821082158265
:1013C0001482138212820E94A10397FD29C08A30E1
:1013D000910531F189831A82F801E480F580FFEFED
:1013E000EF1AFF0AB701C8010E949309882359F335
:1013F000F8012081318184819581BE016F5F7F4F2B
:10140000820F931F0E94F71BF801F582E482DBCF65
:10141000158214826DE177E0C9010E94F71BD3CFDA
:10142000C8010F900F90DF91CF911F910F91FF9006
:10143000EF900895EF92FF920F931F93CF93DF9356
:1014400000D000D0CDB7DEB77C01CE0101960E945E
:10145000BB090D811E81F7010115110571F00630E0
:10146000110510F006E010E069817A81A801C7013A
:101470000E94FE1BF701E00FF11F108289819A8103
:10148000009711F00E94841AB70188E39CE00E9443
:10149000720726960FB6F894DEBF0FBECDBFDF9160
:1014A000CF911F910F91FF90EF900895CF92DF920F
:1014B000EF92FF920F931F93CF93DF9300D000D052
:1014C000CDB7DEB77C016B01CE0101960E94BB094E
:1014D0000D811E81F7010115110581F0F1E0CF1A90
:1014E000D108C016D10608F4860169817A81A80165
:1014F000C7010E94FE1BF701E00FF11F10828981D6
:101500009A81009711F00E94841AB70188E39CE049
:101510000E94720761E083E10E94A30663E273E028
:1015200088E39CE00E94720726960FB6F894DEBF0F
:101530000FBECDBFDF91CF911F910F91FF90EF9024
:10154000DF90CF90089585ED8093BC0080915F0A75
:101550009091600AA091610AB091620A0796A11D5C
:10156000B11D23E0B695A795979587952A95D1F754
:101570002091BC0024FD03C01092A80A0895409158
:101580005F0A5091600A6091610A7091620A452B6E
:10159000462B472B69F30097A105B10541F02AE2DC
:1015A0002A95F1F700C00197A109B109E1CF809117
:1015B0005E0A0C9410051F920F920FB60F92112421
:1015C0002F933F938F939F93AF93BF938091EE0A96
:1015D0009091EF0AA091F00AB091F10A3091E70AD8
:1015E00023E0230F2D3758F50196A11DB11D20933F
:1015F000E70A8093EE0A9093EF0AA093F00AB09363
:10160000F10A8091E80A9091E90AA091EA0AB09162
:10161000EB0A0196A11DB11D8093E80A9093E90A97
:10162000A093EA0AB093EB0ABF91AF919F918F917B
:101630003F912F910F900FBE0F901F90189526E8A5
:10164000230F0296A11DB11DD2CF1F920F920FB68C
:101650000F9211240BB60F922F933F934F935F93EA
:101660006F937F938F939F93AF93BF93EF93FF936A
:1016700082EF9AE00E940F04FF91EF91BF91AF912A
:101680009F918F917F916F915F914F913F912F919A
:101690000F900BBE0F900FBE0F901F9018951F92CA
:1016A0000F920FB60F9211240BB60F922F938F93B8
:1016B0009F93EF93FF93E091020BF091030B8081D6
:1016C000E091080BF091090B82FD1DC09081809183
:1016D0000B0B8F5F8F7320910C0B821741F0E09101
:1016E0000B0BF0E0EE50F54F958F80930B0BFF91B5
:1016F000EF919F918F912F910F900BBE0F900FBE86
:101700000F901F9018958081F2CF1F920F920FB605
:101710000F9211240BB60F922F933F934F935F9329
:101720006F937F938F939F93AF93BF93EF93FF93A9
:101730008FE89BE00E940F04FF91EF91BF91AF9162
:101740009F918F917F916F915F914F913F912F91D9
:101750000F900BBE0F900FBE0F901F9018951F9209
:101760000F920FB60F9211240BB60F922F938F93F7
:101770009F93EF93FF93E0919F0BF091A00B8081DB
:10178000E091A50BF091A60B82FD1DC09081809188
:10179000A80B8F5F8F732091A90B821741F0E09106
:1017A000A80BF0E0E157F44F958F8093A80BFF91C1
:1017B000EF919F918F912F910F900BBE0F900FBEC5
:1017C0000F901F9018958081F2CF1F920F920FB645
:1017D0000F9211240BB60F922F933F934F935F9369
:1017E0006F937F938F939F93AF93BF93EF93FF93E9
:1017F0008091B900887F803609F44DC008F040C060
:10180000883209F4A9C028F5803109F49DC0C8F4D4
:10181000882309F4FBC0883009F496C0FF91EF914A
:10182000BF91AF919F918F917F916F915F914F91F8
:101830003F912F910F900BBE0F900FBE0F901F90F6
:101840001895883109F488C0803241F78093A70A3F
:1018500014C0803409F49DC040F48033B9F3883358
:10186000E9F68093A70A85ECB0C0803509F485C0FD
:10187000883509F496C0883489F60E94A30ACECF31
:10188000883909F48CC038F5883729F050F4883647
:1018900011F0803719F683E08093A80A1092A60A07
:1018A00057C0883809F47BC0803919F0803809F0B6
:1018B000B5CF8091A60A803208F071C0E091A60AE7
:1018C00081E08E0F8093A60A8091BB00F0E0EA577A
:1018D000F54F80833DC0803B39F0E0F4803A09F455
:1018E00079C0883A09F09ACF84E08093A80A1092D0
:1018F000850A1092840AE091D00AF091D10A1995D4
:101900008091840A81110FC081E08093840A109233
:10191000640A09C0803C09F4A6CF883C09F4A3CF2F
:10192000883B09F07BCFE091850A81E08E0F8093A0
:10193000850AF0E0EC59F54F80818093BB009091CF
:10194000850A8091840A29C08091CD0A8093BB00CA
:1019500085EC8093BC0062CF9091CC0A8091CB0A39
:10196000981758F5E091CC0A81E08E0F8093CC0A4D
:10197000F0E0E555F54F8081E9CFE091CC0A81E0B8
:101980008E0F8093CC0A8091BB00F0E0E555F54FB7
:1019900080839091CC0A8091CB0A9817C8F285E891
:1019A000D8CFE091CC0A81E08E0F8093CC0A809151
:1019B000BB00F0E0E555F54F80838091AA0A8111C4
:1019C0005CCF81E08093A90A84EA8093BC001092E6
:1019D000A80A24CF85EC8093BC001092A80A8091BD
:1019E000A60A803230F4E091A60AF0E0EA57F54FFB
:1019F00010826091A60A70E0E091CE0AF091CF0AC1
:101A000086E89AE019951092A60A08CF1092A70AC4
:101A100034CFE2EFFAE01382128288EE93E0A0E086
:101A2000B0E084839583A683B78324E632E03183D4
:101A300020834DEC50E0558744874CEC50E05787AD
:101A4000468748EC50E0518B408B49EC50E0538B7B
:101A5000428B4AEC50E0558B448B4EEC50E0578B58
:101A6000468B118E128E138E148EEFE8FBE01382DC
:101A7000128284839583A683B7833183208325ECE8
:101A800030E03587248724EC30E03787268720EC48
:101A900030E0318B208B21EC30E0338B228B22EC39
:101AA00030E0358B248B26EC30E0378B268B118E83
:101AB000128E138E148EECE2FCE013821282848369
:101AC0009583A683B78386E792E091838083E8E3DA
:101AD000FCE01382128288E892E091838083118671
:101AE00087E2848384E1828784E083870895CF93AB
:101AF000DF93CDB7DEB7C45AD1090FB6F894DEBF75
:101B00000FBECDBF789484B5826084BD84B58160FA
:101B100084BD85B5826085BD85B5816085BD8091B8
:101B20006E00816080936E00109281008091810030
:101B30008260809381008091810081608093810028
:101B4000809180008160809380008091B1008460EA
:101B50008093B1008091B00081608093B00080914B
:101B600091008260809391008091910081608093C8
:101B70009100809190008160809390008091A100FD
:101B800082608093A1008091A10081608093A10078
:101B90008091A00081608093A000809121018260EB
:101BA00080932101809121018160809321018091A6
:101BB000200181608093200180917A00846080936D
:101BC0007A0080917A00826080937A0080917A0016
:101BD000816080937A0080917A00806880937A0097
:101BE0001092C1001092D50A1092D40A1092D30A12
:101BF0001092D20A0E94F2048FE493E09093D10AEB
:101C00008093D00A80E593E09093CF0A8093CE0A28
:101C100080E180933D0C8091430C823018F098E174
:101C200090933D0C8093400C8BE39DE00197F1F77E
:101C300060913D0C606270E088E39CE00E94B70513
:101C40008BE496E40197F1F760913D0C606270E0DF
:101C500088E39CE00E94B70583E592E00197F1F7E5
:101C600060913D0C606270E088E39CE00E94B705E3
:101C700060913D0C606270E088E39CE00E94B705D3
:101C800084E080933E0C6CE070E088E39CE00E946E
:101C9000B7050E94D50682E080933F0C66E070E0B5
:101CA00088E39CE00E94B70562E070E088E39CE076
:101CB0000E94B7058BE39FE10197F1F762E08DE0A9
:101CC0000E94C60262E086E00E94C60262E089E0ED
:101CD0000E94C60262E088E00E94C60262E08AE0DA
:101CE0000E94C60262E087E00E94C6020E94D607F8
:101CF00061E086E10E94C60260E086E10E949802EF
:101D000060E071EE80E090E00E94200768E172E000
:101D100083E00E94EF0660E172E084E00E94EF063B
:101D200068E072E085E00E94EF0660E072E086E025
:101D30000E94EF0664E0262E312C79E0472E512CCC
:101D4000E3E06E2E712CF5E0AF2EB12CAAE0EA2E66
:101D5000F12C8E010F5F1F4F8091E60A81110C94C8
:101D600092198DE00E946F0286E00E946F0289E066
:101D70000E946F0288E00E946F0286E00E946F025C
:101D8000892B09F08CC68091E50A81113DC0E09154
:101D9000E30AF091E40AE631F10508F032C0882741
:101DA000EB52F14F8F4F0C94CC19EB0E9A0F02109F
:101DB000C80F010F010F9510BB11F5111912A112D7
:101DC000C912010F27134613010F8513CF131914DE
:101DD0006314AD1434158091E10A9091E20A8130C8
:101DE000910509F495C08230910509F49AC0892BB8
:101DF00041F40E94D50681E090E09093E40A80933C
:101E0000E30A81E08093E50A8091E30A9091E40A75
:101E1000009709F047C60E94D6078DE00E946F0226
:101E2000892BF1F48091E00A81110C94271980919B
:101E3000E30A9091E40A892B99F00E94D50610924A
:101E4000E40A1092E30A81E08093E00A68EE73E00E
:101E500080E090E00E941C0360E086E10E9498020E
:101E600089E00E946F02892B11F00C945019809127
:101E7000DF0A811118C08091E30A9091E40A86304C
:101E8000910511F00C942B198091E10A9091E20ACE
:101E90000996B7010E9496199093E20A8093E10A8D
:101EA00081E08093DF0A88E00E946F02892B11F0A5
:101EB0000C946E198091DE0A811118C08091E30A9A
:101EC0009091E40A8630910511F00C945419809198
:101ED000E10A9091E20A0196B7010E949619909347
:101EE000E20A8093E10A81E08093DE0A8091E10AB0
:101EF0009091E20A97FD02C00C9472191092E20AC6
:101F00001092E10A81E08093E60A0E949E0424CFA9
:101F10000E94D50687E090E09093E40A8093E30A5C
:101F200070CF0E94D5068EE090E09093E40A8093F3
:101F3000E30A67CF8091E10A9091E20A813091052E
:101F400069F082309105B9F0892B09F05ACF0E94CF
:101F5000D5067092E40A6092E30A53CF0E94D50638
:101F600082E090E09093E40A8093E30A61E086E1E6
:101F70000E94980246CF0E94D50686E090E090939A
:101F8000E40A8093E30A61E086E10E94980239CF77
:101F90008091E10A9091E20A81309105A9F08230A6
:101FA000910509F1892B09F02CCF0E94D50660E834
:101FB00075E280E090E00E94200769E975E08FE813
:101FC0009BE00E9472071DCF0E94D50660E07BE473
:101FD00080E090E00E94200760EA75E08FE89BE0D7
:101FE0000E9472070ECF0E94D50660E071EE80E07D
:101FF00090E00E94200768EA75E08FE89BE00E946D
:102000007207FFCE8091E10A9091E20A009751F0A9
:1020100097FDF7CE03970CF0F4CE0E9414070E94B0
:10202000D506EFCE0E94D5060E94140770E060E04E
:1020300080EB95E00E94870762E270E0C8010E9491
:10204000560A8981882309F44FC042E150E0B80163
:10205000CE018D569F4F0E94FE1BF801019000207B
:10206000E9F73197E01BF10B7397C0F142E150E0C3
:10207000BE016D5E7F4FCE018F579F4F0E94FE1BAA
:1020800062E081E00E94A306BE016D567F4F88E3A7
:102090009CE00E94720763E081E00E94A306BE01FB
:1020A0006F577F4F88E39CE00E947207CD56DF4F49
:1020B0001882C359D040CF57DF4F1882C158D04043
:1020C00019820E94140761E083E10E94A30663E283
:1020D00073E088E39CE00E94720793CECF57DF4FF6
:1020E0001882C158D040CCCF63E080E00E94A306A4
:1020F00068EB75E088E39CE00E9472076CEB75E08A
:1021000088E39CE00E94720761EC75E088E39CE044
:102110000E94720761E083E10E94A3066FEC75E004
:1021200088E39CE00E9472076CCEE091E10AF09196
:10213000E20AEA30F10508F064CE8827ED55FF4E3B
:102140008F4F0C94CC198511A011AD10C810E3105D
:10215000FE10191134114F116A110E94D5066AE060
:1021600070E081ED95E00E94870760ED77E080E008
:1021700090E00E941C036AE070E089ED95E00E9407
:10218000870768EB7BE080E090E00E941C0339CE7B
:102190000E94D5066AE070E082EE95E00E94870713
:1021A00068EE73E080E090E00E941C036AE070E05B
:1021B00089ED95E00E94870768EB7BE080E090E086
:1021C0000E941C031ECE0E94D5066AE070E08AEED3
:1021D00095E00E94870768EE73E080E090E00E943F
:1021E0001C036AE070E089ED95E00E94870768EBC8
:1021F0007BE080E090E00E941C0303CE0E94D506A5
:102200006AE070E082EF95E00E94870768EE73E075
:1022100080E090E00E941C036AE070E089ED95E0A8
:102220000E94870768EB7BE080E090E00E941C033F
:10223000E8CD0E94D5066AE070E08AEF95E00E9442
:10224000870768EE73E080E090E00E941C036AE07C
:1022500070E089ED95E00E94870768EB7BE080E005
:1022600090E00E941C03CDCD0E94D5066AE070E08C
:1022700082E096E00E94870768EE73E080E090E0DD
:102280000E941C036AE070E089ED95E00E948707D8
:1022900068EB7BE080E090E00E941C03B2CD0E94DE
:1022A000D5066AE070E08AE096E00E94870768EE53
:1022B00073E080E090E00E941C036AE070E089ED2A
:1022C00095E00E94870768EB7BE080E090E00E9449
:1022D0001C0397CD0E94D5066AE070E082E196E08B
:1022E0000E94870768EE73E080E090E00E941C0384
:1022F0006AE070E089ED95E00E94870768EB7BE07B
:1023000080E090E00E941C037CCD0E94D5066AE02C
:1023100070E08AE196E00E94870768EE73E080E053
:1023200090E00E941C036AE070E089ED95E00E9455
:10233000870768EB7BE080E090E00E941C0361CDA2
:102340000E94D5066AE070E082E296E00E9487076C
:1023500068EE73E080E090E00E941C036AE070E0A9
:1023600089ED95E00E94870768EB7BE080E090E0D4
:102370000E941C0346CD8091E10A9091E20A8130CF
:102380009105A9F08230910509F1892B09F039CD29
:102390000E94D50688E090E09093E40A8093E30AD7
:1023A00060E071EE80E090E00E9420072ACD0E945C
:1023B000D5068BE090E09093E40A8093E30A60E016
:1023C00071EE80E090E00E9420071BCD0E94D506B0
:1023D0008DE090E09093E40A8093E30A60E071EE70
:1023E00080E090E00E9420070CCD8091E10A90915E
:1023F000E20A8130910569F08230910589F0892BDC
:1024000009F0FFCC0E94D5065092E40A4092E30AFC
:10241000F8CC0E94D506F092E40AE092E30AF1CCEF
:102420000E94D5068BE090E09093E40A8093E30A43
:10243000E8CC8091E10A9091E20A009741F097FD83
:10244000E0CC03970CF0DDCC0E94D506DACC0E94DC
:10245000D50670E060E08AE296E00E9487076AE0B5
:1024600070E0CE018F579F4F0E94560A70E060E0E7
:1024700087E396E00E94870760E870E0C8010E9449
:10248000560A62E081E00E94A30660E476E088E3F9
:102490009CE00E94720767E476E0C8010E940D1C70
:1024A0000097D9F1BC016A5F7F4F48E050E0CE0150
:1024B0008D569F4F0E94FE1BC556DF4F1882CB5989
:1024C000D040BE016D567F4F88E39CE00E947207AA
:1024D0006DEB72E088E39CE00E94720763E081E0AC
:1024E0000E94A30666E576E088E39CE00E947207FE
:1024F000CF57DF4F8881C158D0408823D9F0BE0123
:102500006F577F4F88E39CE00E9472076DEB72E08B
:1025100088E39CE00E94720774CC6DE476E088E367
:102520009CE00E94720761E083E10E94A3066FECC9
:1025300075E0D0CF6DE476E088E39CE00E947207FE
:1025400060CC8091E10A9091E20A892B09F059CC84
:102550000E94D5066AE070E08FE596E00E9487074A
:1025600068EE73E080E090E00E941C036AE070E097
:1025700089E696E00E94870768EE73E080E090E0CD
:102580000E941C036AE070E08AE796E00E948707D9
:1025900038CC8091E10A9091E20A8130910509F1ED
:1025A00082309105C9F1892B09F02BCC0E94D50608
:1025B0006AE070E086E896E00E94870768EE73E0C4
:1025C00080E090E00E941C036AE070E081E996E000
:1025D0000E94870768EB7BE080E090E00E941C038C
:1025E00010CC0E94D5066AE070E086E896E00E9472
:1025F000870768EE73E080E090E00E941C036AE0C9
:1026000070E084EA96E00E94870768EB7BE080E058
:1026100090E00E941C03F5CB0E94D5066AE070E0B2
:1026200086EB96E00E94870768EE73E080E090E01A
:102630000E941C036AE070E084EA96E00E9487072B
:1026400068EB7BE080E090E00E941C03DACB809195
:10265000E10A9091E20A009731F097FDD2CB0397FF
:102660000CF4F2CECECB70E060E081EC96E00E94FC
:10267000870768EE73E080E090E00E941C0370E042
:1026800060E087EC96E00E948707BBCB0E94D506EE
:1026900070E060E080ED96E00E948707C8010E942C
:1026A0001A0A60E080E00E94A30666ED76E088E307
:1026B0009CE00E947207B80188E39CE00E947207C8
:1026C0008091E10A9091E20A0097C1F0019709F028
:1026D00098CB0E94D50685E190E09093E40A809320
:1026E000E30A60E071EE80E090E00E9420076BED6D
:1026F00076E08FE89BE00E94720783CB80E190E058
:102700009093E40A8093E30A7CCBE091E10AF09194
:10271000E20AEA30F10508F074CB8827ED56FC4E4A
:102720008F4F0C94CC199D13A213A713AC13B113A4
:10273000B613BB13C013C513CA1390E080E00E9408
:1027400056095FCB81E090E00E9456095ACB82E0A7
:1027500090E00E94560955CB83E090E00E94560914
:1027600050CB84E090E00E9456094BCB85E090E08E
:102770000E94560946CB86E090E00E94560941CB64
:1027800087E090E00E9456093CCB88E090E00E94F0
:10279000560937CB89E090E00E94560932CBE09190
:1027A000E10AF091E20AEA30F10508F02ACB882725
:1027B000E352FC4E8F4F0C94CC19E713EC13F1133A
:1027C000F613FB13001405140A140F14141490E0EC
:1027D00080E00E943B0915CB81E090E00E943B091C
:1027E00010CB82E090E00E943B090BCB83E090E0AD
:1027F0000E943B0906CB84E090E00E943B0901CB9C
:1028000085E090E00E943B09FCCA86E090E00E94CF
:102810003B09F7CA87E090E00E943B09F2CA88E0D2
:1028200090E00E943B09EDCA89E090E00E943B09DC
:10283000E8CAE091E10AF091E20AEA30F10508F015
:10284000E0CA8827E95DFB4E8F4F0C94CC193114F8
:1028500036143B14401445144A144F14541459149C
:102860005E1490E080E00E940509CBCA81E090E010
:102870000E940509C6CA82E090E00E940509C1CA0B
:1028800083E090E00E940509BCCA84E090E00E94C9
:102890000509B7CA85E090E00E940509B2CA86E042
:1028A00090E00E940509ADCA87E090E00E9405090A
:1028B000A8CA88E090E00E940509A3CA89E090E0D8
:1028C0000E9405099ECAE091E10AF091E20AEA300D
:1028D000F10508F096CA8827EF58FB4E8F4F0C94ED
:1028E000CC197B14801485148A148F1494149914B1
:1028F0009E14A314A81490E080E00E94200981CACD
:1029000081E090E00E9420097CCA82E090E00E9471
:10291000200977CA83E090E00E94200972CA84E00F
:1029200090E00E9420096DCA85E090E00E94200995
:1029300068CA86E090E00E94200963CA87E090E0C0
:102940000E9420095ECA88E090E00E94200959CACE
:1029500089E090E00E94200954CA8091E10A909198
:10296000E20A009721F1019709F04BCA0E94D506AF
:1029700070E060E080ED96E00E948707C8010E9449
:102980001A0A60E080E00E94A30666ED76E088E324
:102990009CE00E947207B80188E39CE00E947207E5
:1029A00080E190E09093E40A8093E30A2ACA0E94AF
:1029B000D5068091DD0A8F938091DC0A8F938091F8
:1029C000DB0A8F938091DA0A8F938091D90A8F93D3
:1029D0008091D80A8F938091D70A8F938091D60ADD
:1029E0008F9382EE96E09F938F931F930F930E9495
:1029F000271CF80101900020E9F73197BF01601B07
:102A0000710BC8010E94870762E087E00E94A3065D
:102A100065EF76E088E39CE00E94720784E190E035
:102A20009093E40A8093E30A0E94D50670E060E088
:102A300080ED96E00E948707C8010E941A0A60E0B4
:102A400080E00E94A3066AEF76E088E39CE00E94A3
:102A50007207B80188E39CE00E9472070FB6F894F1
:102A6000DEBF0FBECDBFCDC98091E10A9091E20AD1
:102A7000009761F0019709F0C4C90E94D5066AE089
:102A800070E080E197E00E948707BBC90E94D506ED
:102A90006AE070E082E097E00E948707B2C9109276
:102AA000E50AB2C98130910509F041C060E080E0DB
:102AB0000E94A3066EE177E088E39CE00E94720723
:102AC00061E080E00E94A3068091E10A9091E20A11
:102AD00065E273E0892B11F067E373E088E39CE023
:102AE0000E94720762E080E00E94A3068091E10AE2
:102AF0009091E20A69E473E0019711F068E573E0F0
:102B000088E39CE00E94720763E080E00E94A306D5
:102B10008091E10A9091E20A67E673E0029711F072
:102B200067E773E088E39CE00E94720776C9823011
:102B30009105F1F560E080E00E94A3066BE277E08A
:102B400088E39CE00E94720761E080E00E94A30697
:102B50008091E10A9091E20A60E972E0892B11F01C
:102B600067E873E088E39CE00E94720762E080E01F
:102B70000E94A3068091E10A9091E20A6FEA72E056
:102B8000019711F062EC72E088E39CE00E9472070A
:102B900063E080E00E94A3068091E10A9091E20A3E
:102BA0006FEA72E0029709F4BDCF62EC72E0BACF2F
:102BB00083309105F1F560E080E00E94A30660E4B7
:102BC00077E088E39CE00E94720761E080E00E9469
:102BD000A3068091E10A9091E20A6BE973E0892BE8
:102BE00011F064EA73E088E39CE00E94720762E0FF
:102BF00080E00E94A3068091E10A9091E20A6DEACA
:102C000073E0019711F067EB73E088E39CE00E94AA
:102C1000720763E080E00E94A3068091E10A909130
:102C2000E20A61EC73E0029709F47CCF6BEC73E08D
:102C300079CF86309105D1F560E080E00E94A3064F
:102C400060E577E088E39CE00E947207D12CC12CFC
:102C50008091E10A9091E20A8C0D9D1DB7010E94BE
:102C600096194C0161E06C0D80E00E94A3066DEEA8
:102C700078E091E0C916D10411F061EC72E088E3CC
:102C80009CE00E947207F401EE0FFF1FE25DFD4F12
:102C90006081718188E39CE00E9472078FEFC81AFF
:102CA000D80A93E0C916D10499F6B7C887309105C0
:102CB00009F043C060E080E00E94A30665E677E08B
:102CC00088E39CE00E94720761E080E00E94A30616
:102CD0008091E10A9091E20A65ED73E0892B11F091
:102CE00068EE73E088E39CE00E94720762E080E097
:102CF0000E94A3068091E10A9091E20A0197C1F433
:102D000062E777E08FE694E00E94640863E080E089
:102D10000E94A3068091E10A9091E20A62ED77E0B9
:102D2000029709F448C082E198E00E94710975C8D1
:102D30008BEA97E00E947109E9CF8830910509F08C
:102D400043C060E080E00E94A30661E478E088E38D
:102D50009CE00E94720761E080E00E94A3068091DF
:102D6000E10A9091E20A6BEF73E0892B11F060E1C8
:102D700074E088E39CE00E94720762E080E00E94B9
:102D8000A3068091E10A9091E20A65E274E001975E
:102D900011F066E374E088E39CE00E94720763E050
:102DA00080E00E94A3068091E10A9091E20A0297D6
:102DB00041F465E578E08FE694E00E9464080C94A5
:102DC0000D0F8AE898E0B1CF8930910521F40E9477
:102DD00096070C940D0F8A309105E1F560E080E0D4
:102DE0000E94A3066EEA78E088E39CE00E947207E6
:102DF00061E080E00E94A3068091E10A9091E20ADE
:102E000067E474E0892B11F06CE574E088E39CE0E2
:102E10000E94720762E080E00E94A3068091E10AAE
:102E20009091E20A6FE674E0019711F062EC72E0B3
:102E300088E39CE00E94720763E080E00E94A306A2
:102E40008091E10A9091E20A6DEE78E0029709F034
:102E5000ACCE68CE8B309105F1F560E080E00E9449
:102E6000A30662EC78E088E39CE00E94720761E0D0
:102E700080E00E94A3068091E10A9091E20A61E756
:102E800074E0892B11F064E874E088E39CE00E9410
:102E9000720762E080E00E94A3068091E10A9091AF
:102EA000E20A67E974E0019711F069EA74E088E3E7
:102EB0009CE00E94720763E080E00E94A30680917C
:102EC000E10A9091E20A6BEB74E0029709F42ACED2
:102ED0006DEC74E027CE8C30910509F478CF8D30FD
:102EE0009105D9F560E080E00E94A30667ED78E0E7
:102EF00088E39CE00E947207D12CC12C8091E10AEA
:102F00009091E20A8C0D9D1DB5010E9496194C010D
:102F100061E06C0D80E00E94A3066CEE78E081E039
:102F2000C816D10411F060EC72E088E39CE00E94C6
:102F30007207F401EE0FFF1FEE5BFD4F60817181A0
:102F400088E39CE00E9472079FEFC91AD90A83E0C8
:102F5000C816D10499F60C940D0F8E30910509F026
:102F60003FC060E080E00E94A30660EF78E088E365
:102F70009CE00E94720761E080E00E94A3068091BD
:102F8000E10A9091E20A6FED74E0892B11F06BEE8B
:102F900074E088E39CE00E94720762E080E00E9497
:102FA000A3068091E10A9091E20A0197A1F462E000
:102FB00079E08FE694E00E94640863E080E00E947C
:102FC000A3068091E10A9091E20A6FE674E002970D
:102FD00009F0EBCDA7CD86E399E00E947109EDCF12
:102FE0008F30910511F40C940D0F8031910589F506
:102FF000D12CC12C8091E10A9091E20A8C0D9D1D8B
:10300000B7010E9496194C0161E06C0D80E00E94AE
:10301000A30669E579E091E0C916D10411F06DEBE2
:1030200072E088E39CE00E947207F401EE0FFF1F3C
:10303000E45BFD4F6081718188E39CE00E94720730
:103040008FEFC81AD80A93E0C916D10499F60C94E8
:103050000D0F8131910589F5D12CC12C8091E10AA8
:103060009091E20A8C0D9D1DB7010E9496194C01AA
:1030700061E06C0D80E00E94A30660E679E081E0EB
:10308000C816D10411F06CEB72E088E39CE00E945A
:103090007207F401EE0FFF1FE45BFD4F6081718149
:1030A00088E39CE00E9472079FEFC91AD90A83E067
:1030B000C816D10499F60C940D0F8231910589F54B
:1030C000D12CC12C8091E10A9091E20A8C0D9D1DBA
:1030D000B7010E9496194C0161E06C0D80E00E94DE
:1030E000A30668E679E091E0C916D10411F06BEB14
:1030F00072E088E39CE00E947207F401EE0FFF1F6C
:10310000E45BFD4F6081718188E39CE00E9472075F
:103110008FEFC81AD80A93E0C916D10499F60C9417
:103120000D0F8331910589F5D12CC12C8091E10AD5
:103130009091E20A8C0D9D1DB7010E9496194C01D9
:1031400061E06C0D80E00E94A30661E779E081E018
:10315000C816D10411F06AEB72E088E39CE00E948B
:103160007207F401EE0FFF1FE45BFD4F6081718178
:1031700088E39CE00E9472079FEFC91AD90A83E096
:10318000C816D10499F60C940D0F8431910561F5A0
:1031900061E080E00E94A3066BE779E088E39CE0B1
:1031A0000E94720762E080E00E94A3068091E10A1B
:1031B0009091E20A67EF74E0892B11F06CE075E002
:1031C00088E39CE00E94720763E080E00E94A3060F
:1031D0008091E10A9091E20A61E275E0019709F4B9
:1031E000A1CC66E375E09ECC459711F00C940D0FD1
:1031F00060E080E00E94A3066FE879E08DE197E04F
:103200000E94640861E080E00E94A3068091E10AC8
:103210009091E20A6BE475E0892B11F06EE575E0A0
:1032200088E39CE00E94720762E080E00E94A306AF
:103230008091E10A9091E20A61E775E0019711F04F
:1032400065E875E088E39CE00E947207B6CE1092B4
:10325000E00A0C94300F9C012051310924303105D3
:1032600010F40C94440F8D30910541F48091E10AE3
:103270009091E20A0496B5010C944A0F0F9741F41D
:103280008091E10A9091E20A0396B1010C944A0FF1
:103290008091E10A9091E20A0296B3010C944A0FE0
:1032A0001092DF0A0C94530F9C012F5031092530E6
:1032B000310510F40C94670F0D9741F48091E10AE9
:1032C0009091E20A0196B5010C946D0F8091E10A8C
:1032D0009091E20A0196B3010C946D0F1092DE0AF0
:1032E0000C94760F8091E10A9091E20A0A9734F0EB
:1032F0005092E20A4092E10A0C94820F8091E10A16
:103300009091E20A0A97A4F78091E10A9091E20A6B
:10331000059714F40C94820F3092E20A2092E10A8D
:103320000C94820F1092E60A0C94850F97FB072EDF
:1033300016F4009407D077FD09D00E94D41907FC39
:1033400005D03EF4909581959F4F089570956195B5
:103350007F4F0895A1E21A2EAA1BBB1BFD010DC0D1
:10336000AA1FBB1FEE1FFF1FA217B307E407F50735
:1033700020F0A21BB30BE40BF50B661F771F881F11
:10338000991F1A9469F760957095809590959B01A7
:10339000AC01BD01CF010895EE0FFF1F881F8BBF49
:1033A0000790F691E02D1994AA1BBB1B51E107C0B1
:1033B000AA1FBB1FA617B70710F0A61BB70B881FC5
:1033C000991F5A95A9F780959095BC01CD01089554
:1033D0000F931F93CF93DF938230910510F482E017
:1033E00090E0E091460CF091470C30E020E0B0E036
:1033F000A0E0309799F42115310509F44AC0281B43
:10340000390B24303105D8F58A819B81611571050E
:1034100089F1FB0193838283FE0111C040815181B8
:103420000281138148175907E0F04817590799F4AA
:10343000109761F012960C93129713961C93329684
:10344000CF01DF91CF911F910F9108950093460C0A
:103450001093470CF4CF2115310551F04217530753
:1034600038F0A901DB019A01BD01DF01F801C1CFEC
:10347000EF01F9CF9093470C8093460CCDCFFE011E
:10348000E20FF31F819391932250310939832883EE
:10349000D7CF2091440C3091450C232B41F420913F
:1034A0002202309123023093450C2093440C20914A
:1034B0002002309121022115310541F42DB73EB78C
:1034C0004091240250912502241B350BE091440CBD
:1034D000F091450CE217F307A0F42E1B3F0B2817C1
:1034E000390778F0AC014E5F5F4F2417350748F07D
:1034F0004E0F5F1F5093450C4093440C8193919362
:103500009FCFF0E0E0E09CCFCF93DF930097E9F00E
:10351000FC01329713821282A091460CB091470CA5
:10352000ED0130E020E01097A1F420813181820F7D
:10353000931F2091440C3091450C2817390709F04E
:1035400061C0F093450CE093440CDF91CF91089556
:10355000EA01CE17DF07E8F54A815B819E0141153C
:103560005105B1F7E901FB83EA8349915991C40FF1
:10357000D51FEC17FD0761F4808191810296840FBD
:10358000951FE90199838883828193819B838A8334
:10359000F0E0E0E012968D919C9113970097B9F5B9
:1035A0002D913C911197CD010296820F931F20918E
:1035B000440C3091450C2817390739F6309751F5EE
:1035C0001092470C1092460CB093450CA093440CFB
:1035D000BCCFD383C28340815181840F951FC8170C
:1035E000D90761F44E5F5F4F88819981480F591F59
:1035F000518340838A819B81938382832115310586
:1036000009F0B0CFF093470CE093460C9ECFFD013C
:10361000DC01C0CF13821282D7CF4F925F926F929C
:103620007F928F929F92AF92BF92CF92DF92EF9252
:10363000FF920F931F93CF93DF938C01009799F420
:10364000CB01DF91CF911F910F91FF90EF90DF9011
:10365000CF90BF90AF909F908F907F906F905F9032
:103660004F900C94E819FC01E60FF71F9C012250C3
:103670003109E217F30708F4AEC0D901CD91DC910E
:103680001197C617D70720F1C530D10578F0CE01C4
:1036900004978617970750F0C61BD70B2297C19344
:1036A000D1936D937C93CF010E94841AC801DF915E
:1036B000CF911F910F91FF90EF90DF90CF90BF902F
:1036C000AF909F908F907F906F905F904F900895F4
:1036D0005B01AC1ABD0A4C018C0E9D1EA091460CDC
:1036E000B091470C512C412CF12CE12C109731F565
:1036F0008091440C9091450C8815990509F05CC0A7
:103700004616570608F058C0809120029091210279
:10371000009741F48DB79EB7409124025091250245
:10372000841B950BE817F90708F055C0F093450C7A
:10373000E093440CF90171836083B8CF8D919C9123
:10374000119712966C90129713967C901397A81568
:10375000B90559F56C0142E0C40ED11CCA14DB0452
:1037600020F1AC014A195B09DA011296159780F035
:103770006282738251834083D9016D937C93E114FB
:10378000F10471F0D7011396FC93EE9312978ECF4C
:1037900022968C0F9D1FF90191838083F301EFCF57
:1037A000F093470CE093460C81CF4816590608F475
:1037B0002C017D01D3019ACFCB010E94E8197C0135
:1037C000009749F0AE01B8010E94EE1BC8010E94AB
:1037D000841A87016BCF10E000E068CFFB01DC01A9
:1037E00002C001900D9241505040D8F70895FB015E
:1037F000DC0101900D920020E1F70895FB01DC014E
:103800004150504048F001900D920020C9F701C08E
:103810001D9241505040E0F70895FB01519155230E
:10382000A9F0BF01DC014D9145174111E1F759F4B1
:10383000CD010190002049F04D9140154111C9F38F
:10384000FB014111EFCF81E090E0019708950F93C4
:103850001F93CF93DF93CDB7DEB72E970FB6F894B3
:10386000DEBF0FBECDBF0E891F8986E08C831A8311
:1038700009838FEF9FE79E838D83AE01465E5F4F86
:10388000688D798DCE0101960E94571C2F81388555
:10389000020F131FF80110822E960FB6F894DEBFA8
:1038A0000FBECDBFDF91CF911F910F9108952F9241
:1038B0003F924F925F926F927F928F929F92AF92C0
:1038C000BF92CF92DF92EF92FF920F931F93CF930D
:1038D000DF9300D000D000D01F921F92CDB7DEB78B
:1038E0007C013B018A01FC0117821682838181FFE2
:1038F000DDC1CE0101965C01F7019381F30193FDD7
:10390000859193FF81913F01882309F453C185324A
:1039100039F493FD859193FF81913F01853229F41C
:10392000B70190E00E946F1EE7CF912C212C312C23
:10393000FFE1F31538F08B3211F190F4803209F188
:10394000833229F137FC3CC020ED280F2A3050F596
:1039500036FE20C08AE0989E200D1124922E06C0CB
:103960008D3291F0803371F7689430F8F30193FD54
:10397000859193FF81913F018111DACF21C0689435
:1039800031F8689432F8F2CF689433F8EFCF689446
:1039900034F8ECCFEAE02E9E200D1124222E6894FC
:1039A00035F8E4CF8E3229F436FC04C1689436F839
:1039B000DDCF8C3619F4689437F8D8CF8836B1F259
:1039C000982F9F7D95549330E0F08336A1F1833793
:1039D000C1F1833509F063C02801F2E04F0E511C9C
:1039E000F801C080D180692D70E036FC02C06FEF15
:1039F0007FEFC6010E94591E4C01689437F882017E
:103A00000AC00C5F1F4FFFE3F98388248394912C35
:103A10006501E89437F833FE2DC0522C81149104CF
:103A200071F5552009F468CFB70180E290E00E945B
:103A30006F1E5A94F6CFF801808189830E5F1F4F65
:103A4000E4CF2801F2E04F0E511CF801C080D18074
:103A5000692D70E036FC02C06FEF7FEFC6010E9457
:103A6000641E4C018201D5CFB70180E290E00E9434
:103A70006F1E2A942814190409F0B0F7CECFF6016E
:103A800037FC859137FE81916F01B70190E00E946C
:103A90006F1E51105A94F1E08F1A9108BFCF8436EF
:103AA00019F0893609F077C0F80137FE6BC06081E4
:103AB0007181828193810C5F1F4FF32DFF763F2E22
:103AC00097FF09C090958095709561957F4F8F4FB6
:103AD0009F4F689437F82AE030E0A5010E949F1EAE
:103AE000C82ECA188C2C432C36FE0CC0E89440F823
:103AF000C91440F434FE05C032FC03C0F32DFE7E31
:103B00004F2E892C44FEAAC0FE01EC0DF11D8081D0
:103B1000803309F09CC0242D297E422E842D88708C
:103B2000582E43FCAAC040FEA4C09C2C821418F45A
:103B30002C0C922C981844FEA6C0B70180E390E0AC
:103B40000E946F1E42FE09C088E790E041FE02C05D
:103B500088E590E0B7010E946F1EC91408F49FC069
:103B6000CA94D12C9FEFC91AD90ACA0CDB1CF601E2
:103B700082916F01B70190E00E946F1EAC14BD04EA
:103B8000B1F74FCF60817181072E000C880B990B24
:103B90000E5F1F4F92CFD32CE894D4F82AE030E088
:103BA0008537E1F1232D297FD22E8F36A9F1F0F44C
:103BB000883551F1F701868197812B960FB6F894DD
:103BC000DEBF0FBECDBFDF91CF911F910F91FF9050
:103BD000EF90DF90CF90BF90AF909F908F907F90AD
:103BE0006F905F904F903F902F900895803749F0ED
:103BF000883701F7D4FE02C06894D2F820E130E0A3
:103C00000DC06894D4F8F6CF34FE03C0822F8660CE
:103C1000D82E20E132E002C028E030E0F801D7FEE3
:103C20000FC060817181828193810C5F1F4FA5015C
:103C30000E949F1EC82ECA183D2CE89437F852CF18
:103C40006081718190E080E00E5F1F4FF0CF42FCF9
:103C500002C0839463CF8394839460CF842D86784D
:103C600009F45CCFF6CFB70180E290E00E946F1EAE
:103C700083948214C0F3512C5ECF522C58188214B6
:103C800008F459CFF8CF842D867809F466CF8BE2FB
:103C900041FE80E247FC8DE2B70190E05CCFB701C6
:103CA00080E390E00E946F1E9A9457CF8FEF9FEFB2
:103CB00084CFFC010590615070400110D8F78095C9
:103CC00090958E0F9F1F0895FC01615070400190E8
:103CD0000110D8F7809590958E0F9F1F08950F9330
:103CE0001F93CF93DF93182F092FEB018B8181FD59
:103CF00009C01FEF0FEF812F902FDF91CF911F9100
:103D00000F91089582FF14C02E813F818C819D8187
:103D1000281739073CF4E881F981CF01019699838E
:103D2000888310838E819F8101969F838E83E3CF4A
:103D3000E885F985812F1995892BA1F3DACFFA014E
:103D4000AA27283051F1203181F1E8946F936E7FDA
:103D50006E5F7F4F8F4F9F4FAF4FB1E03ED0B4E0CB
:103D60003CD0670F781F891F9A1FA11D680F791F0C
:103D70008A1F911DA11D6A0F711D811D911DA11D1D
:103D800020D009F468943F912AE0269F112430192D
:103D9000305D3193DEF6CF010895462F4770405DC8
:103DA0004193B3E00FD0C9F7F6CF462F4F70405D77
:103DB0004A3318F0495D31FD4052419302D0A9F7D2
:103DC000EACFB4E0A6959795879577956795BA95CC
:103DD000C9F700976105710508959B01AC010A2E92
:103DE00006945795479537952795BA95C9F7620F69
:0E3DF000731F841F951FA01D0895F894FFCF28
:103DFE000E11081F02110E00111B151F11111100BB
:103E0E000E11111F11110E000E11101F10110E00A8
:103E1E000000480C80000000400014005400DD0437
:103E2E009504D409D609D809DA09DC09BF03DE09DD
:103E3E00E009E209EC09F609000A0A0A140ABF03AE
:103E4E00DE09E009DD049504D409160A180A1A0AD7
:103E5E0000000000310451037E037E04EF038D0346
:103E6E00E1030000000088055B05110731055405CC
:103E7E004105320500000000E80651031107100746
:103E8E003E312E20476F203E3E3E20202020202017
:103E9E002020200020312E20476F203E3E3E003E47
:103EAE002020202020202020202020202020202004
:103EBE002020200043757272656E742053657474F1
:103ECE00696E677320202020003E312E2058444317
:103EDE00520020312E2058444352003E322E2039BB
:103EEE003431340020322E2039343134003E332E1A
:103EFE0020393431342F393432340020332E2039E6
:103F0E003431342F39343234004D61696E204D65B1
:103F1E006E750023003E312E20536574204261756C
:103F2E006420526174650020312E20536574204246
:103F3E006175642052617465003E322E20546573A3
:103F4E007420436F6D6D730020322E205465737490
:103F5E0020436F6D6D73003E332E205365742041E8
:103F6E006464726573730020332E20536574204190
:103F7E006464726573730020312E20476F203E3EBD
:103F8E003E202020202020202020003E312E2039CF
:103F9E003630300020312E2039363030003E322E71
:103FAE002031393230300020322E2031393230304B
:103FBE00003E332E2035373630300020332E20355C
:103FCE0037363030003E312E20526567756C617485
:103FDE006F7220546573740020312E205265677500
:103FEE006C61746F722054657374003E312E2043E1
:103FFE00757272656E742053657474696E677300A2
:10400E0020312E2043757272656E74205365747460
:10401E00696E6773003E322E204C65616B205465CD
:10402E007374696E670020322E204C65616B2054CC
:10403E00657374696E67003E312E505220312E30FA
:10404E0020535720302E31203E3E3E0020312E5040
:10405E005220312E3020535720302E31203E3E3EFE
:10406E00003E312E20505220323520535720302E14
:10407E003030340020312E2050522032352053570C
:10408E0020302E303034003E322E20505220323529
:10409E0020535720302E30330020322E2050522005
:1040AE00323520535720302E3033003E332E2050E1
:1040BE005220353020535720302E30330020332EEF
:1040CE0020505220353020535720302E3033003EB2
:1040DE00312E20532F4E205365740020312E205345
:1040EE002F4E205365740020202020203E596573EA
:1040FE0020202020202020202020200020202020D2
:10410E0020205965732020202020202020202020D0
:10411E000020202020203E4E6F3B2052657374619C
:10412E007274202020002020202020204E6F3B2063
:10413E0052657374617274202020003E312E20501F
:10414E0072696D6172792F4D6173746572002031E1
:10415E002E205072696D6172792F4D617374657284
:10416E00003E322E205365636F6E646172792F5359
:10417E006C6176650020322E205365636F6E64612C
:10418E0072792F536C61766500393630300D0A0026
:10419E0031393230300D0A0035373630300D0A00E5
:1041AE00232A49443F0D0A0020302000434F4D532F
:1041BE00003A436F6E6669726D20426175640058F5
:1041CE0000232A4120410D0A00232A534156450D52
:1041DE000A00232A4120420D0A00232A4120430DC2
:1041EE000A00232A4120440D0A00232A4120300DC3
:1041FE000A00232A4120310D0A00232A4120320DC4
:10420E000A00232A4120330D0A00232A4120340DAF
:10421E000A00232A4120350D0A0073657477696EF2
:10422E00646F773F0D0A006761696E733F0D0A0078
:10423E004D756C743D20006D756C743A002D2D2EED
:10424E002D2D2D2D2D0053657457696E3D20006D5B
:10425E00756C743D20310D0A0073657477696E6458
:10426E006F773D20302E310D0A00756E69746E6FBA
:10427E003D20310D0A006D756C743D2032350D0AEE
:10428E000073657477696E646F773D20302E303021
:10429E00340D0A0073657477696E646F773D203054
:1042AE002E30330D0A006D756C743D2035300D0ABD
:1042BE0000534E3F0D0A004741494E533F0D0A0031
:1042CE00736E3F0D0A00534E3A20003537363030AC
:1042DE000A006D796E756D3D393925642564256446
:1042EE0025640D0A0053656E74004E657720534E9B
:1042FE003A00736C6176656F70743D20310D0A0063
:10430E00736C6176656F70743D20300D0A005844F1
:10431E004352205375626D656E75005844435220AA
:10432E00636F6D6D73202020202020202020200020
:10433E005844435220436F6D6D7320426175640083
:10434E005844435220436F6D6D732041646472650F
:10435E00737320200039343134205375626D656ECD
:10436E007500202020202020322E20526573657487
:10437E002050726573737572652052617465206189
:10438E006E64205365742057696E646F7720202009
:10439E00202020202020202020200020322E2052DD
:1043AE006573657420507265737375726520526102
:1043BE00746520616E64205365742057696E646F56
:1043CE0077002020202020205442443E3E332E20D1
:1043DE004361707475726520526563656976652FE9
:1043EE0044656C697665726564204173205365740B
:1043FE0074696E677320202020202020202020202A
:10440E002000205442443E3E332E2043617074758A
:10441E00726520526563656976652F44656C6976B1
:10442E00657265642041732073657474696E677379
:10443E00003934313420526567756C61746F7220A7
:10444E007465737400202020202020332E205265A6
:10445E0076657274204261636B20746F20446566CA
:10446E0061756C742053657474696E6773202020B7
:10447E002020202020202020200020332E205265B6
:10448E0076657274204261636B20746F204465669A
:10449E0061756C742053657474696E67730053652F
:1044AE0074204C65616B2D54657374205261746574
:1044BE0073005365742044656661756C7420536592
:1044CE007474696E6773005265636F72642043740F
:1044DE006C722053657474696E677300203E200001
:1044EE00393431342F39343234205375626D656E60
:1044FE007500202020202020322E20536C617665FE
:10450E00204F707420536574203934313420322E8C
:10451E0030342E787820532F572020202020202032
:10452E0020202020200020322E20536C6176652022
:10453E004F707420536574203934313420322E304C
:10454E00342E787820532F57002020203E20200034
:10455E002020203E202020002020203E2020202031
:10456E00002020203E20202020200053656E642055
:10457E0053657269616C204E756D6265723F0020E5
:10458E0020202020205072692F53656320536574BC
:10459E0020284F6E6C79204170706C6965732074A1
:1045AE006F20322E30342E585820532F5720616EE4
:1045BE0064204C6174657220202020202020202051
:1045CE00202020003500410042004300440031000D
:1045DE00320039343234202020202000322043682B
:1045EE00616E6E656C0034204368616E6E656C00A2
:1045FE0036204368616E6E656C0038204368616ECC
:0C460E006E656C00390036003700380083
:00000001FF
