:100000000C9483000C94B4000C94B4000C94B400D1
:100010000C94B4000C94B4000C94B4000C94B40090
:100020000C94B4000C94B4000C94B4000C94B40080
:100030000C94B4000C94B4000C94B4000C94B40070
:100040000C94B4000C94B4000C94B4000C94B40060
:100050000C94B4000C94B4000C94B4000C940303FE
:100060000C94B4000C9477030C944D030C94B400DE
:100070000C94B4000C94B4000C94B4000C94B40030
:100080000C94B4000C94B4000C94B4000C94B40020
:100090000C94B4000C94B4000C94B4000C94B40010
:1000A0000C94B4000C94B4000C94B4000C94B40000
:1000B0000C94B4000C94B4000C94B4000C94B400F0
:1000C0000C94B4000C94B4000C94B4000C94B400E0
:1000D0000C94B4000C94B4000C94B4000C94B400D0
:1000E0000C94B4000C948C010C944C080C94B60045
:1000F0000C94E3000C94D9010C9454010C94460127
:100100000C94F2004C0811241FBECFEFD1E2DEBFE9
:10011000CDBF00E00CBF25E0AAE1B5E001C01D9213
:10012000A43CB207E1F715E0A0E0B2E0E8E8F5E1B1
:1001300000E00BBF02C007900D92AA31B107D9F7BA
:1001400010E0C3E8D0E000E006C021970109802F4D
:10015000FE010E948508C238D10780E00807A9F790
:100160000E94AD030C94C20A0C940000AF92BF929F
:10017000CF92DF92EF92FF920F931F93CF93DF9373
:100180006C017B018B01040F151FEB015E01AE18A2
:10019000BF08C017D10759F06991D601ED91FC91C4
:1001A0000190F081E02DC6011995892B79F7C501E1
:1001B000DF91CF911F910F91FF90EF90DF90CF9043
:1001C000BF90AF900895FC01538D448D252F30E0F2
:1001D000842F90E0821B930B541710F0CF96089554
:1001E00001970895FC01918D828D981761F0A28D81
:1001F000AE0FBF2FB11D5D968C91928D9F5F9F7347
:10020000928F90E008958FEF9FEF08952FB7F894A5
:1002100080911F0590912005A0912105B0912205A4
:100220002FBF80932B0590932C05A0932D05B093A1
:100230002E0583E295E00E94F20097FF26C02FB7BB
:10024000F89480911F0590912005A0912105B0910F
:1002500022052FBF40912B0550912C0560912D0553
:1002600070912E05841B950BA60BB70B40912705AB
:10027000509128056091290570912A0584179507EA
:10028000A607B707B0F28FEF9FEF0895FC01918D9D
:10029000828D981731F0828DE80FF11D858D90E0E9
:1002A00008958FEF9FEF0895FC01918D228D892F86
:1002B00090E0805C9F4F821B91098F73992708956E
:1002C00083E295E00E94540121E0892B09F420E0AB
:1002D000822F0895FC01A48DA80FB92FB11DA35A38
:1002E000BF4F2C91848D90E001968F739927848F56
:1002F000A689B7892C93A089B1898C918370806479
:100300008C93938D848D981306C00288F389E02D19
:1003100080818F7D80830895EF92FF920F931F93CA
:10032000CF93DF93EC0181E0888F9B8D8C8D9813A8
:100330001AC0E889F989808185FF15C09FB7F894B4
:10034000EE89FF896083E889F98980818370806400
:1003500080839FBF81E090E0DF91CF911F910F914B
:10036000FF90EF900895F62E0B8D10E00F5F1F4F5A
:100370000F731127E02E8C8D8E110CC00FB607FC69
:10038000FACFE889F989808185FFF5CFCE010E94F7
:100390006A01F1CFEB8DEC0FFD2FF11DE35AFF4FFA
:1003A000F0829FB7F8940B8FEA89FB898081806285
:1003B000CFCFCF93DF93EC01888D8823B9F0AA8942
:1003C000BB89E889F9898C9185FD03C0808186FD10
:1003D0000DC00FB607FCF7CF8C9185FFF2CF80815F
:1003E00085FFEDCFCE010E946A01E9CFDF91CF9169
:1003F000089580E090E0892B29F00E94600181112E
:100400000E94000080E090E0892B49F080E090E0BD
:10041000892B29F00E94000081110E94000080E0D9
:1004200090E0892B49F080E090E0892B29F00E9430
:10043000000081110E94000080E090E0892B49F0CB
:1004400080E090E0892B29F00E94000081110C943B
:1004500000000895CF93DF93FC0101900020E9F79D
:100460003197AF01481B590BBC0183E295E00E9414
:10047000B600EC0142E050E068E172E083E295E012
:100480000E94B6008C0F9D1FDF91CF910895FC0153
:1004900024813581FB014481558124173507A0F063
:1004A000FC0180819181009779F0FB01608171816D
:1004B0006115710549F0241B350B820F931F0E94B3
:1004C000A40A21E0892B09F020E0822F0895FC0185
:1004D00024813581232B39F421E0FB01808188239D
:1004E00049F020E007C0808191810E94A40A21E0A8
:1004F000892BB9F7822F0895FB0144815581FC01B6
:10050000248135812417350778F080819181009707
:1005100059F0FB01608171816115710529F00E941C
:10052000B40A21E0892B09F020E0822F08950F936F
:100530001F93CF93DF93EC0188819981009759F045
:100540002A813B812617370730F081E0DF91CF9178
:100550001F910F9108958B016F5F7F4F0E94B20929
:10056000009759F0998388831B830A832C813D81EE
:10057000232B59F7FC011082E8CF80E0E7CFFC0184
:1005800080819181009711F00C9429090895EF92D0
:10059000FF920F931F93CF93DF93EC017B0119829E
:1005A00018821B821A821D821C82FB01019000208E
:1005B000E9F731978F01061B170BB8010E949702CC
:1005C00028813981811113C02115310519F0C90124
:1005D0000E942909198218821D821C821B821A829C
:1005E000DF91CF911F910F91FF90EF9008951D83A0
:1005F0000C83B701C901DF91CF911F910F91FF903B
:10060000EF900C94AD0A1F920F920FB60F92112427
:100610002F933F938F939F93AF93BF9380911F0529
:1006200090912005A0912105B091220530911E05E1
:1006300023E0230F2D3758F50196A11DB11D2093FE
:100640001E0580931F0590932005A0932105B0936C
:10065000220580911A0590911B05A0911C05B0916F
:100660001D050196A11DB11D80931A0590931B05D0
:10067000A0931C05B0931D05BF91AF919F918F91E1
:100680003F912F910F900FBE0F901F90189526E865
:10069000230F0296A11DB11DD2CF1F920F920FB64C
:1006A0000F9211240BB60F922F933F934F935F93AA
:1006B0006F937F938F939F93AF93BF93EF93FF932A
:1006C00083E295E00E946A01FF91EF91BF91AF91A3
:1006D0009F918F917F916F915F914F913F912F915A
:1006E0000F900BBE0F900FBE0F901F9018951F928A
:1006F0000F920FB60F9211240BB60F922F938F9378
:100700009F93EF93FF93E0913305F091340580813F
:10071000E0913905F0913A0582FD1DC090818091EC
:100720003C058F5F8F7320913D05821741F0E0916A
:100730003C05F0E0ED5DFA4F958F80933C05FF910D
:10074000EF919F918F912F910F900BBE0F900FBE45
:100750000F901F9018958081F2CFCF93DF93CDB784
:10076000DEB72C970FB6F894DEBF0FBECDBF7894DE
:1007700084B5826084BD84B5816084BD85B58260A6
:1007800085BD85B5816085BD80916E008160809357
:100790006E001092810080918100826080938100C0
:1007A00080918100816080938100809180008160D0
:1007B000809380008091B10084608093B10080912B
:1007C000B00081608093B00080919100826080933E
:1007D00091008091910081608093910080919000C0
:1007E0008160809390008091A10082608093A1003D
:1007F0008091A10081608093A1008091A000816020
:100800008093A000809121018260809321018091DA
:10081000210181608093210180912001816080937A
:10082000200180917A00846080937A0080917A0020
:10083000826080937A0080917A00816080937A0050
:1008400080917A00806880937A001092C100E091D4
:100850003305F091340582E08083E0913305F09117
:1008600034051082E0912F05F09130051082E0915F
:100870003105F091320580E1808310923B05E091D3
:100880003705F091380586E08083E0913505F091D9
:100890003605808180618083E0913505F0913605D1
:1008A000808188608083E0913505F09136058081F4
:1008B00080688083E0913505F091360580818F7DD9
:1008C000808383E295E00E945401892B09F48CC156
:1008D0006AE172E0CE0107960E94C7020E940601FB
:1008E00097FD1EC08A309105D9F089831A820B8545
:1008F0001C850F5F1F4FB801CE0107960E9497021B
:10090000882361F32F8138858B859C85BE016F5FBD
:100910007F4F820F931F0E94AD0A1C870B87DECF8B
:10092000CF80D884C114D10431F00B851C857601A9
:1009300001151105B1F40F8118850115110509F490
:1009400046C0F80181918F01882309F440C0082E28
:10095000000C990B0E94930AF80131978083F1CF24
:10096000750157018FEFA81AB80AF7018081082E88
:10097000000C990B0E947908892B91F701501109FD
:100980000C0D1D1DF8018081082E000C990B0E9492
:100990007908892B31F00E151F0518F00150110947
:1009A000F1CFA8014F5F5F4F4E195F095C874B87FE
:1009B000CE14DF0420F4B701C6010E949B0AEF8128
:1009C000F8858B859C85E80FF91F1082B4CF6BE109
:1009D00072E0CE0107960E946702882329F08FE11A
:1009E00092E00E942A02FCC067E472E0CE01079602
:1009F0000E946702882319F08CE492E0F2CF6AE546
:100A000072E0CE0107960E946702882319F081E602
:100A100092E0E7CF61EB72E0CE0107960E94670299
:100A2000882319F08CEB92E0DCCF62EC72E0CE010F
:100A300007960E946702882319F088EC92E0D1CFD4
:100A400063ED72E0CE0107960E946702882319F0D9
:100A500087ED92E0C6CF6EED72E0CE0101960E9466
:100A6000C702BE016F5F7F4FCE0107960E947C02D6
:100A7000182FCE0101960E94BF02112309F4B7C0BE
:100A80006BE172E0CE0101960E94C702BE016F5F6A
:100A90007F4FCE0107960E944702182FCE01019684
:100AA0000E94BF0287EE92E011119BCF6EE073E0CF
:100AB000CE0101960E94C702BE016F5F7F4FCE013B
:100AC00007960E944702182FCE0101960E94BF028E
:100AD00082E193E0111185CF60E273E0CE010196CF
:100AE0000E94C702BE016F5F7F4FCE0107960E9432
:100AF0004702182FCE0101960E94BF0284E293E0C4
:100B000011116FCF62E373E0CE0101960E94C7021C
:100B1000BE016F5F7F4FCE0107960E944702182FDC
:100B2000CE0101960E94BF0286E393E0111159CFD6
:100B300061E473E0CE0101960E94C702BE016F5FBF
:100B40007F4FCE0107960E944702182FCE010196D3
:100B50000E94BF0284E493E0111143CF6BE473E081
:100B6000CE0101960E94C702BE016F5F7F4FCE018A
:100B700007960E944702182FCE0101960E94BF02DD
:100B80008FE493E011112DCF6DE573E0CE01019656
:100B90000E94C702BE016F5F7F4FCE0107960E9481
:100BA0004702182FCE0101960E94BF0281E693E012
:100BB000111117CF61E773E0CE0101960E94C702C1
:100BC000BE016F5F7F4FCE0107960E944702182F2C
:100BD000CE0101960E94BF0285E793E0111101CF7B
:100BE000CE0107960E94BF020E94F9016ACE61E819
:100BF00073E0CE0101960E94C702BE016F5F7F4F76
:100C0000CE0107960E947C02182FCE0101960E9409
:100C1000BF02112309F4B2C06BE172E0CE0101966C
:100C20000E94C702BE016F5F7F4FCE0107960E94F0
:100C30004702182FCE0101960E94BF028AE893E076
:100C40001111CFCE6EE073E0CE0101960E94C70273
:100C5000BE016F5F7F4FCE0107960E944702182F9B
:100C6000CE0101960E94BF0281EB93E01111B9CE33
:100C700060E273E0CE0101960E94C702BE016F5F81
:100C80007F4FCE0107960E944702182FCE01019692
:100C90000E94BF028FEB93E01111A3CE62E373E0D9
:100CA000CE0101960E94C702BE016F5F7F4FCE0149
:100CB00007960E944702182FCE0101960E94BF029C
:100CC0008DEC93E011118DCE61E473E0CE010196BD
:100CD0000E94C702BE016F5F7F4FCE0107960E9440
:100CE0004702182FCE0101960E94BF0288ED93E0C3
:100CF000111177CE6BE473E0CE0101960E94C7021A
:100D0000BE016F5F7F4FCE0107960E944702182FEA
:100D1000CE0101960E94BF028FED93E0111161CECA
:100D20006DE573E0CE0101960E94C702BE016F5FC0
:100D30007F4FCE0107960E944702182FCE010196E1
:100D40000E94BF028DEE93E011114BCE61E773E07C
:100D5000CE0101960E94C702BE016F5F7F4FCE0198
:100D600007960E944702182FCE0101960E94BF02EB
:100D70008DEF93E0112309F433CF33CE69E074E0B3
:100D8000CE0101960E94C702BE016F5F7F4FCE0168
:100D900007960E947C02182FCE0101960E94BF0286
:100DA000112309F4B2C06BE172E0CE0101960E94FA
:100DB000C702BE016F5F7F4FCE0107960E944702B8
:100DC000182FCE0101960E94BF0282E194E011111A
:100DD00008CE6EE073E0CE0101960E94C702BE010C
:100DE0006F5F7F4FCE0107960E944702182FCE01FA
:100DF00001960E94BF0289E394E01111F2CD60E2F6
:100E000073E0CE0101960E94C702BE016F5F7F4F63
:100E1000CE0107960E944702182FCE0101960E942C
:100E2000BF0287E494E01111DCCD62E373E0CE01F0
:100E300001960E94C702BE016F5F7F4FCE010796E9
:100E40000E944702182FCE0101960E94BF0285E53D
:100E500094E01111C6CD61E473E0CE0101960E94C9
:100E6000C702BE016F5F7F4FCE0107960E94470207
:100E7000182FCE0101960E94BF0280E694E0111166
:100E8000B0CD6BE473E0CE0101960E94C702BE01B3
:100E90006F5F7F4FCE0107960E944702182FCE0149
:100EA00001960E94BF0287E694E011119ACD6DE58C
:100EB00073E0CE0101960E94C702BE016F5F7F4FB3
:100EC000CE0107960E944702182FCE0101960E947C
:100ED000BF0285E794E0111184CD61E773E0CE0194
:100EE00001960E94C702BE016F5F7F4FCE01079639
:100EF0000E944702182FCE0101960E94BF0285E88A
:100F000094E0112309F46CCE6CCD61E974E0CE015C
:100F100001960E94C702BE016F5F7F4FCE01079608
:100F20000E947C02182FCE0101960E94BF0211235D
:100F300009F456CE6BE172E0CE0101960E94C70221
:100F4000BE016F5F7F4FCE0107960E944702182FA8
:100F5000CE0101960E94BF028AE994E0111141CDB1
:100F60006EE073E0CE0101960E94C702BE016F5F82
:100F70007F4FCE0107960E944702182FCE0101969F
:100F80000E94BF0281EC94E011112BCD60E273E06E
:100F9000CE0101960E94C702BE016F5F7F4FCE0156
:100FA00007960E944702182FCE0101960E94BF02A9
:100FB0008FEC94E0111115CD62E373E0CE01019640
:100FC0000E94C702BE016F5F7F4FCE0107960E944D
:100FD0004702182FCE0101960E94BF028DED94E0CA
:100FE0001111FFCC61E473E0CE0101960E94C702AB
:100FF000BE016F5F7F4FCE0107960E944702182FF8
:10100000CE0101960E94BF0288EE94E01111E9CC56
:101010006BE473E0CE0101960E94C702BE016F5FD0
:101020007F4FCE0107960E944702182FCE010196EE
:101030000E94BF028FEE94E01111D3CC6DE573E0F6
:10104000CE0101960E94C702BE016F5F7F4FCE01A5
:1010500007960E944702182FCE0101960E94BF02F8
:101060008DEF94E01111BDCC61E773E0CE010196E4
:101070000E94C702BE016F5F7F4FCE0107960E949C
:101080004702182FCE0101960E94BF02112309F4D6
:10109000A7CD8DE095E0A5CCE3E2F5E013821282C6
:1010A00088EE93E0A0E0B0E084839583A683B783C5
:1010B0008AE092E09183808385EC90E09587848735
:1010C00084EC90E09787868780EC90E0918B808B12
:1010D00081EC90E0938B828B82EC90E0958B848BFB
:1010E00086EC90E0978B868B118E128E138E148E69
:1010F000089591110C948208803219F0895085501E
:10110000C8F70895992788270895EE0FFF1F881FB5
:101110008BBF0790F691E02D19940F931F93CF93F7
:10112000DF938230910510F482E090E0E091C205F7
:10113000F091C30530E020E0B0E0A0E0309799F4F2
:101140002115310509F44AC0281B390B243031051B
:10115000D8F58A819B816115710589F1FB01938323
:101160008283FE0111C040815181028113814817A1
:101170005907E0F04817590799F4109761F0129653
:101180000C93129713961C933296CF01DF91CF9157
:101190001F910F9108950093C2051093C305F4CFDA
:1011A0002115310551F04217530738F0A901DB0131
:1011B0009A01BD01DF01F801C1CFEF01F9CF909392
:1011C000C3058093C205CDCFFE01E20FF31F8193CB
:1011D00091932250310939832883D7CF2091C005BC
:1011E0003091C105232B41F420910202309103027A
:1011F0003093C1052093C005209100023091010277
:101200002115310541F42DB73EB7409104025091AC
:101210000502241B350BE091C005F091C105E217D2
:10122000F307A0F42E1B3F0B2817390778F0AC0109
:101230004E5F5F4F2417350748F04E0F5F1F5093E6
:10124000C1054093C005819391939FCFF0E0E0E00A
:101250009CCFCF93DF930097E9F0FC013297138284
:101260001282A091C205B091C305ED0130E020E0EB
:101270001097A1F420813181820F931F2091C00526
:101280003091C1052817390709F061C0F093C105F5
:10129000E093C005DF91CF910895EA01CE17DF07F3
:1012A000E8F54A815B819E0141155105B1F7E901DD
:1012B000FB83EA8349915991C40FD51FEC17FD07B1
:1012C00061F4808191810296840F951FE9019983D1
:1012D0008883828193819B838A83F0E0E0E0129689
:1012E0008D919C9113970097B9F52D913C91119791
:1012F000CD010296820F931F2091C0053091C10548
:101300002817390739F6309751F51092C305109216
:10131000C205B093C105A093C005BCCFD383C283DF
:1013200040815181840F951FC817D90761F44E5F22
:101330005F4F88819981480F591F518340838A816B
:101340009B81938382832115310509F0B0CFF093FF
:10135000C305E093C2059ECFFD01DC01C0CF13821F
:101360001282D7CF4F925F926F927F928F929F920D
:10137000AF92BF92CF92DF92EF92FF920F931F93A3
:10138000CF93DF938C01009799F4CB01DF91CF913C
:101390001F910F91FF90EF90DF90CF90BF90AF9093
:1013A0009F908F907F906F905F904F900C948D08DE
:1013B000FC01E60FF71F9C0122503109E217F307E9
:1013C00008F4AEC0D901CD91DC911197C617D707AB
:1013D00020F1C530D10578F0CE0104978617970724
:1013E00050F0C61BD70B2297C193D1936D937C937A
:1013F000CF010E942909C801DF91CF911F910F9160
:10140000FF90EF90DF90CF90BF90AF909F908F9024
:101410007F906F905F904F9008955B01AC1ABD0A6A
:101420004C018C0E9D1EA091C205B091C305512C9C
:10143000412CF12CE12C109731F58091C005909151
:10144000C1058815990509F05CC04616570608F0D5
:1014500058C08091000290910102009741F48DB72D
:101460009EB74091040250910502841B950BE8172A
:10147000F90708F055C0F093C105E093C005F901E4
:1014800071836083B8CF8D919C91119712966C9067
:10149000129713967C901397A815B90559F56C010E
:1014A00042E0C40ED11CCA14DB0420F1AC014A197D
:1014B0005B09DA011296159780F06282738251837C
:1014C0004083D9016D937C93E114F10471F0D7014D
:1014D0001396FC93EE9312978ECF22968C0F9D1F3E
:1014E000F90191838083F301EFCFF093C305E0937B
:1014F000C20581CF4816590608F42C017D01D3019D
:101500009ACFCB010E948D087C01009749F0AE0173
:10151000B8010E949B0AC8010E94290987016BCF6C
:1015200010E000E068CF9111089581548A5108F4C9
:10153000805E855A0895FB01DC0102C001900D9286
:1015400041505040D8F70895FB01DC018D91019086
:1015500080190110D9F3990B0895FB01DC0101906A
:101560000D920020E1F70895FB01DC01415050404D
:1015700030F08D910190801919F40020B9F7881B83
:08158000990B0895F894FFCFC8
:101588000000C4058000000000008C01B600E300E4
:10159800D9015401F20046010D0A0069643F004D6B
:1015A800656E736F7220393431342051756164204F
:1015B800436F6E74726F6C6C657220534E203939AC
:1015C800303633362046007665723F0056657273B2
:1015D800696F6E3A20322E3031006761696E733F51
:1015E800006F66667365743A20302E3030313030C3
:1015F8002C20342E30303030302C2031302E30300A
:101608003030302C202D302E30303035302C202DFD
:10161800322E30303030302C202D31302E303030DA
:101628003030206D756C743A2032352E30303030C1
:101638000073657477696E646F773F00302E3130C0
:10164800320078616C6C3F00302C20302C20302C1C
:10165800203000736E3F0039393036333600706100
:1016680073733D23612000412049442020204D45CB
:101678004E534F522C2020202020363130302C2041
:101688003832343930332C2056352E3030007363DD
:101698003F004120534320312E303030303030006D
:1016A8007A633F0041205A4320302E3030303030AA
:1016B800300066733F004120465320302E303130D1
:1016C80000753F0041205520203100722D3F004118
:1016D80020522D20302E30303030303000722B3FE9
:1016E800004120522B203330302E30303030303013
:1016F8000064633F004120444320303333313232A9
:1017080000706173733D2362200042204944202009
:10171800204D454E534F522C20202020203631306A
:10172800302C203832343930312C2056352E303098
:10173800004220534320312E3030303030300042C8
:10174800205A4320302E303030303030004220468E
:101758005320302E303130004220552020310042B5
:1017680020522D20302E3030303030300042205280
:101778002B203330302E303030303030004220448F
:10178800432030333331323200706173733D236349
:101798002000432049442020204D454E534F522CD1
:1017A8002020202020363130302C20383234393077
:1017B800342C2056352E3030004320534320312E10
:1017C8003030303030300043205A4320302E303013
:1017D80030303030004320465320302E3031300036
:1017E800432055202031004320522D20302E303008
:1017F80030303030004320522B203330302E303000
:1018080030303030004320444320303333313232DB
:1018180000706173733D23642000442049442020F4
:10182800204D454E534F522C202020202036313059
:10183800302C203832343930322C2056352E303086
:10184800004420534320312E3030303030300044B3
:10185800205A4320302E303030303030004420467B
:101868005320302E303130004420552020310044A0
:1018780020522D20302E303030303030004420526D
:101888002B203330302E303030303030004420447C
:0A18980043203033333132320000B8
:00000001FF
