:100000000C9435000C945D000C945D000C945D0024
:100010000C945D000C945D000C945D000C945D00EC
:100020000C945D000C945D000C945D000C945D00DC
:100030000C945D000C945D000C945D000C945D00CC
:100040000C9485020C945D000C94F5020C94CF0284
:100050000C945D000C945D000C945D000C945D00AC
:100060000C945D000C945D00A60711241FBECFEF19
:10007000D8E0DEBFCDBF24E0AAE1B4E001C01D920C
:10008000A43CB207E1F714E0A0E0B1E0EEE5F4E152
:1000900002C005900D92AA31B107D9F710E0C5E36F
:1000A000D0E004C02197FE010E941608C433D10796
:1000B000C9F70E9427030C942D0A0C940000AF92FC
:1000C000BF92CF92DF92EF92FF920F931F93CF9345
:1000D000DF936C017B018B01040F151FEB015E01A7
:1000E000AE18BF08C017D10759F06991D601ED913C
:1000F000FC910190F081E02DC6010995892B79F7DB
:10010000C501DF91CF911F910F91FF90EF90DF908C
:10011000CF90BF90AF900895FC01538D448D252F53
:1001200030E0842F90E0821B930B541710F0CF9691
:10013000089501970895FC01918D828D981761F0C3
:10014000A28DAE0FBF2FB11D5D968C91928D9F5FDA
:100150009F73928F90E008958FEF9FEF08952FB7D0
:10016000F89480911F0490912004A0912104B091F3
:1001700022042FBF80932B0490932C04A0932D0472
:10018000B0932E0483E294E00E949B0097FF26C068
:100190002FB7F89480911F0490912004A09121041E
:1001A000B09122042FBF40912B0450912C046091F8
:1001B0002D0470912E04841B950BA60BB70B409158
:1001C0002704509128046091290470912A0484170F
:1001D0009507A607B707B0F28FEF9FEF0895FC01D0
:1001E000918D828D981731F0828DE80FF11D858DEC
:1001F00090E008958FEF9FEF0895FC01918D228D7F
:10020000892F90E0805C9F4F821B91098F73992703
:10021000089583E294E00E94FD0021E0892B09F417
:1002200020E0822F089580E090E0892B29F00E9441
:10023000090181110C9400000895FC01A48DA80F00
:10024000B92FB11DA35ABF4F2C91848D90E0019618
:100250008F739927848FA689B7892C93A089B18938
:100260008C91837080648C93938D848D981306C0D9
:100270000288F389E02D80818F7D80830895EF923D
:10028000FF920F931F93CF93DF93EC0181E0888F50
:100290009B8D8C8D98131AC0E889F989808185FF20
:1002A00015C09FB7F894EE89FF896083E889F989C2
:1002B00080818370806480839FBF81E090E0DF91C4
:1002C000CF911F910F91FF90EF900895F62E0B8D17
:1002D00010E00F5F1F4F0F731127E02E8C8D8E11D2
:1002E0000CC00FB607FCFACFE889F989808185FF39
:1002F000F5CFCE010E941D01F1CFEB8DEC0FFD2F4C
:10030000F11DE35AFF4FF0829FB7F8940B8FEA89F3
:10031000FB8980818062CFCFCF93DF93EC01888D02
:100320008823B9F0AA89BB89E889F9898C9185FD70
:1003300003C0808186FD0DC00FB607FCF7CF8C91FE
:1003400085FFF2CF808185FFEDCFCE010E941D0198
:10035000E9CFDF91CF910895CF93DF93FC01019016
:100360000020E9F73197AF01481B590BBC0183E22C
:1003700094E00E945F00EC0142E050E068E171E02F
:1003800083E294E00E945F008C0F9D1FDF91CF916C
:100390000895FC0124813581FB0144815581241796
:1003A0003507A0F0FC0180819181009779F0FB0175
:1003B000608171816115710549F0241B350B820F35
:1003C000931F0E940F0A21E0892B09F020E0822F61
:1003D0000895FC0124813581232B39F421E0FB01B0
:1003E0008081882349F020E007C0808191810E94AC
:1003F0000F0A21E0892BB9F7822F0895FB01448170
:100400005581FC01248135812417350778F08081DE
:100410009181009759F0FB0160817181611571052F
:1004200029F00E941F0A21E0892B09F020E0822F89
:1004300008950F931F93CF93DF93EC0188819981E7
:10044000009759F02A813B812617370730F081E069
:10045000DF91CF911F910F9108958B016F5F7F4FB7
:100460000E944109009759F0998388831B830A836E
:100470002C813D81232B59F7FC011082E8CF80E0CD
:10048000E7CFFC0180819181009711F00C94B808AE
:100490000895EF92FF920F931F93CF93DF93EC0198
:1004A0007B01198218821B821A821D821C82FB0129
:1004B00001900020E9F731978F01061B170BB80157
:1004C0000E94190228813981811113C0211531053B
:1004D00019F0C9010E94B808198218821D821C8275
:1004E0001B821A82DF91CF911F910F91FF90EF90A5
:1004F00008951D830C83B701C901DF91CF911F912E
:100500000F91FF90EF900C94180A1F920F920FB664
:100510000F9211242F933F938F939F93AF93BF9389
:1005200080911F0490912004A0912104B091220495
:1005300030911E0423E0230F2D3758F50196A11D9D
:10054000B11D20931E0480931F0490932004A09358
:100550002104B093220480911A0490911B04A0916D
:100560001C04B0911D040196A11DB11D80931A04B5
:1005700090931B04A0931C04B0931D04BF91AF91F2
:100580009F918F913F912F910F900FBE0F901F90D1
:10059000189526E8230F0296A11DB11DD2CF1F92F8
:1005A0000F920FB60F9211242F933F934F935F93A7
:1005B0006F937F938F939F93AF93BF93EF93FF932B
:1005C00083E294E00E941D01FF91EF91BF91AF91F2
:1005D0009F918F917F916F915F914F913F912F915B
:1005E0000F900FBE0F901F9018951F920F920FB68D
:1005F0000F9211242F938F939F93EF93FF93E0918A
:100600003304F09134048081E0913904F0913A048C
:1006100082FD1BC0908180913C048F5F8F7320917D
:100620003D04821741F0E0913C04F0E0ED5DFB4FAA
:10063000958F80933C04FF91EF919F918F912F9123
:100640000F900FBE0F901F9018958081F4CFCF931D
:10065000DF93CDB7DEB72C970FB6F894DEBF0FBE91
:10066000CDBF789484B5826084BD84B5816084BD3B
:1006700085B5826085BD85B5816085BD80916E0040
:10068000816080936E001092810080918100826071
:1006900080938100809181008160809381008091AE
:1006A00080008160809380008091B100846080939D
:1006B000B1008091B00081608093B00080917A0099
:1006C000846080937A0080917A00826080937A00BF
:1006D00080917A00816080937A0080917A008068AE
:1006E00080937A001092C100E0913304F0913404B9
:1006F00082E08083E0913304F09134041082E09131
:100700002F04F09130041082E0913104F091320412
:1007100080E1808310923B04E0913704F09138042B
:1007200086E08083E0913504F09136048081806119
:100730008083E0913504F091360480818860808365
:10074000E0913504F0913604808180688083E091E7
:100750003504F091360480818F7D808380E0A82E5F
:1007600080E0B82E83E294E00E94FD00892B09F41A
:100770008CC16AE171E0CE0107960E9449020E9495
:10078000AF0097FD1EC08A309105D9F089831A8287
:100790000B851C850F5F1F4FB801CE0107960E9485
:1007A0001902882361F32F8138858B859C85BE01D2
:1007B0006F5F7F4F820F931F0E94180A1C870B8761
:1007C000DECFCF80D884C114D10431F00B851C85D5
:1007D000760101151105B1F40F8118850115110578
:1007E00009F446C0F80181918F01882309F440C0C3
:1007F000082E000C990B0E94FE09F80131978083A6
:10080000F1CF740147018FEF881A980AF7018081B0
:10081000082E000C990B0E94D307892B91F70150E9
:1008200011090C0D1D1DF8018081082E000C990B7B
:100830000E94D307892B31F00E151F0518F00150C7
:100840001109F1CFA8014F5F5F4F4E195F095C8717
:100850004B87CE14DF0420F4B701C6010E94060ABC
:10086000EF81F8858B859C85E80FF91F1082B4CF46
:100870006BE171E0CE0107960E94E901882329F01F
:100880008FE191E00E94AC01FCC067E471E0CE0111
:1008900007960E94E901882319F08CE491E0F2CFD9
:1008A0006AE571E0CE0107960E94E901882319F0FC
:1008B00081E691E0E7CF61EB71E0CE0107960E94FF
:1008C000E901882319F08CEB91E0DCCF62EC71E058
:1008D000CE0107960E94E901882319F088EC91E087
:1008E000D1CF63ED71E0CE0107960E94E901882324
:1008F00019F087ED91E0C6CF6EED71E0CE01019663
:100900000E944902BE016F5F7F4FCE0107960E9491
:10091000FE01182FCE0101960E944102112309F415
:10092000C0C06BE171E0CE0101960E944902BE0198
:100930006F5F7F4FCE0107960E94C901182FCE012D
:1009400001960E94410287EE91E011119BCF6EE06B
:1009500072E0CE0101960E944902BE016F5F7F4F97
:10096000CE0107960E94C901182FCE0101960E9460
:10097000410282E192E0111185CF60E272E0CE0186
:1009800001960E944902BE016F5F7F4FCE0107961C
:100990000E94C901182FCE0101960E94410284E2F3
:1009A00092E011116FCF62E372E0CE0101960E94D6
:1009B0004902BE016F5F7F4FCE0107960E94C901B9
:1009C000182FCE0101960E94410286E392E0111198
:1009D00059CF61E472E0CE0101960E944902BE0146
:1009E0006F5F7F4FCE0107960E94C901182FCE017D
:1009F00001960E94410284E492E0111143CF6BE41E
:100A000072E0CE0101960E944902BE016F5F7F4FE6
:100A1000CE0107960E94C901182FCE0101960E94AF
:100A200041028FE492E011112DCF6DE572E0CE010D
:100A300001960E944902BE016F5F7F4FCE0107966B
:100A40000E94C901182FCE0101960E94410281E641
:100A500092E0111117CF61E772E0CE0101960E947A
:100A60004902BE016F5F7F4FCE0107960E94C90108
:100A7000182FCE0101960E94410285E792E01111E4
:100A800001CFCE0107960E944102A114B10409F4DE
:100A900069CE0E940901882309F464CE0E940000F7
:100AA00061CE61E872E0CE0101960E944902BE016A
:100AB0006F5F7F4FCE0107960E94FE01182FCE0177
:100AC00001960E944102112309F4B2C06BE171E06A
:100AD000CE0101960E944902BE016F5F7F4FCE0199
:100AE00007960E94C901182FCE0101960E9441026B
:100AF0008AE892E01111C6CE6EE072E0CE01019656
:100B00000E944902BE016F5F7F4FCE0107960E948F
:100B1000C901182FCE0101960E94410281EB92E09B
:100B20001111B0CE60E272E0CE0101960E9449023E
:100B3000BE016F5F7F4FCE0107960E94C901182F3B
:100B4000CE0101960E9441028FEB92E011119ACEE4
:100B500062E372E0CE0101960E944902BE016F5F1E
:100B60007F4FCE0107960E94C901182FCE01019632
:100B70000E9441028DEC92E0111184CE61E472E09A
:100B8000CE0101960E944902BE016F5F7F4FCE01E8
:100B900007960E94C901182FCE0101960E944102BA
:100BA00088ED92E011116ECE6BE472E0CE010196F9
:100BB0000E944902BE016F5F7F4FCE0107960E94DF
:100BC000C901182FCE0101960E9441028FED92E0DB
:100BD000111158CE6DE572E0CE0101960E944902D6
:100BE000BE016F5F7F4FCE0107960E94C901182F8B
:100BF000CE0101960E9441028DEE92E0111142CE8B
:100C000061E772E0CE0101960E944902BE016F5F6A
:100C10007F4FCE0107960E94C901182FCE01019681
:100C20000E9441028DEF92E0112309F42ACF2ACECF
:100C300069E073E0CE0101960E944902BE016F5F38
:100C40007F4FCE0107960E94FE01182FCE0101961C
:100C50000E944102112309F4B2C06BE171E0CE01A0
:100C600001960E944902BE016F5F7F4FCE01079639
:100C70000E94C901182FCE0101960E94410282E113
:100C800093E01111FFCD6EE072E0CE0101960E945B
:100C90004902BE016F5F7F4FCE0107960E94C901D6
:100CA000182FCE0101960E94410289E393E01111B1
:100CB000E9CD60E272E0CE0101960E944902BE01D8
:100CC0006F5F7F4FCE0107960E94C901182FCE019A
:100CD00001960E94410287E493E01111D3CD62E3B3
:100CE00072E0CE0101960E944902BE016F5F7F4F04
:100CF000CE0107960E94C901182FCE0101960E94CD
:100D0000410285E593E01111BDCD61E472E0CE01B1
:100D100001960E944902BE016F5F7F4FCE01079688
:100D20000E94C901182FCE0101960E94410280E65F
:100D300093E01111A7CD6BE472E0CE0101960E9401
:100D40004902BE016F5F7F4FCE0107960E94C90125
:100D5000182FCE0101960E94410287E693E01111FF
:100D600091CD6DE572E0CE0101960E944902BE016F
:100D70006F5F7F4FCE0107960E94C901182FCE01E9
:100D800001960E94410285E793E011117BCD61E756
:100D900072E0CE0101960E944902BE016F5F7F4F53
:100DA000CE0107960E94C901182FCE0101960E941C
:100DB000410285E893E0112309F463CE63CD61E934
:100DC00073E0CE0101960E944902BE016F5F7F4F22
:100DD000CE0107960E94FE01182FCE0101960E94B7
:100DE0004102112309F44DCE6BE171E0CE01019671
:100DF0000E944902BE016F5F7F4FCE0107960E949D
:100E0000C901182FCE0101960E9441028AE993E0A0
:100E1000111138CD6EE072E0CE0101960E944902B8
:100E2000BE016F5F7F4FCE0107960E94C901182F48
:100E3000CE0101960E94410281EC93E0111122CD76
:100E400060E272E0CE0101960E944902BE016F5F2E
:100E50007F4FCE0107960E94C901182FCE0101963F
:100E60000E9441028FEC93E011110CCD62E372E01D
:100E7000CE0101960E944902BE016F5F7F4FCE01F5
:100E800007960E94C901182FCE0101960E944102C7
:100E90008DED93E01111F6CC61E472E0CE01019684
:100EA0000E944902BE016F5F7F4FCE0107960E94EC
:100EB000C901182FCE0101960E94410288EE93E0ED
:100EC0001111E0CC6BE472E0CE0101960E94490260
:100ED000BE016F5F7F4FCE0107960E94C901182F98
:100EE000CE0101960E9441028FEE93E01111CACC0F
:100EF0006DE572E0CE0101960E944902BE016F5F6E
:100F00007F4FCE0107960E94C901182FCE0101968E
:100F10000E9441028DEF93E01111B4CC61E772E0C1
:100F2000CE0101960E944902BE016F5F7F4FCE0144
:100F300007960E94C901182FCE0101960E94410216
:100F4000112309F49ECD8DE094E09CCCE3E2F4E023
:100F50001382128288EE93E0A0E0B0E08483958350
:100F6000A683B7838AE091E09183808385EC90E04B
:100F70009587848784EC90E09787868780EC90E063
:100F8000918B808B81EC90E0938B828B82EC90E054
:100F9000958B848B86EC90E0978B868B118E128ECE
:100FA000138E148E089591110C94DC07803219F081
:100FB00089508550C8F708959927882708952F925A
:100FC0003F924F925F926F927F928F929F92AF92D9
:100FD000BF92CF92DF92EF92FF920F931F93CF9326
:100FE000DF93CDB7DEB7CA1BDB0B0FB6F894DEBFBD
:100FF0000FBECDBF09942A88398848885F846E84E3
:101000007D848C849B84AA84B984C884DF80EE802C
:10101000FD800C811B81AA81B981CE0FD11D0FB635
:10102000F894DEBF0FBECDBFED010895EE0FFF1F98
:101030000590F491E02D09940F931F93CF93DF93C4
:101040008230910510F482E090E0E091C204F091CA
:10105000C30430E020E0B0E0A0E0309799F421151F
:10106000310509F44AC0281B390B24303105D8F565
:101070008A819B816115710589F1FB0193838283CC
:10108000FE0111C040815181028113814817590727
:10109000E0F04817590799F4109761F012960C93F5
:1010A000129713961C933296CF01DF91CF911F9127
:1010B0000F9108950093C2041093C304F4CF211537
:1010C000310551F04217530738F0A901DB019A01AD
:1010D000BD01DF01F801C1CFEF01F9CF9093C30447
:1010E0008093C204CDCFFE01E20FF31F8193919351
:1010F0002250310939832883D7CF2091C004309101
:10110000C104232B41F4209102013091030130935B
:10111000C1042093C00420910001309101012115E8
:10112000310541F42DB73EB74091040150910501BE
:10113000241B350BE091C004F091C104E217F307C2
:10114000A0F42E1B3F0B2817390778F0AC014E5F37
:101150005F4F2417350748F04E0F5F1F5093C104AF
:101160004093C004819391939FCFF0E0E0E09CCF47
:10117000CF93DF930097E9F0FC013297138212823C
:10118000A091C204B091C304ED0130E020E01097BB
:10119000A1F420813181820F931F2091C0043091EE
:1011A000C1042817390709F061C0F093C104E09326
:1011B000C004DF91CF910895EA01CE17DF07E8F56B
:1011C0004A815B819E0141155105B1F7E901FB831D
:1011D000EA8349915991C40FD51FEC17FD0761F4BB
:1011E000808191810296840F951FE90199838883FC
:1011F000828193819B838A83F0E0E0E012968D9157
:101200009C9113970097B9F52D913C911197CD01C1
:101210000296820F931F2091C0043091C1042817B9
:10122000390739F6309751F51092C3041092C20471
:10123000B093C104A093C004BCCFD383C2834081C8
:101240005181840F951FC817D90761F44E5F5F4F16
:1012500088819981480F591F518340838A819B81DE
:10126000938382832115310509F0B0CFF093C30435
:10127000E093C2049ECFFD01DC01C0CF1382128235
:10128000D7CFB0E0A0E0E7E4F9E00C94E1078C01EF
:10129000009751F4CB010E941C088C01C801CDB706
:1012A000DEB7E0E10C94FD07FC01E60FF71F9C019F
:1012B00022503109E217F30708F49DC0D901CD91FE
:1012C000DC911197C617D70798F0C530D10530F3D8
:1012D000CE0104978617970708F3C61BD70B2297F2
:1012E000C193D1936D937C93CF010E94B808D6CF60
:1012F0005B01AC1ABD0A4C018C0E9D1EA091C2046C
:10130000B091C304512C412CF12CE12C109731F5F4
:101310008091C0049091C1048815990509F05CC0C2
:101320004616570608F058C08091000190910101BF
:10133000009741F48DB79EB740910401509105018B
:10134000841B950BE817F90708F055C0F093C1040A
:10135000E093C004F90171836083A0CF8D919C91CB
:10136000119712966C90129713967C901397A8156C
:10137000B90559F56C0142E0C40ED11CCA14DB0456
:1013800020F1AC014A195B09DA011296159780F039
:101390006282738251834083D9016D937C93E114FF
:1013A000F10471F0D7011396FC93EE93129776CF68
:1013B00022968C0F9D1FF90191838083F301EFCF5B
:1013C000F093C304E093C20469CF4816590608F4A9
:1013D0002C017D01D3019ACFCB010E941C087C0116
:1013E000009749F0AE01B8010E94060AC8010E94A8
:1013F000B808870153CF10E000E050CF9111089555
:1014000081548A5108F4805E855A0895FB01DC01FD
:1014100002C001900D9241505040D8F70895FB0151
:10142000DC018D91019080190110D9F3990B089579
:10143000FB01DC0101900D920020E1F70895FB0112
:10144000DC014150504030F08D910190801919F429
:0E1450000020B9F7881B990B0895F894FFCF80
:10145E000000C4048000000000003F015F008C000B
:10146E008C01FD009B00EF000D0A0069643F004DEA
:10147E00656E736F7220393431342051756164207A
:10148E00436F6E74726F6C6C657220534E203939D7
:10149E00303633362046007665723F0056657273DD
:1014AE00696F6E3A20322E3031006761696E733F7C
:1014BE00006F66667365743A20302E3030313030EE
:1014CE002C20342E30303030302C2031302E303035
:1014DE003030302C202D302E30303035302C202D29
:1014EE00322E30303030302C202D31302E30303006
:1014FE003030206D756C743A2032352E30303030ED
:10150E000073657477696E646F773F00302E3130EB
:10151E00320078616C6C3F00302C20302C20302C47
:10152E00203000736E3F003939303633360070612B
:10153E0073733D23612000412049442020204D45F6
:10154E004E534F522C2020202020363130302C206C
:10155E003832343930332C2056352E303000736308
:10156E003F004120534320312E3030303030300098
:10157E007A633F0041205A4320302E3030303030D5
:10158E00300066733F004120465320302E303130FC
:10159E0000753F0041205520203100722D3F004143
:1015AE0020522D20302E30303030303000722B3F14
:1015BE00004120522B203330302E3030303030303E
:1015CE000064633F004120444320303333313232D4
:1015DE0000706173733D2362200042204944202035
:1015EE00204D454E534F522C202020202036313096
:1015FE00302C203832343930312C2056352E3030C4
:10160E00004220534320312E3030303030300042F3
:10161E00205A4320302E30303030303000422046B9
:10162E005320302E303130004220552020310042E0
:10163E0020522D20302E30303030303000422052AB
:10164E002B203330302E30303030303000422044BA
:10165E00432030333331323200706173733D236374
:10166E002000432049442020204D454E534F522CFC
:10167E002020202020363130302C203832343930A2
:10168E00342C2056352E3030004320534320312E3B
:10169E003030303030300043205A4320302E30303E
:1016AE0030303030004320465320302E3031300061
:1016BE00432055202031004320522D20302E303033
:1016CE0030303030004320522B203330302E30302B
:1016DE003030303000432044432030333331323207
:1016EE0000706173733D2364200044204944202020
:1016FE00204D454E534F522C202020202036313085
:10170E00302C203832343930322C2056352E3030B1
:10171E00004420534320312E3030303030300044DE
:10172E00205A4320302E30303030303000442046A6
:10173E005320302E303130004420552020310044CB
:10174E0020522D20302E3030303030300044205298
:10175E002B203330302E30303030303000442044A7
:0A176E0043203033333132320000E3
:00000001FF
