:100000000C94F1010C9422020C9422020C94220212
:100010000C9422020C9422020C9422020C942202D0
:100020000C9422020C9422020C9422020C942202C0
:100030000C9422020C9422020C9422020C942202B0
:100040000C9422020C9422020C9422020C942202A0
:100050000C9422020C9422020C9422020C94481755
:100060000C9422020C941C180C94F2170C9422028B
:100070000C9422020C9422020C9422020C94220270
:100080000C9422020C9422020C9422020C94220260
:100090000C94BC170C9492170C9422020C945218D6
:1000A0000C9422020C9422020C9422020C94220240
:1000B0000C9422020C9422020C9422020C94220230
:1000C0000C9422020C9422020C9422020C94220220
:1000D0000C9422020C9422020C9422020C94220210
:1000E0000C9422020C942B140C94ED060C946614C0
:1000F0000C9461140C941D050C945D020C9418135F
:100100000C94A1130C9448020C94AB150C94EC06BF
:100110000C94CD130C9457110C9497150C94C81390
:100120000C9462150C947F140C94C4060C949A03DE
:100130000C9475020C9437050C9475140C947A1475
:100140000C9408140C947E150C9450020C946B03C0
:100150000C94A9030C9472110C94BD030C94E80F39
:100160000C94A8110C943C110C94B0150C948D11A6
:100170000C9421140C940D140C9470140C948202A1
:100180000C946C030C946B140C945A040C94C414CB
:100190000C9417140C940D040C94A6150C944D1487
:1001A0000C94C9140C9457140C94C3130C94831519
:1001B0000C9447150C94EB130C9426140C940E0518
:1001C0000C9437130C94D0100C946F020C94D7132A
:1001D0000C9442020C94BE130C9482100C941214D2
:1001E0000C94BA120C948D150C945C140C94971406
:1001F0000C9430050C94D2130C9430140C94DF152D
:100200000C94B5150C9454020C9492150C94A115F1
:100210000C946D030C94BF140C94BA150C94E61353
:100220000C9483020C948D190C94DC130C94C00F65
:100230000C949C140C949C150C94DD0E0C940314DB
:100240000C94E2110C940D050C9488150C946B021F
:100250000C94E1130C947D020C941C140C94610218
:100260000C949A100C94A6140C944C020C9421112A
:100270000C94A1140C94AB140C9464050C94870298
:100280000C9435140C94BA140C94EB100C94B01418
:100290000C9406110C94B5100C9457020C94900F0A
:1002A0000C9467020C9479020C94B9130C945214B8
:1002B0000C9492120C940A120C94CB030C94B51467
:1002C00000002100240027002A002D003000330008
:1002D00001010000040107010A01000022002500BD
:1002E00028002B002E00310034000201000005011F
:1002F00008010B01000020002300260029002C002B
:100300002F0032000001000003010601090105056C
:100310000505070508080808020202020A0A08087B
:1003200004040404010101010101010103030303A9
:1003300003030303040707070C0C0C0C0C0C0C0C38
:100340000202020206060606060606060B0B0B0B49
:100350000B0B0B0B0102102020080810204010206E
:100360004080020102010804020101020408102079
:100370004080804020100804020180040201804077
:1003800020100804020108040201010204081020E0
:100390004080010204081020408000000A0B02097E
:1003A0000C0D0E080703040100000000000000000F
:1003B000000000000000000000000000000000003D
:1003C00000000000000012111000000000000000FA
:1003D000000000000000000000000000000000001D
:1003E0008D1911241FBECFEFD1E2DEBFCDBF00E0DB
:1003F0000CBF1AE0A0E0B2E0E4EEFCE300E00BBFCB
:1004000002C007900D92AC37B107D9F72CE0ACE7EA
:10041000BAE001C01D92AC3AB207E1F711E0C1EFBA
:10042000D1E000E006C021970109802FFE010E9463
:10043000551BC03FD10780E00807A9F70E94FB19B0
:100440000C94701E0C9400008150823108F05AC048
:10045000E82FF0E08827E05DFD4F8F4F0C94551B8F
:1004600050025402420248024C02820257025D02CC
:10047000610267026B026F027502790282027D02DD
:1004800083028702809180008F7780938000089597
:10049000809180008F7DF9CF80918000877FF5CF9C
:1004A00084B58F7784BD089584B58F7DFBCF80910F
:1004B000B0008F778093B00008958091B0008F7D59
:1004C000F9CF809190008F7780939000089580916C
:1004D00090008F7DF9CF80919000877FF5CF80913C
:1004E000A0008F778093A00008958091A0008F7D59
:1004F000F9CF8091A000877FF5CF809120018F7781
:10050000809320010895809120018F7DF9CF809103
:100510002001877FF5CFCF93DF93282F30E0F901BB
:10052000E656FC4F8491F901EC5AFC4FD491F90145
:10053000E25FFC4FC491CC23A1F081110E94240200
:10054000EC2FF0E0EE0FFF1FEC50FD4FA591B491A2
:10055000EC91ED2381E090E009F480E0DF91CF9110
:10056000089580E090E0FACF1F93CF93DF93282F78
:1005700030E0F901E656FC4F8491F901EC5AFC4F4A
:10058000D491F901E25FFC4FC491CC23A9F0162F5E
:1005900081110E942402EC2FF0E0EE0FFF1FE652C3
:1005A000FD4FA591B4918FB7F894EC91111108C04B
:1005B000D095DE23DC938FBFDF91CF911F910895FB
:1005C000DE2BF8CFCF93DF9390E0FC01EC5AFC4F89
:1005D0002491825F9C4FFC0184918823D1F090E0AC
:1005E000880F991FFC01E054FD4FA591B491FC01C7
:1005F000E652FD4FC591D491623071F49FB7F894E3
:100600003C91822F809583238C93E8812E2B288325
:100610009FBFDF91CF9108958FB7F894EC912E2B67
:100620002C938FBFF6CF3FB7F8948091540B9091E5
:10063000550BA091560BB091570B26B5A89B05C042
:100640002F3F19F00196A11DB11D3FBFBA2FA92F51
:10065000982F8827BC01CD01620F711D811D911D4E
:1006600042E0660F771F881F991F4A95D1F70895BA
:100670008F929F92AF92BF92CF92DF92EF92FF92B2
:100680006B017C010E9413034B015C01C114D10476
:10069000E104F104B9F00E941303681979098A0989
:1006A0009B09683E73408105910580F321E0C21AE1
:1006B000D108E108F10888EE880E83E0981EA11C9D
:1006C000B11CE4CFFF90EF90DF90CF90BF90AF9040
:1006D0009F908F90089508950895AF92BF92CF9202
:1006E000DF92EF92FF920F931F93CF93DF936C01F2
:1006F0007B018B01040F151FEB015E01AE18BF08D3
:10070000C017D10759F06991D601ED91FC91019084
:10071000F081E02DC6011995892B79F7C501DF918C
:10072000CF911F910F91FF90EF90DF90CF90BF90EE
:10073000AF900895FC01538D448D252F30E0842F18
:1007400090E0821B930B541710F0CF9608950197F9
:100750000895FC01918D828D981761F0A28DAE0FE6
:10076000BF2FB11D5D968C91928D9F5F9F73928F6D
:1007700090E008958FEF9FEF0895FC01918D828D99
:10078000981731F0828DE80FF11D858D90E0089566
:100790008FEF9FEF0895FC01918D228D892F90E0BE
:1007A000805C9F4F821B91098F73992708958AE57A
:1007B0009BE00E94CB0321E0892B09F420E0822FEB
:1007C000089587EF9BE00E94CB0321E0892B09F479
:1007D00020E0822F0895FC01A48DA80FB92FB11D30
:1007E000A35ABF4F2C91848D90E001968F73992767
:1007F000848FA689B7892C93A089B1898C91837045
:1008000080648C93938D848D981306C00288F3893D
:10081000E02D80818F7D80830895EF92FF920F936A
:100820001F93CF93DF93EC0181E0888F9B8D8C8D9C
:1008300098131AC0E889F989808185FF15C09FB790
:10084000F894EE89FF896083E889F9898081837053
:10085000806480839FBF81E090E0DF91CF911F9102
:100860000F91FF90EF900895F62E0B8D10E00F5F23
:100870001F4F0F731127E02E8C8D8E110CC00FB6F9
:1008800007FCFACFE889F989808185FFF5CFCE0191
:100890000E94EB03F1CFEB8DEC0FFD2FF11DE35A1E
:1008A000FF4FF0829FB7F8940B8FEA89FB89808114
:1008B0008062CFCFCF93DF93EC01888D8823B9F08E
:1008C000AA89BB89E889F9898C9185FD03C080815B
:1008D00086FD0DC00FB607FCF7CF8C9185FFF2CFD8
:1008E000808185FFEDCFCE010E94EB03E9CFDF9140
:1008F000CF91089580E090E0892B29F00E94E103D8
:1009000081110E94000080E090E0892B29F00E9474
:10091000D70381110E94000080E090E0892B49F00C
:1009200080E090E0892B29F00E94000081110E9454
:10093000000080E090E0892B49F080E090E0892B76
:1009400029F00E94000081110C940000089520916C
:10095000FC0A260F3327331F21323105ECF4209196
:10096000200BFC0190E080E0243069F082E00895E3
:10097000A091FC0A2191AC014452554FA40FB52F10
:10098000B11D2C930196861798F38091FC0A680F8D
:100990006093FC0A80E0089581E008951092200B96
:1009A00081E08093220B1092210B61E084E10E9490
:1009B000B40261E085E10E94B402E9EBF0E08081DD
:1009C0008E7F808380818D7F808388E48093B800D0
:1009D00085E48093BC000895CF93DF9391E09093DA
:1009E000DB0A8823B9F0C091B800D091BA00809199
:1009F000BC008A7B8093BC0060E084E10E94B4026A
:100A000060E085E10E94B4020E94CE04D093BA0057
:100A1000C093B800DF91CF9108950895E0914D0BF8
:100A200080914C0BE81730F4F0E0EA54F54F8081E8
:100A300090E008958FEF9FEF089590914D0B809176
:100A40004C0B2FEF3FEF981748F4E92FF0E0EA54F2
:100A5000F54F208130E09F5F90934D0BC9010895C1
:100A600080914C0B90914D0B891B990B0895CF925F
:100A7000DF92EF92FF920F931F93CF93DF937C014E
:100A8000CB018A012091B50A222389F0EB016B0189
:100A9000C40ED51ECC15DD0569F06991D701ED9125
:100AA000FC910190F081E02DC7011995F3CF642FDF
:100AB0000E94A704C801DF91CF911F910F91FF9071
:100AC000EF90DF90CF900895CF93DF931F92CDB733
:100AD000DEB769832091B50A2223F9F020914A0BF1
:100AE000203258F021E030E0FC013383228390E093
:100AF00080E00F90DF91CF91089580914B0BE82F0C
:100B0000F0E0EB56F54F998190838F5F80934B0B0C
:100B100080934A0B81E090E0ECCF61E0CE0101963A
:100B20000E94A704F7CFCF92DF92EF92FF920F932C
:100B30001F93CF93DF93D62F672FFC01C48181E0F1
:100B40008093B50AC093940A10924B0B10924A0BF3
:100B500084E99CE00E9464056D2F84E99CE00E947A
:100B60006405D0914A0BD13208F092C00E94130361
:100B70006B017C018091200B811165C082E0809324
:100B8000200B81E08093220B8FEF80931F0B10923C
:100B9000440BD093430BA5E9BAE0E3E2FBE080E02D
:100BA000D81385C01092450B8091450BCC0FC82BF4
:100BB000C093450B8091210B813009F07CC01092CD
:100BC000210B0E9413036B017C018091450B8093E4
:100BD000BB008091D70A9091D80AA091D90AB09110
:100BE000DA0A892B8A2B8B2B99F00E941303009130
:100BF000D70A1091D80A2091D90A3091DA0A6C19D3
:100C00007D098E099F090617170728073907E0F1A4
:100C10008091BC0083FDD9CF85EC8093BC000E94FD
:100C200013036B017C018091200B823009F445C0D5
:100C300080911F0B8F3F61F180911F0B803241F13A
:100C400080911F0B25C08091D70A9091D80AA0915E
:100C5000D90AB091DA0A892B8A2B8B2B09F48ACF17
:100C60000E9413030091D70A1091D80A2091D90A43
:100C70003091DA0A6C197D098E099F09061717074A
:100C80002807390708F076CF8091D60A0E94EC0435
:100C900010924B0B10924A0B1092B50ADF91CF9134
:100CA0001F910F91FF90EF90DF90CF9008959D914D
:100CB00091938F5F75CF85EEB0CF8091D70A9091D9
:100CC000D80AA091D90AB091DA0A892B8A2B8B2BEA
:100CD00009F4A9CF0E9413030091D70A1091D80AF2
:100CE0002091D90A3091DA0A6C197D098E099F0981
:100CF000061717072807390708F095CFC5CFCF93F8
:100D0000DF9300D000D01F921F92CDB7DEB798E0DE
:100D1000E4E2F2E0DE01119601900D929A95E1F77E
:100D20009091A80C961710F46FEF690F70E0660FA2
:100D3000771F21E030E02C0F3D1F620F731FFB0176
:100D40006081860F8068682F70E080EA9CE02896BA
:100D50000FB6F894DEBF0FBECDBFDF91CF910C94DC
:100D6000930561E070E080EA9CE00E9493058BE3CC
:100D70009FE10197F1F78091A90C882321F060E0B1
:100D800080E00C947F06089570E070640E949305E3
:100D900081E090E008950F931F93CF93DF938B0131
:100DA00098E0899FB00111246064062E000C770B37
:100DB00080EA9CE00E949305E801085F1F4F69915B
:100DC00080EA9CE00E94C4060C171D07C1F7DF9162
:100DD000CF911F910F910895089590E080E00895BC
:100DE0008F929F92AF92BF92CF92DF92EF92FF923B
:100DF0000F931F93CF93DF938C016B0187EF9BE0E1
:100E00000E94CB03181619062CF487EF9BE00E9472
:100E1000A903F4CF8FB7F8948090500B9090510BAA
:100E2000A090520BB090530B8FBF7801D0E0C0E080
:100E300021E0C21AD108CC15DD0510F52FB7F894C2
:100E40008091500B9091510BA091520BB091530B8C
:100E50002FBF88199909AA09BB098C3D9540A105A6
:100E6000B10570F487EF9BE00E94A9038F3F19F34F
:100E70002196F70181937F018A3011F08D30D9F6E8
:100E8000C00FD11F1882DF91CF911F910F91FF905A
:100E9000EF90DF90CF90BF90AF909F908F9008958C
:100EA0009B01AC01E091070CF091080C82E080837B
:100EB000211581EE380741055105E9F160E079E03F
:100EC0008DE390E00E94331B215031094109510903
:100ED0005695479537952795E091030CF091040CB2
:100EE0001082E091050CF091060C208310920F0CFB
:100EF000E0910B0CF0910C0C86E08083E091090CE2
:100F0000F0910A0C808180618083E091090CF0915E
:100F10000A0C808188608083E091090CF0910A0CB2
:100F2000808180688083E091090CF0910A0C8081B7
:100F30008F7D80830895E091070CF091080C10825A
:100F400020E1CACF6115710579F0FB010190002005
:100F5000E9F73197AF01461B570BDC01ED91FC918E
:100F60000280F381E02D199490E080E00895CF9302
:100F7000DF93EB01BC0187EF9BE00E94A207BE015B
:100F800090E080E0DF91CF910C94380360E080E046
:100F90000E947F066EEE72E080EA9CE00E94A2074B
:100FA00061E080E00E947F0680918F0A9091900A14
:100FB00067EB72E0892B11F46EEA72E080EA9CE044
:100FC0000E94A20762E080E00E947F0680918F0A63
:100FD0009091900A69EC72E0019711F460EC72E074
:100FE00080EA9CE00E94A20763E080E00E947F0606
:100FF00080918F0A9091900A60EE72E0029711F44E
:1010000062ED72E080EA9CE00C94A2078F929F92BE
:10101000AF92BF920F931F93CF93DF93CDB7DEB7FD
:10102000A1970FB6F894DEBF0FBECDBF19A2423014
:1010300008F44AE08E010F5D1F4F842E912CB12CD5
:10104000A12CA50194010E94331BE62FB901CA010E
:10105000EA3044F5E05DD801EE938D01232B242B7B
:10106000252B79F790E080E0109769F0FD01019061
:101070000020E9F73197AF014A1B5B0BBD0180EA05
:101080009CE00E946D03A1960FB6F894DEBF0FBEE0
:10109000CDBFDF91CF911F910F91BF90AF909F90E7
:1010A0008F900895E95CD7CFAF92BF92CF92DF9235
:1010B000EF92FF920F931F93CF93DF936C017B010D
:1010C000FC0101900020E9F731978F01081B190BF3
:1010D000EB0109900020E9F72197C61BD70BC80147
:1010E0008C0F9D1F45970CF447C05601C5018C1904
:1010F0009D098017910744F4F50161915F0180EA31
:101100009CE00E94C406F2CFD12CC12C84E190E077
:101110009C01201B310B89018091580B9091590B38
:10112000C016D1068CF48C0D9D1DBE010E941F1BA4
:10113000F701E80FF91F608180EA9CE00E94C40675
:101140003FEFC31AD30AE8CF0196BE010E941F1BCE
:101150009093590B8093580B66E970E080E090E023
:10116000DF91CF911F910F91FF90EF90DF90CF9083
:10117000BF90AF900C943803B60180EA9CE00E94C7
:10118000A207B70180EA9CE0DF91CF911F910F91F8
:10119000FF90EF90DF90CF90BF90AF900C94A2079C
:1011A000CF92DF92EF92FF926C01990FEE08FF0849
:1011B000F7FE16C06DE270E480EA9CE00E949305A1
:1011C00066277727CB016C197D098E099F094AE0B4
:1011D0000E9406080196FF90EF90DF90CF9008954F
:1011E0004AE0C701B601FF90EF90DF90CF900C94DA
:1011F0000608CF93DF93EC0160E088E00E947F0651
:10120000CE010E94D008D093820AC093810A8FE059
:1012100090E09093920A8093910ADF91CF91089584
:10122000CF93DF93EC0160E089E00E947F06CE015E
:101230000E94D00880918D0A90918E0A8232944249
:1012400069F580917F0A9091800A81309105A9F417
:1012500090938C0A80938B0AD0930102C093000272
:1012600083E190E09093920A8093910A10928E0A03
:1012700010928D0ADF91CF910895D0938A0AC0937E
:10128000890A81E190E09093920A8093910A81E02B
:1012900090E09093800A80937F0AECCFD0938A0AE3
:1012A000C093890A80E190E09093920A8093910A1A
:1012B000E1CFCF93DF93EC0160E088E00E947F06EE
:1012C000CE010E94D008D093880AC093870A8FE08D
:1012D00090E09093920A8093910ADF91CF910895C4
:1012E000CF93DF93EC0160E087E00E947F06CE01A0
:1012F0000E94D008D093860AC093850A8EE090E0C1
:101300009093920A8093910ADF91CF910895CF93A1
:10131000DF93EC0160E086E00E947F06CE010E9430
:10132000D008D093840AC093830A8DE090E0909314
:10133000920A8093910ADF91CF910895CF93DF9322
:10134000CDB7DEB765970FB6F894DEBF0FBECDBF41
:1013500044E150E0BC01CE0101960E94711B1D8A40
:10136000BE016F5F7F4F80EA9CE00E94A2076596F6
:101370000FB6F894DEBF0FBECDBFDF91CF910895B9
:1013800085ED8093BC008091D70A9091D80AA091F6
:10139000D90AB091DA0A0796A11DB11D23E0B695CE
:1013A000A795979587952A95D1F72091BC0024FDA4
:1013B00003C01092200B08954091D70A5091D80A8B
:1013C0006091D90A7091DA0A452B462B472B69F3B5
:1013D0000097A105B10541F02AE22A95F1F700C076
:1013E0000197A109B109E1CF8091D60A0C94EC04D0
:1013F000CF93DF93CDB7DEB7C054D1090FB6F894C1
:10140000DEBF0FBECDBF80918D0A90918E0A70E035
:1014100060E08232944229F588EF92E00E94B7079B
:1014200060E470E0CE0101960E94F0066EEF72E07B
:10143000CE0101960E94801B009749F0BC016B5FB2
:101440007F4F46E050E084E093E00E94711BC05C57
:10145000DF4F0FB6F894DEBF0FBECDBFDF91CF9147
:1014600008958BE093E00E94B70766E070E084E0A7
:1014700093E00E94F006EBCFCF92DF92EF92FF92C3
:101480000F931F93CF93DF93CDB7DEB7C45AD10923
:101490000FB6F894DEBF0FBECDBF8091910A909138
:1014A000920A009709F030C00E94C60786E00E94A9
:1014B0008B02892B11F00C94D6168091930A81111E
:1014C00095C4E091910AF091920AE531F10508F096
:1014D0008AC48827E159F54F8F4F0C94551BDD0EB8
:1014E000900FE80FC00F8210A811E2110A12921299
:1014F000BA1218133713A113EB1335147F14C91440
:101500006215BA15DF1547158130910509F041C004
:1015100060E080E00E947F066BE475E080EA9CE07A
:101520000E94A20761E080E00E947F0680918F0AFE
:101530009091900A63E273E0892B11F461E173E00A
:1015400080EA9CE00E94A20762E080E00E947F06A1
:1015500080918F0A9091900A64E473E0019711F4EE
:1015600065E373E080EA9CE00E94A20763E080E00C
:101570000E947F0680918F0A9091900A63E673E043
:10158000029711F463E573E080EA9CE00E94A207F1
:101590008DCF82309105D1F460E080E00E947F061B
:1015A00068E575E080EA9CE00E94A20761E080E0C7
:1015B0000E947F0680918F0A9091900A67E873E0FD
:1015C000892B09F023C163E773E020C183309105C3
:1015D000F1F560E080E00E947F066DE675E080EA4C
:1015E0009CE00E94A20761E080E00E947F0680915B
:1015F0008F0A9091900A69EB73E0892B11F460EBEC
:1016000073E080EA9CE00E94A20762E080E00E9412
:101610007F0680918F0A9091900A6CEC73E001979D
:1016200011F462EC73E080EA9CE00E94A20763E0A0
:1016300080E00E947F0680918F0A9091900A60EE70
:1016400073E0029709F0A0CF66ED73E09DCF843080
:101650009105D1F560E080E00E947F066DE775E0BE
:1016600080EA9CE00E94A20710E000E05AE0C52E4C
:10167000D12C80918F0A9091900A800F911FB60112
:101680000E941F1B7C0161E0600F80E00E947F06CA
:1016900064E578E00130110511F06DEA73E080EA4D
:1016A0009CE00E94A207F701EE0FFF1FE45DFD4FD3
:1016B0006081718180EA9CE00E94A2070F5F1F4F4A
:1016C00003301105B1F6F2CE8530910509F043C023
:1016D00060E080E00E947F0662E975E080EA9CE0BD
:1016E0000E94A20761E080E00E947F0680918F0A3D
:1016F0009091900A6DEF73E0892B11F46AEE73E01C
:1017000080EA9CE00E94A20762E080E00E947F06DF
:1017100080918F0A9091900A0197C1F46FE975E06A
:101720008FE894E00E94540863E080E00E947F0606
:1017300080918F0A9091900A6FEF75E0029709F4FB
:1017400043C18FE396E00E949E09B0CE88ED95E0FC
:101750000E949E09E9CF86309105F1F560E080E0B6
:101760000E947F066EE676E080EA9CE00E94A20777
:1017700061E080E00E947F0680918F0A9091900A3C
:1017800065E274E0892B11F460E174E080EA9CE08A
:101790000E94A20762E080E00E947F0680918F0A8B
:1017A0009091900A6BE474E0019711F46AE374E09D
:1017B00080EA9CE00E94A20763E080E00E947F062E
:1017C00080918F0A9091900A62E876E0029709F47E
:1017D000FBC087EB96E0B7CF87309105E9F560E075
:1017E00080E00E947F066BED76E080EA9CE00E943C
:1017F000A20761E080E00E947F0680918F0A9091AD
:10180000900A6CE574E0892B09F4DDCE80EA9CE057
:101810000E94A20762E080E00E947F0680918F0A0A
:101820009091900A6EEA73E0019711F46BE973E00E
:1018300080EA9CE00E94A20763E080E00E947F06AD
:1018400080918F0A9091900A6BE973E0029709F4F6
:101850009BCE6EEA73E098CE88309105E1F560E0AA
:1018600080E00E947F0660EF76E080EA9CE00E94C4
:10187000A20761E080E00E947F0680918F0A90912C
:10188000900A6CE774E0892B11F467E674E080EA53
:101890009CE00E94A20762E080E00E947F068091A7
:1018A0008F0A9091900A6EEA73E0019711F46FE845
:1018B00074E080EA9CE00E94A20763E080E00E945E
:1018C0007F0680918F0A9091900A64E578E00297F4
:1018D00009F0BFCF59CE8A309105D1F560E080E0A4
:1018E0000E947F0664E077E080EA9CE00E94A20705
:1018F00010E000E035E0C32ED12C80918F0A90914A
:10190000900A800F911FB6010E941F1B7C0161E0AD
:10191000600F80E00E947F0663E578E001301105EA
:1019200011F06CEA73E080EA9CE00E94A207F701E4
:10193000EE0FFF1FE05CFD4F6081718180EA9CE04B
:101940000E94A2070F5F1F4F03301105B1F6AECD05
:101950008B30910509F045C060E080E00E947F0671
:1019600069E177E080EA9CE00E94A20761E080E004
:101970000E947F0680918F0A9091900A6DE974E031
:10198000892B11F461E974E080EA9CE00E94A207CF
:1019900062E080E00E947F0680918F0A9091900A19
:1019A0000197B9F46BE277E08FE894E00E94540865
:1019B00063E080E00E947F0680918F0A9091900AF8
:1019C000029761F462E877E08FE894E00E9454089F
:1019D0006DCD8FE597E00E949E09EACF89EA97E0F6
:1019E000B2CE84319105E1F560E080E00E947F068F
:1019F00062EC77E08DEC99E00E94540861E080E0B1
:101A00000E947F0680918F0A9091900A6CEB74E09F
:101A1000892B11F469EA74E080EA9CE00E94A20735
:101A200062E080E00E947F0680918F0A9091900A88
:101A300063EE74E0019711F46FEC74E080EA9CE0CF
:101A40000E94A20763E080E00E947F0680918F0AD7
:101A50009091900A6FE874E0029709F0FACE94CD65
:101A60008C30910581F510E000E09AE0C92ED12C70
:101A700080918F0A9091900A800F911FB6010E9469
:101A80001F1B7C0161E0600F80E00E947F0667E021
:101A900078E00130110511F069EA73E080EA9CE01A
:101AA0000E94A207F701EE0FFF1FE65BFD4F60816A
:101AB000718180EA9CE00E94A2070F5F1F4F0330F4
:101AC0001105B1F6F3CC8D30910581F510E000E001
:101AD000BAE0CB2ED12C80918F0A9091900A800F82
:101AE000911FB6010E941F1B7C0161E0600F80E026
:101AF0000E947F066EE078E00130110511F068EA7F
:101B000073E080EA9CE00E94A207F701EE0FFF1F3E
:101B1000E65BFD4F6081718180EA9CE00E94A20734
:101B20000F5F1F4F03301105B1F6C0CC8E30910509
:101B300081F510E000E07AE0C72ED12C80918F0A69
:101B40009091900A800F911FB6010E941F1B7C018B
:101B500061E0600F80E00E947F0666E178E001307E
:101B6000110511F067EA73E080EA9CE00E94A20789
:101B7000F701EE0FFF1FE65BFD4F6081718180EA88
:101B80009CE00E94A2070F5F1F4F03301105B1F6C2
:101B90008DCC8F30910581F510E000E05AE0C52E24
:101BA000D12C80918F0A9091900A800F911FB601DD
:101BB0000E941F1B7C0161E0600F80E00E947F0695
:101BC0006FE178E00130110511F066EA73E080EA18
:101BD0009CE00E94A207F701EE0FFF1FE65BFD4F9E
:101BE0006081718180EA9CE00E94A2070F5F1F4F15
:101BF00003301105B1F65ACC8031910561F561E0F1
:101C000080E00E947F0669E278E080EA9CE00E9422
:101C1000A20762E080E00E947F0680918F0A909187
:101C2000900A6CE075E0892B11F467EF74E080EAAC
:101C30009CE00E94A20763E080E00E947F06809102
:101C40008F0A9091900A66E375E0019709F09CCCA9
:101C500061E275E099CC8131910509F040C060E006
:101C600080E00E947F066DE378E080EA9CE00E94BD
:101C7000A20710E000E03CE0C32ED12C80918F0A37
:101C80009091900A800F911FB6010E941F1B7C014A
:101C900061E0600F80E00E947F0661E578E001303E
:101CA000110511F06AEA73E080EA9CE00E94A20745
:101CB000F701EE0FFF1FE25AFD4F6081718180EA4C
:101CC0009CE00E94A2076BEA73E080EA9CE00E941D
:101CD000A2070F5F1F4F0330110581F6E7CB82315A
:101CE000910509F059C060E080E00E947F0661E143
:101CF0007AE080EA9CE00E94A20780910202909123
:101D000003028A30910554F469E073E080EA9CE0B4
:101D10000E94A20780910202909103020E94D008C3
:101D200064E478E080EA9CE00E94A20710E000E012
:101D300094E0C92ED12C80918F0A9091900A800F47
:101D4000911FB6010E941F1B7C0161E0600F80E0C3
:101D50000E947F0666E178E00130110511F067EA24
:101D600073E080EA9CE00E94A207F701EE0FFF1FDC
:101D7000EA58FD4F6081718180EA9CE00E94A207D1
:101D80006BEA73E080EA9CE00E94A2070F5F1F4F9E
:101D90000330110581F68ACB439709F087CB8091F8
:101DA0008B0A90918C0A019709F033CF61E089E0AA
:101DB0000E947F066EEA73E028CF80918F0A90918F
:101DC000900A8130910509F499C08230910509F497
:101DD0009EC0892B41F40E94B10681E090E090936F
:101DE000920A8093910A81E08093930A8DE00E9489
:101DF0008B02892B51F580917E0A81110C94DA16A1
:101E00008091910A9091920A892BF9F00E94B10673
:101E10001092920A1092910A81E080937E0A68ECF7
:101E200070E080E090E00E94380360E086E10E946C
:101E3000B4021092800A10927F0A10928E0A1092B9
:101E40008D0A10928C0A10928B0A89E00E948B02F4
:101E5000892B11F00C940E1780917D0A811118C006
:101E60008091910A9091920A8430910509F0A5C75A
:101E700080918F0A9091900A09966AE070E00E9422
:101E80001F1B9093900A80938F0A81E080937D0AB4
:101E900088E00E948B02892B11F00C9444178091EA
:101EA0007C0A811118C08091910A9091920A843025
:101EB000910509F0B7C780918F0A9091900A019619
:101EC0006AE070E00E941F1B9093900A80938F0A33
:101ED00081E080937C0A81E080934E0BCC55DF4FEC
:101EE0000FB6F894DEBF0FBECDBFDF91CF911F912B
:101EF0000F91FF90EF90DF90CF9008950E94B10670
:101F000085E090E09093920A8093910A6CCF0E94B2
:101F1000B1068BE090E09093920A8093910A63CF90
:101F200080918F0A9091900A8130910579F08230EA
:101F30009105C9F0892B09F056CF0E94B10683E0C4
:101F400090E09093920A8093910A4DCF0E94B1063F
:101F500082E090E09093920A8093910A61E086E19A
:101F60000E94B40240CF0E94B10684E090E09093BA
:101F7000920A8093910A61E086E10E94B40233CF15
:101F800080918F0A9091900A8130910579F082308A
:101F90009105A9F0892B09F026CF0E94B10660E8CF
:101FA00075E280E090E00E9450071DCF0E94B106CC
:101FB00060E07BE480E090E00E94500714CF0E9434
:101FC000B10660E071EE80E090E00E9450070BCF18
:101FD00080918F0A9091900A009741F097FD03CF6E
:101FE00003970CF000CF0E94B106FDCE0E94B1060F
:101FF00070E060E087E598E00E94B70762E270E079
:102000008E010F5F1F4FC8010E94F006898188234F
:1020100009F44DC042E150E0B801CE018F579F4F07
:102020000E94711BF80101900020E9F73197E01B35
:10203000F10B7397B0F142E150E0BE016D5E7F4F4E
:10204000CE018D569F4F0E94711B62E081E00E947D
:102050007F06BE016F577F4F80EA9CE00E94A20777
:1020600063E081E00E947F06BE016D567F4F80EAEB
:102070009CE00E94A207CF57DF4F1882C158D04082
:10208000CD56DF4F1882C359D040198261E083E1F9
:102090000E947F066FE578E080EA9CE00E94A2073C
:1020A000A2CECD56DF4F1882C359D040CECF62E0CA
:1020B00080E00E947F0661E678E080EA9CE00E9472
:1020C000A20765E678E080EA9CE00E94A2076AE643
:1020D00078E080EA9CE00E94A20763E081E00E9431
:1020E0007F0668E778E080EA9CE00E94A20761E052
:1020F00083E10E947F066CE878E080EA9CE00E9421
:10210000A20771CEE0918F0AF091900AEA30F105B2
:1021100008F069CE8827E057FF4E8F4F0C94551B6F
:1021200072118D119A10B510D010EB1006112111FB
:102130003C1157110E94B1066AE070E08EE898E009
:102140000E94B70760ED77E080E090E00E943803DE
:102150006AE070E086E998E00E94B70768EB7BE0F0
:1021600080E090E00E9438033ECE0E94B1066AE013
:1021700070E08FE998E00E94B70768EE73E080E0B6
:1021800090E00E9438036AE070E086E998E00E94DF
:10219000B70768EB7BE080E090E00E94380323CE35
:1021A0000E94B1066AE070E087EA98E00E94B707F3
:1021B00068EE73E080E090E00E9438036AE070E02F
:1021C00086E998E00E94B70768EB7BE080E090E04A
:1021D0000E94380308CE0E94B1066AE070E08FEAE0
:1021E00098E00E94B70768EE73E080E090E00E94FC
:1021F00038036AE070E086E998E00E94B70768EB70
:102200007BE080E090E00E943803EDCD0E94B106B3
:102210006AE070E087EB98E00E94B70768EE73E031
:1022200080E090E00E9438036AE070E086E998E080
:102230000E94B70768EB7BE080E090E00E943803E3
:10224000D2CD0E94B1066AE070E08FEB98E00E9468
:10225000B70768EE73E080E090E00E9438036AE020
:1022600070E086E998E00E94B70768EB7BE080E0C9
:1022700090E00E943803B7CD0E94B1066AE070E09A
:1022800087EC98E00E94B70768EE73E080E090E08A
:102290000E9438036AE070E086E998E00E94B70780
:1022A00068EB7BE080E090E00E9438039CCD0E94C8
:1022B000B1066AE070E08FEC98E00E94B70768EE24
:1022C00073E080E090E00E9438036AE070E086E905
:1022D00098E00E94B70768EB7BE080E090E00E9406
:1022E000380381CD0E94B1066AE070E087ED98E086
:1022F0000E94B70768EE73E080E090E00E94380328
:102300006AE070E086E998E00E94B70768EB7BE03E
:1023100080E090E00E94380366CD0E94B1066AE03A
:1023200070E08FED98E00E94B70768EE73E080E000
:1023300090E00E9438036AE070E086E998E00E942D
:10234000B70768EB7BE080E090E00E9438034BCD5C
:1023500080918F0A9091900A81309105A9F0823086
:10236000910509F1892B09F03ECD0E94B10686E066
:1023700090E09093920A8093910A60E071EE80E081
:1023800090E00E9450072FCD0E94B10689E090E0B6
:102390009093920A8093910A60E071EE80E090E061
:1023A0000E94500720CD0E94B1068AE090E09093F1
:1023B000920A8093910A60E071EE80E090E00E94C2
:1023C000500711CD80918F0A9091900A813091052C
:1023D00079F082309105A9F0892B09F004CD0E9493
:1023E000B10687E090E09093920A8093910AFBCC2B
:1023F0000E94B10688E090E09093920A8093910A3F
:10240000F2CC0E94B10689E090E09093920A80930A
:10241000910AE9CC80918F0A9091900A009731F04F
:1024200097FDE1CC03970CF4DECDDDCC0E94B10624
:1024300070E060E087EE98E00E94B7076AE070E025
:10244000CE018F579F4F0E94F00670E060E084EF4E
:1024500098E00E94B70760E870E0CE0101960E9404
:10246000F00662E081E00E947F066DEF78E080EA8E
:102470009CE00E94A20764E079E0CE0101960E94F0
:10248000801B0097D9F1BC016A5F7F4F48E050E0A4
:10249000CE018D569F4F0E94711BC556DF4F18828B
:1024A000CB59D040BE016D567F4F80EA9CE00E9420
:1024B000A20769EA73E080EA9CE00E94A20763E059
:1024C00081E00E947F0663E179E080EA9CE00E945F
:1024D000A207CF57DF4F8881C158D0408823D9F059
:1024E000BE016F577F4F80EA9CE00E94A20769EA15
:1024F00073E080EA9CE00E94A20775CC6AE079E074
:1025000080EA9CE00E94A20761E083E10E947F06CE
:102510006CE878E0D0CF6AE079E080EA9CE00E9445
:10252000A20761CC80918F0A9091900A892B09F0C3
:102530005ACC0E94B1066AE070E08CE199E00E94FA
:10254000B70768EE73E080E090E00E9438036AE02D
:1025500070E086E299E00E94B70768EE73E080E0E1
:1025600090E00E9438036AE070E087E399E00E94FF
:10257000B70739CC80918F0A9091900A81309105EC
:1025800009F182309105C9F1892B09F02CCC0E9408
:10259000B1066AE070E083E499E00E94B70768EE54
:1025A00073E080E090E00E9438036AE070E08EE41F
:1025B00099E00E94B70768EB7BE080E090E00E9422
:1025C000380311CC0E94B1066AE070E083E499E020
:1025D0000E94B70768EE73E080E090E00E94380345
:1025E0006AE070E081E699E00E94B70768EB7BE063
:1025F00080E090E00E943803F6CB0E94B1066AE0CA
:1026000070E083E799E00E94B70768EE73E080E02E
:1026100090E00E9438036AE070E081E699E00E9451
:10262000B70768EB7BE080E090E00E943803DBCBEB
:1026300080918F0A9091900A009731F097FDD3CB4B
:1026400003970CF4D0CCCFCB70E060E08EE799E03C
:102650000E94B70768EE73E080E090E00E943803C4
:1026600070E060E084E899E00E94B707BCCB8091FD
:102670008F0A9091900A8130910539F1823091054D
:1026800099F1892B09F0AFCB0E94F8098CE090E01A
:102690009093920A8093910A60E071EE80E090E05E
:1026A0000E9450070E94B10660E080E00E947F0611
:1026B0006DE879E080EA9CE00E94A20764E073E0A4
:1026C00080EA9CE00E94A2078ECB0E94B10684E1C2
:1026D00090E09093920A8093910A60E071EE80E01E
:1026E00090E00E9450077FCB82E294E290938E0AA2
:1026F00080938D0A81E090E090938C0A80938B0AFE
:102700000E94F8098CE090E09093920A8093910ADD
:1027100060E071EE80E090E00E9450070E94B106F8
:1027200060E080E00E947F066DE879E080EA9CE04E
:102730000E94A20764E073E080EA9CE00E94A20786
:1027400052CBE0918F0AF091900AEA30F10508F03F
:102750004ACB8827E155FC4E8F4F0C94551BB9137B
:10276000BE13C313C813CD13D213D713DC13E11355
:10277000E61390E080E00E94870935CB81E090E08D
:102780000E94870930CB82E090E00E9487092BCB22
:1027900083E090E00E94870926CB84E090E00E94CD
:1027A000870921CB85E090E00E9487091CCB86E059
:1027B00090E00E94870917CB87E090E00E9487098C
:1027C00012CB88E090E00E9487090DCB89E090E071
:1027D0000E94870908CBE0918F0AF091900AEA30B5
:1027E000F10508F000CB8827E750FC4E8F4F0C9482
:1027F000551B031408140D14121417141C1421145F
:1028000026142B14301490E080E00E947009EBCA6B
:1028100081E090E00E947009E6CA82E090E00E94A8
:102820007009E1CA83E090E00E947009DCCA84E08C
:1028300090E00E947009D7CA85E090E00E9470097C
:10284000D2CA86E090E00E947009CDCA87E090E08D
:102850000E947009C8CA88E090E00E947009C3CA4B
:1028600089E090E00E947009BECAE0918F0AF09161
:10287000900AEA30F10508F0B6CA8827ED5BFB4EF6
:102880008F4F0C94551B4D14521457145C14611443
:1028900066146B14701475147A1490E080E00E9432
:1028A0005909A1CA81E090E00E9459099CCA82E0BE
:1028B00090E00E94590997CA83E090E00E9459096C
:1028C00092CA84E090E00E9459098DCA85E090E0A8
:1028D0000E94590988CA86E090E00E94590983CA7B
:1028E00087E090E00E9459097ECA88E090E00E944B
:1028F000590979CA89E090E00E94590974CAE091A7
:102900008F0AF091900AEA30F10508F06CCA882726
:10291000E357FB4E8F4F0C94551B97149C14A11436
:10292000A614AB14B014B514BA14BF14C41490E0B8
:1029300080E00E94100957CA81E090E00E941009CF
:1029400052CA82E090E00E9410094DCA83E090E0F4
:102950000E94100948CA84E090E00E94100943CA0E
:1029600085E090E00E9410093ECA86E090E00E9457
:10297000100939CA87E090E00E94100934CA88E043
:1029800090E00E9410092FCA89E090E00E9410098F
:102990002ACA80918F0A9091900A0097F1F00197CE
:1029A00009F021CA0E94F8090E94B10660E080E0A7
:1029B0000E947F066DE879E080EA9CE00E94A20711
:1029C00064E073E080EA9CE00E94A2078CE090E063
:1029D0009093920A8093910A06CA0E94B106809150
:1029E0008A0A8F938091890A8F938091880A8F93A6
:1029F0008091870A8F938091860A8F938091850AB0
:102A00008F938091840A8F938091830A8F9382E9B8
:102A100099E09F938F938E010F5F1F4F1F930F932A
:102A20000E949A1BF80101900020E9F73197BF013D
:102A3000601B710BC8010E94B70762E087E00E942B
:102A40007F0665EA79E080EA9CE00E94A20780E1C7
:102A500090E09093920A8093910A0E94F8090E9454
:102A6000B10660E080E00E947F066AEA79E080EAD1
:102A70009CE00E94A20764E073E080EA9CE00E9470
:102A8000A2070FB6F894DEBF0FBECDBFACC98091D0
:102A90008F0A9091900A009761F0019709F0A3C9FD
:102AA0000E94B1066AE070E080EC99E00E94B707EE
:102AB0009AC90E94B1066AE070E082EB99E00E9438
:102AC000B70791C90E94B106E0918F0AF091900A70
:102AD000EC30F10508F087C98827EE58FA4E8F4F81
:102AE0000C94551B7E15831588158D159215971519
:102AF0009C15A115A615AB15B015B51581E090E094
:102B00000E94761970C982E090E00E9476196BC924
:102B100083E090E00E94761966C984E090E00E940C
:102B2000761961C985E090E00E9476195CC986E05B
:102B300090E00E94761957C987E090E00E947619CC
:102B400052C988E090E00E9476194DC989E090E072
:102B50000E94761948C98AE090E00E94761943C91C
:102B60008BE090E00E9476193EC98CE090E00E94D4
:102B7000761939C980918F0A9091900A8130910518
:102B8000A1F044F4892B09F02EC990E080E00E9466
:102B9000F90829C98230910569F0039709F023C922
:102BA00083E090E00E94F9081EC981E090E00E9455
:102BB000F90819C982E090E00E94F90814C98091CF
:102BC0008F0A9091900A009741F1019709F00BC983
:102BD00082E294E290938E0A80938D0A0E94B1065D
:102BE00060E080E00E947F066DE879E080EA9CE08A
:102BF0000E94A2070E94F80964E073E080EA9CE06A
:102C00000E94A2078CE090E09093920A8093910A30
:102C10001092800A10927F0AE6C810928C0A1092D5
:102C20008B0A80918A0A8F938091890A8F93809171
:102C3000880A8F938091870A8F938091860A8F9359
:102C40008091850A8F938091840A8F938091830A63
:102C50008F938EEC99E09F938F938E010F5F1F4FA0
:102C60001F930F930E949A1BF80101900020E9F72F
:102C70003197BF01601B710BC8010E94B70768EC58
:102C800070E080E090E00E94380319828091020297
:102C9000909103020FB6F894DEBF0FBECDBF5091E6
:102CA0000102409100023091820A2091810A67E07E
:102CB0008A3091050CF06EC06F9368EE6F935F934E
:102CC0004F933F932F939F938F9382EE99E09F931F
:102CD0008F931F930F930E949A1B0FB6F894DEBF39
:102CE0000FBECDBFF80101900020E9F73197BF0179
:102CF000601B710BC8010E94B70768EC70E080E0B0
:102D000090E00E94380319820E94B10682E294E2A8
:102D100090938E0A80938D0A60E080E00E947F0687
:102D20006AEA79E080EA9CE00E94A2070E94F80922
:102D300064E073E080EA9CE00E94A2076AEA73E024
:102D400080EA9CE00E94A20768EC70E080E090E0DE
:102D50000E94380361E080E00E947F066DE07AE027
:102D600080EA9CE00E94A20770E060E087E19AE0C0
:102D70000E94B7076CE070E0CE018F579F4F0E9412
:102D8000F006BE016F577F4F80EA9CE00E94A207C9
:102D90000C94F30E6F9368EE6F935F934F933F9392
:102DA0002F939F938F9388EF99E091CF1092930A7E
:102DB0000C94F60E10927E0A48C89C012C503109E2
:102DC0002430310508F454C88A30910541F48091CB
:102DD0008F0A9091900A049665E070E050C88131A6
:102DE000910541F480918F0A9091900A0B966CE0C6
:102DF00070E045C8429749F480918F0A9091900AFB
:102E0000039664E070E00C943F0F80918F0A9091DC
:102E1000900A029663E070E00C943F0F10927D0AD6
:102E20000C94480F9C012C5031092430310508F4D2
:102E300042C88A30910541F480918F0A9091900A9E
:102E4000019665E070E03EC88131910549F48091BA
:102E50008F0A9091900A01966CE070E00C94620FDA
:102E6000429749F480918F0A9091900A019664E00C
:102E700070E00C94620F80918F0A9091900A0196F5
:102E800063E070E00C94620F10927C0A0C946B0F5C
:102E90001F920F920FB60F9211242F933F938F938F
:102EA0009F93AF93BF938091500B9091510BA09142
:102EB000520BB091530B30914F0B23E0230F2D3762
:102EC00058F50196A11DB11D20934F0B8093500B17
:102ED0009093510BA093520BB093530B8091540BD2
:102EE0009091550BA091560BB091570B0196A11DD7
:102EF000B11D8093540B9093550BA093560BB09338
:102F0000570BBF91AF919F918F913F912F910F9050
:102F10000FBE0F901F90189526E8230F0296A11D53
:102F2000B11DD2CF1F920F920FB60F9211240BB684
:102F30000F922F933F934F935F936F937F938F9352
:102F40009F93AF93BF93EF93FF938AE59BE00E941B
:102F5000EB03FF91EF91BF91AF919F918F917F9183
:102F60006F915F914F913F912F910F900BBE0F90FA
:102F70000FBE0F901F9018951F920F920FB60F92D1
:102F800011240BB60F922F938F939F93EF93FF9380
:102F9000E0916A0BF0916B0B8081E091700BF091E6
:102FA000710B82FD1DC090818091730B8F5F8F73B9
:102FB0002091740B821741F0E091730BF0E0E65A18
:102FC000F44F958F8093730BFF91EF919F918F91A9
:102FD0002F910F900BBE0F900FBE0F901F90189562
:102FE0008081F2CF1F920F920FB60F9211240BB671
:102FF0000F922F933F934F935F936F937F938F9392
:103000009F93AF93BF93EF93FF9387EF9BE00E9453
:10301000EB03FF91EF91BF91AF919F918F917F91C2
:103020006F915F914F913F912F910F900BBE0F9039
:103030000FBE0F901F9018951F920F920FB60F9210
:1030400011240BB60F922F938F939F93EF93FF93BF
:10305000E091070CF091080C8081E0910D0CF0914B
:103060000E0C82FD1DC090818091100C8F5F8F73BC
:103070002091110C821741F0E091100CF0E0E95022
:10308000F44F958F8093100CFF91EF919F918F914A
:103090002F910F900BBE0F900FBE0F901F901895A1
:1030A0008081F2CF1F920F920FB60F9211240BB6B0
:1030B0000F922F933F934F935F936F937F938F93D1
:1030C0009F93AF93BF93EF93FF938091B900887F55
:1030D000803609F44DC008F040C0883209F4A9C018
:1030E00028F5803109F49DC0C8F4882309F4FBC099
:1030F000883009F496C0FF91EF91BF91AF919F91F5
:103100008F917F916F915F914F913F912F910F9090
:103110000BBE0F900FBE0F901F901895883109F4C9
:1031200088C0803241F780931F0B14C0803409F4AB
:103130009DC040F48033B9F38833E9F680931F0BC8
:1031400085ECB0C0803509F485C0883509F496C097
:10315000883489F60E94C009CECF883909F48CC022
:1031600038F5883729F050F4883611F0803719F691
:1031700083E08093200B10921E0B57C0883809F40F
:103180007BC0803919F0803809F0B5CF80911E0BD3
:10319000803208F071C0E0911E0B81E08E0F8093A9
:1031A0001E0B8091BB00F0E0E250F54F80833DC0E4
:1031B000803B39F0E0F4803A09F479C0883A09F0AC
:1031C0009ACF84E08093200B1092FD0A1092FC0AA3
:1031D000E091480BF091490B19958091FC0A8111FF
:1031E0000FC081E08093FC0A1092DC0A09C0803C89
:1031F00009F4A6CF883C09F4A3CF883B09F07BCF24
:10320000E091FD0A81E08E0F8093FD0AF0E0E45228
:10321000F54F80818093BB009091FD0A8091FC0A5C
:1032200029C08091450B8093BB0085EC8093BC0046
:1032300062CF9091440B8091430B981758F5E09121
:10324000440B81E08E0F8093440BF0E0ED5DF44F72
:103250008081E9CFE091440B81E08E0F8093440B95
:103260008091BB00F0E0ED5DF44F80839091440BC2
:103270008091430B9817C8F285E8D8CFE091440BB2
:1032800081E08E0F8093440B8091BB00F0E0ED5DF8
:10329000F44F80838091220B81115CCF81E0809379
:1032A000210B84EA8093BC001092200B24CF85EC84
:1032B0008093BC001092200B80911E0B803230F462
:1032C000E0911E0BF0E0E250F54F108260911E0B72
:1032D00070E0E091460BF091470B8EEF9AE0199564
:1032E00010921E0B08CF10921F0B34CFCF93DF9399
:1032F000EC0160E085E00E947F06CE010E94D008CC
:10330000D0930302C093020282E190E09093920A6C
:103310008093910ADF91CF910895EAE5FBE0138253
:10332000128288EE93E0A0E0B0E084839583A683C8
:10333000B78322E832E0318320834DEC50E055879B
:1033400044874CEC50E05787468748EC50E0518B5F
:10335000408B49EC50E0538B428B4AEC50E0558B4C
:10336000448B4EEC50E0578B468B118E128E138E91
:10337000148EE7EFFBE01382128284839583A68389
:10338000B7833183208325EC30E03587248724EC14
:1033900030E03787268720EC30E0318B208B21EC22
:1033A00030E0338B228B22EC30E0358B248B26EC03
:1033B00030E0378B268B118E128E138E148EE4E93B
:1033C000FCE01382128284839583A683B78384E909
:1033D00092E091838083E0EAFCE01382128286EA25
:1033E00092E091838083118687E2848384E18287DF
:1033F00084E083870895789484B5826084BD84B521
:10340000816084BD85B5826085BD85B5816085BDDF
:1034100080916E00816080936E0010928100809197
:10342000810082608093810080918100816080931F
:103430008100809180008160809380008091B10044
:1034400084608093B1008091B00081608093B0006F
:1034500080919100826080939100809191008160C1
:103460008093910080919000816080939000809182
:10347000A10082608093A1008091A100816080936F
:10348000A1008091A00081608093A0008091210123
:1034900082608093210180912101816080932101CC
:1034A0008091200181608093200180917A00846066
:1034B00080937A0080917A00826080937A00809174
:1034C0007A00816080937A0080917A00806880938E
:1034D0007A001092C10010924D0B10924C0B10927A
:1034E0004B0B10924A0B0E94CE048BE693E0909314
:1034F000490B8093480B8CE693E09093470B8093A5
:10350000460B80E18093A50C8091AB0C823018F0C3
:1035100098E19093A50C8093A80C8BE39DE0019714
:10352000F1F76091A50C606270E080EA9CE00E9477
:1035300093058BE496E40197F1F76091A50C606226
:1035400070E080EA9CE00E94930583E592E0019799
:10355000F1F76091A50C606270E080EA9CE00E9447
:1035600093056091A50C606270E080EA9CE00E9487
:10357000930584E08093A60C6CE070E080EA9CE008
:103580000E9493050E94B10682E08093A70C66E03A
:1035900070E080EA9CE00E94930562E070E080EABF
:1035A0009CE00E9493058BE39FE10197F1F762E0B5
:1035B0008DE00E94E20262E086E00E94E20262E0A8
:1035C00089E00E94E20262E088E00E94E20262E09A
:1035D0008AE00E94E20262E087E00E94E2020E942A
:1035E000C60761E086E10E94E20260E086E10E9497
:1035F000B40260E071EE80E090E00E9450076CE160
:1036000072E083E00E94CB0664E172E084E00E94F5
:10361000CB066CE072E085E00E94CB0664E072E0CD
:1036200086E00E94CB0680914E0B811105C00E945E
:103630003C0A0E947A04F7CF10924E0BFACF97FB08
:10364000072E16F4009407D077FD09D00E945D1B69
:1036500007FC05D03EF4909581959F4F0895709595
:1036600061957F4F0895A1E21A2EAA1BBB1BFD0195
:103670000DC0AA1FBB1FEE1FFF1FA217B307E40751
:10368000F50720F0A21BB30BE40BF50B661F771FA9
:10369000881F991F1A9469F7609570958095909589
:1036A0009B01AC01BD01CF010895EE0FFF1F881FE4
:1036B0008BBF0790F691E02D1994AA1BBB1B51E11B
:1036C00007C0AA1FBB1FA617B70710F0A61BB70B92
:1036D000881F991F5A95A9F780959095BC01CD0137
:1036E0000895FB01DC014150504048F001900D92DB
:1036F0000020C9F701C01D9241505040E0F70895E5
:10370000FB0151915523A9F0BF01DC014D914517F3
:103710004111E1F759F4CD010190002049F04D919C
:1037200040154111C9F3FB014111EFCF81E090E059
:10373000019708950F931F93CF93DF93CDB7DEB713
:103740002E970FB6F894DEBF0FBECDBF0E891F892E
:1037500086E08C831A8309838FEF9FE79E838D8396
:10376000AE01465E5F4F688D798DCE0101960E9455
:10377000CA1B2F813885020F131FF80110822E9665
:103780000FB6F894DEBF0FBECDBFDF91CF911F9172
:103790000F9108952F923F924F925F926F927F9276
:1037A0008F929F92AF92BF92CF92DF92EF92FF9251
:1037B0000F931F93CF93DF9300D000D000D01F92C0
:1037C0001F92CDB7DEB77C013B018A01FC01178255
:1037D0001682838181FFDDC1CE0101965C01F70174
:1037E0009381F30193FD859193FF81913F0188239C
:1037F00009F453C1853239F493FD859193FF81918A
:103800003F01853229F4B70190E00E94E21DE7CF25
:10381000912C212C312CFFE1F31538F08B3211F172
:1038200090F4803209F1833229F137FC3CC020ED5D
:10383000280F2A3050F536FE20C08AE0989E200DD1
:103840001124922E06C08D3291F0803371F7689466
:1038500030F8F30193FD859193FF81913F01811130
:10386000DACF21C0689431F8689432F8F2CF6894C6
:1038700033F8EFCF689434F8ECCFEAE02E9E200DB9
:103880001124222E689435F8E4CF8E3229F436FCC8
:1038900004C1689436F8DDCF8C3619F4689437F893
:1038A000D8CF8836B1F2982F9F7D95549330E0F0B1
:1038B0008336A1F18337C1F1833509F063C0280154
:1038C000F2E04F0E511CF801C080D180692D70E0EC
:1038D00036FC02C06FEF7FEFC6010E94CC1D4C0189
:1038E000689437F882010AC00C5F1F4FFFE3F98329
:1038F00088248394912C6501E89437F833FE2DC019
:10390000522C8114910471F5552009F468CFB70148
:1039100080E290E00E94E21D5A94F6CFF801808187
:1039200089830E5F1F4FE4CF2801F2E04F0E511C38
:10393000F801C080D180692D70E036FC02C06FEFC5
:103940007FEFC6010E94D71D4C018201D5CFB70180
:1039500080E290E00E94E21D2A942814190409F0E4
:10396000B0F7CECFF60137FC859137FE81916F011C
:10397000B70190E00E94E21D51105A94F1E08F1AB5
:103980009108BFCF843619F0893609F077C0F80165
:1039900037FE6BC060817181828193810C5F1F4F04
:1039A000F32DFF763F2E97FF09C090958095709577
:1039B00061957F4F8F4F9F4F689437F82AE030E032
:1039C000A5010E94121EC82ECA188C2C432C36FE4C
:1039D0000CC0E89440F8C91440F434FE05C032FC31
:1039E00003C0F32DFE7E4F2E892C44FEAAC0FE019B
:1039F000EC0DF11D8081803309F09CC0242D297EBF
:103A0000422E842D8870582E43FCAAC040FEA4C0CC
:103A10009C2C821418F42C0C922C981844FEA6C0EE
:103A2000B70180E390E00E94E21D42FE09C088E7F2
:103A300090E041FE02C088E590E0B7010E94E21DDF
:103A4000C91408F49FC0CA94D12C9FEFC91AD90A8F
:103A5000CA0CDB1CF60182916F01B70190E00E9455
:103A6000E21DAC14BD04B1F74FCF60817181072E08
:103A7000000C880B990B0E5F1F4F92CFD32CE8944C
:103A8000D4F82AE030E08537E1F1232D297FD22ECA
:103A90008F36A9F1F0F4883551F1F70186819781CD
:103AA0002B960FB6F894DEBF0FBECDBFDF91CF913E
:103AB0001F910F91FF90EF90DF90CF90BF90AF904C
:103AC0009F908F907F906F905F904F903F902F903E
:103AD0000895803749F0883701F7D4FE02C0689412
:103AE000D2F820E130E00DC06894D4F8F6CF34FE6F
:103AF00003C0822F8660D82E20E132E002C028E089
:103B000030E0F801D7FE0FC060817181828193811E
:103B10000C5F1F4FA5010E94121EC82ECA183D2C13
:103B2000E89437F852CF6081718190E080E00E5FB9
:103B30001F4FF0CF42FC02C0839463CF83948394E1
:103B400060CF842D867809F45CCFF6CFB70180E290
:103B500090E00E94E21D83948214C0F3512C5ECF4A
:103B6000522C5818821408F459CFF8CF842D867837
:103B700009F466CF8BE241FE80E247FC8DE2B7019B
:103B800090E05CCFB70180E390E00E94E21D9A9440
:103B900057CF8FEF9FEF84CFFC01059061507040AD
:103BA0000110D8F7809590958E0F9F1F0895FC0106
:103BB0006150704001900110D8F7809590958E0F5C
:103BC0009F1F08950F931F93CF93DF93182F092FF3
:103BD000EB018B8181FD09C01FEF0FEF812F902F2B
:103BE000DF91CF911F910F91089582FF14C02E8114
:103BF0003F818C819D81281739073CF4E881F98148
:103C0000CF0101969983888310838E819F810196CD
:103C10009F838E83E3CFE885F985812F1995892BC2
:103C2000A1F3DACFFA01AA27283051F1203181F12E
:103C3000E8946F936E7F6E5F7F4F8F4F9F4FAF4FB4
:103C4000B1E03ED0B4E03CD0670F781F891F9A1FC7
:103C5000A11D680F791F8A1F911DA11D6A0F711D7B
:103C6000811D911DA11D20D009F468943F912AE087
:103C7000269F11243019305D3193DEF6CF0108956F
:103C8000462F4770405D4193B3E00FD0C9F7F6CFA0
:103C9000462F4F70405D4A3318F0495D31FD405268
:103CA000419302D0A9F7EACFB4E0A69597958795FE
:103CB00077956795BA95C9F70097610571050895DD
:103CC0009B01AC010A2E0694579547953795279589
:103CD000BA95C9F7620F731F841F951FA01D089521
:043CE000F894FFCF86
:103CE400010001000E11081F02110E00111B151F07
:103CF400111111000E11111F11110E000E11101FC0
:103D040010110E000000400014005400620A650AFD
:103D1400680A1E0A200A220A240A09035C0A5F0AA6
:103D2400260A300A3A0A440A4E0A740A09035C0A4B
:103D34005F0A620A650A680A6B0A6E0A710A580AFF
:103D44005B0A5E0A610A640A670A6A0A6D0A700AF3
:103D5400730A760A790A620A09035C0A5F0A000098
:103D640000000D046D039A035A04CB03A903BD0399
:103D74000000000064053705ED060D0530051D053E
:103D84000E0500000000C4066D03ED06EC063E318E
:103D94002E20584443520020312E205844435200D0
:103DA4003E322E20393431340020322E2039343141
:103DB40034003E332E20393431342F393432340038
:103DC40020332E20393431342F39343234004D61CC
:103DD400696E204D656E750069643F0D0A003932C5
:103DE40035302C0039393030303000736E3F0D0AD5
:103DF400003E312E20536574204261756420526167
:103E040074650020312E205365742042617564204E
:103E140052617465003E322E205465737420436FE2
:103E24006D6D730020322E205465737420436F6DC2
:103E34006D73003E332E20536574204164647265B3
:103E440073730020332E20536574204164647265BB
:103E54007373003E312E20476F203E3E3E202020CB
:103E64002020202020200020312E20476F203E3E9D
:103E74003E202020202020202020003E2020202022
:103E8400202020202020202020202020202020004E
:103E94003E312E20393630300020312E2039363054
:103EA40030003E322E2031393230300020322E2084
:103EB4003139323030003E332E2035373630300041
:103EC40020332E203537363030003E312E205265D7
:103ED40067756C61746F7220546573740020312EA1
:103EE40020526567756C61746F7220546573740039
:103EF4003E312E2043757272656E7420536574745E
:103F0400696E67730020312E2043757272656E747A
:103F14002053657474696E6773003E322E204C65BD
:103F2400616B2054657374696E670020322E204CD7
:103F340065616B2054657374696E670020312E20AF
:103F4400476F203E3E3E003E312E505220312E30EF
:103F540020535720302E31203E3E3E0020312E503B
:103F64005220312E3020535720302E31203E3E3EF9
:103F7400003E312E20532F4E205365740020312EE5
:103F840020532F4E20536574003E312E2050726909
:103F94006D6172792F4D61737465720020312E202A
:103FA4005072696D6172792F4D6173746572003E50
:103FB400322E205365636F6E646172792F536C6186
:103FC40076650020322E205365636F6E64617279CA
:103FD4002F536C6176650020202020203E596573A4
:103FE40020202020202020202020200020202020ED
:103FF40020205965732020202020202020202020EC
:104004000020202020203E4E6F3B205265737461B7
:104014007274202020002020202020204E6F3B207E
:1040240052657374617274202020005844435220F6
:104034005375626D656E75005844435220636F6D0D
:104044006D7320202020202020202020005844436D
:104054005220436F6D6D7320426175640058444370
:104064005220436F6D6D73204164647265737320D5
:10407400200039343134205375626D656E7500202B
:104084002020202020322E20526573657420507227
:10409400657373757265205261746520616E642066
:1040A4005365742057696E646F7720202020202088
:1040B400202020202020200020322E2052657365ED
:1040C4007420507265737375726520526174652033
:1040D400616E64205365742057696E646F770020A5
:1040E40020202020205442443E3E332E2043617041
:1040F4007475726520526563656976652F44656CD5
:104104006976657265642041732053657474696EC1
:104114006773202020202020202020202020002021
:104124005442443E3E332E204361707475726520C0
:10413400526563656976652F44656C697665726559
:10414400642041732073657474696E677300393435
:10415400313420526567756C61746F7220746573B5
:104164007400202020202020332E20526576657292
:1041740074204261636B20746F2044656661756CC2
:10418400742053657474696E677320202020202086
:104194002020202020200020332E205265766572B6
:1041A40074204261636B20746F2044656661756C92
:1041B400742053657474696E677300437572726515
:1041C4006E742053657474696E6773202020200018
:1041D400536574204C65616B2D5465737420526172
:1041E400746573005265636F72642043746C72204B
:1041F40053657474696E677300393431342F3934FC
:104204003234205375626D656E75002020202020A5
:1042140020322E20536C617665204F7074205365D4
:1042240074203934313420322E30342E78782053AF
:104234002F57202020202020202020202020002054
:10424400322E20536C617665204F70742053657450
:10425400203934313420322E30342E787820532FC4
:104264005700202020202020332E2053657420392D
:1042740032353020534E20616E64204461746520D1
:1042840020202020202020200020332E205365745D
:10429400203932353020534E20616E6420446174DD
:1042A40065002020202020205072692F5365632050
:1042B40053657420284F6E6C79204170706C696569
:1042C4007320746F20322E30342E585820532F57B9
:1042D40020616E64204C61746572202020202020AF
:1042E400202020202020002020203E2020002020EC
:1042F400203E202020002020203E202020200020BE
:1043040020203E20202020200053656E6420536529
:104314007269616C204E756D6265723F0044617410
:10432400653A4D4D2C44442C323032342020202028
:10433400002020203E2000232A49443F0D0A002368
:104344000020302000434F4D53003A436F6E66699E
:10435400726D2042617564004F722055736520525E
:1043640053343835204A756D706572005800232A1D
:104374004120410D0A00232A534156450D0A0023CA
:104384002A4120420D0A00232A4120430D0A00231A
:104394002A4120440D0A00232A4120300D0A00231B
:1043A4002A4120310D0A00232A4120320D0A00231C
:1043B4002A4120330D0A00232A4120340D0A002308
:1043C4002A4120350D0A0073657477696E646F772E
:1043D4003F0D0A006761696E733F0D0A004D756CED
:1043E400743D20006D756C743A002D2D2E2D2D2DED
:1043F4002D2D0053657457696E3D20006D756C74E6
:104404003D20310D0A0073657477696E646F773DE2
:1044140020302E310D0A00756E69746E6F3D2031A7
:104424000D0A006D756C743D2032350D0A007365FC
:104434007477696E646F773D20302E3030340D0A06
:104444000073657477696E646F773D20302E303366
:104454000D0A006D756C743D2035300D0A00534E05
:104464003F0D0A004741494E533F0D0A00534E3A4F
:1044740020006D796E756D3D393925642564256498
:1044840025640D0A0053656E74004E657720534E03
:104494003A00736C6176656F70743D20310D0A00CB
:1044A400736C6176656F70743D20300D0A00494E5F
:1044B4005354534E20393925642564256425640DED
:1044C4000A00494E5354444F4D203025642F25642F
:1044D40025642F25640D0A00494E5354444F4D2042
:1044E40025642F256425642F25640D0A004E657705
:1044F40020446174653A00444F4D3F0D0A00410069
:10450400420043004400393432342020202020006B
:1045140032204368616E6E656C0034204368616EBE
:104524006E656C0036204368616E6E656C003820E1
:104534004368616E6E656C00313200303100303298
:10454400003033003034003035003036003037006E
:0C455400303800303900313000313100C7
:00000001FF
